:10000000085E00208D3900002B140000F12900004B
:10001000FF1E00001F1F0000271F0000000000003F
:10002000000000000000000040000000332000003D
:1000300003220000740000004F370000EF3800007A
:1000400007B0CD5E0100000002000901203A000067
:100050000040000000001000F10001009D2B000096
:10006000A12B0000652D0000E336000015370000CD
:100070001401000013B779FAC925DDB7ADF3CFE05D
:10008000F1B614B801010000000000001C3A0000A5
:100090004000000002000901000000000000000014
:1000A0000000000000000000000000000000000050
:1000B00000000000454652333200000001000000FD
:1000C000020000000040080000E0060000200F00D1
:1000D0000040000080000000000000000000000060
:1000E0000000000000000000000000000000000010
:1000F0000000000000000000000000000000000000
:1001000000000000000000000000000000000000EF
:10011000000000000001000059330000AF33000070
:10012000DD330000FB330000413400002B320000BF
:1001300019310000F93200006134000089340000F8
:10014000E5340000553000005F3000007D300000D5
:10015000B130000030B5084B01241C6000255D6003
:10016000DA609C6002E010F8014BDC610A46511E27
:10017000002AF8D1186A30BD048008407E4A106811
:1001800038B942F6010081420FD201201060101DE3
:100190007047012809D142F20100814205D20220B4
:1001A000106042F60401501870470020704729B1D2
:1001B000714801680129A4BF491E016070472DE9FB
:1001C000F04F87B002238DF80C3041F20239DFF88E
:1001D000ACB16B4F069088461546B96F7B6F002413
:1001E000C1F540720592049305B1012403A8029061
:1001F000019404A8009007F17C0305AA5944381D16
:1002000001F019F838B11CB19DF80C00022805D096
:1002100041F2033A2DE09DF80C0048B3BC6F0598FD
:100220004346594604190698A608B20001F0FEF8A4
:100230008246B4EB860405D022460BEB8601584675
:1002400001F05EFEBC67786F049C0499041B814238
:1002500005D207F17C002246014401F051FE9DF8D1
:100260000C007C670228B8D0002D18BF012800D0F0
:10027000CA46504607B0BDE8F08F10B5404C70211B
:10028000201D01F04DFE002200200121A2616061CD
:100290002170A267606710BD2DE9F84381461D46B5
:1002A00068680C4690460026A8B3354F387890B160
:1002B0003E70206807F51F730522C9F86000211DF4
:1002C000381D01F06CF810B141F2053023E0381D03
:1002D00000F0B1FE1126786FA8EB0608C0F500709B
:1002E00040450DD2002229464846FFF768FF90B9E5
:1002F000786FC0F50070404538BF41F204300AD332
:100300007D6F4246A11978197C3001F00DFEA8449A
:10031000C7F874800020BDE8F283406D08B9112051
:10032000704701207047F8B505460E46706800B961
:10033000F2BD01222846FFF742FF040014D1104FFE
:10034000B96F99B108460D4C042805D2FF22C1F1BE
:100350000401204401F0F4FD3346042221462846DE
:1003600001F064F8040001D02046F2BD07F51F71CA
:10037000381D00F0C0FFF7E704030020084B002001
:1003800080000020836C002B00D17047F0B5B3F5DE
:10039000897F24D2456A026B4469491B9942866A67
:1003A000876B88BF1946D0F82CC02AB9C268A2EB67
:1003B0000C0E714528BF02638C445B1AC0F82CC038
:1003C000836409E0491EBD422CBF00223246EB1B6C
:1003D000D218A25C62556D1C0029F3D14562F0BDB4
:1003E0002DE9F74F90B01198109A10990A90136B5D
:1003F000486AC96A43B9109A119CD268521A241AE1
:10040000A2423CBF12180A92109A1469109A0094E2
:10041000109C526BA56B109C0195E56B109C06958A
:10042000256C109C0595656C109C07950125A668A8
:1004300005FA06F6761E0E96109E7468109EA5406C
:10044000109C6D1E0D952568109C0C956569109C7F
:100450000395B56A00260993109B04950296A4693A
:10046000DD69D3F82090009B0E9E03EB42170E40EF
:10047000B5F1807F07EB4607B7F8008005D24B4601
:1004800014F8019B2D0249EA0329EB0A08FB03FA41
:10049000099BDDF804C001F1010B0B43A0EB0C0C30
:1004A000CDF82CB0D14580F0AA80C8F5006508EBE6
:1004B000551556463D80009F07F66C67ABB1002886
:1004C0000D9D0C9B0CBFDDF810E086462940039D76
:1004D0009940754415F8013C0C9DC5F10805EB40A9
:1004E00059184FF4C06359430F440B99062A32D868
:1004F000042A4FF0010B34BF13460323D21A37F8F6
:100500001B30B6F1807F05D24D4614F8019B3602B0
:1005100049EA0529F50A5D434FEA4B0CA94508D283
:100520002E46C3F5006503EB551327F81B30E34651
:1005300008E0A3EB5313761BA9EB050927F81B3042
:100540000CF1010BBBF5807FD9D33546039B03F833
:1005500000B0401C12E3019B039DB04698424FF04F
:10056000010B34BF049B0023092A634415F803C020
:100570004FF4807594BF03230623D21A089B664666
:10058000DDF820C0B3F800E023463C467600ACF826
:1005900000E005EA060704EB450C0CEB470E0EEBFA
:1005A0004B0CBCF800E0B8F1807F06D2CA4613F8C5
:1005B000019B4FEA082849EA0A294FEAD82A0EFB8C
:1005C0000AFA4FEA4B0BD14506D2D046CEF5006A67
:1005D0000EEB5A1EBD4308E0A8EB0A08A9EB0A0976
:1005E000AEEB5E1E0BF1010B3D46BBF5807FCDD31C
:1005F000CDF820C01C464546ACF800E0A6E7A8EBC5
:100600005818A5EB0A05A9EB0A09A7F80080DDF840
:1006100000E0B5F1807F0EEB420E0EF5C07BBBF81B
:10062000008005D2CA4614F8019B2D0249EA0A2926
:100630004FEAD52A08FB0AFAD1450AD2C8F5006369
:1006400008EB53130C32ABF80030009B03F26465E7
:10065000A8E0A8EB5818A5EB0A05A9EB0A09ABF826
:100660000080002B00F050820EF5CC73B3F80080B0
:10067000B5F1807F05D2CA4614F8019B2D0249EAE4
:100680000A294FEAD52B08FB0BFBD94535D2C8F513
:10069000006508EB5515DA46BAF1807F1D8007F535
:1006A000F0731F8806D24D4614F8019B4FEA0A2AC0
:1006B00049EA05294FEADA257D43A94515D2C7F550
:1006C000006107EB51171F80019B9842039B34BFC9
:1006D000049900218C4413F80C101954401C062A6C
:1006E0000B998CBF0B22092248E2A7EB5717AAEB04
:1006F000050AA9EB05091F804DE0A5EB0B0AA8EB45
:100700005815A9EB0B09BAF1807F1D800EF5D8753D
:100710002F8806D24B4614F8019B4FEA0A2A49EA71
:1007200003294FEADA237B43994504D29A4600F025
:100730007AFA069D2CE0A7EB5717AAEB030AA9EB60
:1007400003092F800EF5E4731D88BAF1807F06D26D
:100750004F4614F8019B4FEA0A2A49EA07294FEA53
:10076000DA276F43B94507D2BA46C5F5006705EBEE
:1007700057151D80059D09E0A5EB5515AAEB070A45
:10078000A9EB07091D80059B079D0793069B059311
:10079000019F01950697062A009B94BF08220B2211
:1007A00003F668252F88BAF1807F06D24B4614F8ED
:1007B000019B4FEA0A2A49EA03294FEADA237B43DD
:1007C00005EB0616994505D29C4600F02CFA351D1E
:1007D00000271FE0A7EB5717AAEB030CA9EB0309AF
:1007E0002F806B88BCF1807F06D24F4614F8019BA6
:1007F0004FEA0C2C49EA07294FEADC275F43B94549
:100800000AD2BC46C3F5006703EB571308276B8079
:1008100006F5827508260BE0A3EB5313ACEB070C2F
:10082000A9EB07096B8005F5017510274FF4807659
:10083000012335F813E0BCF1807F06D2C84614F8D6
:10084000019B4FEA0C2C49EA08294FEADC280EFBF1
:1008500008F84FEA430AC14508D2C446CEF50068FD
:100860000EEB581E25F813E0534609E0AEEB5E1E72
:10087000ACEB080CA9EB080925F813E00AF1010319
:10088000B342D6D39B1BFB18654602930C2AC0F0DB
:100890003D81042B009E4FF0010C34BFDB014FF46F
:1008A000C073334403F5587333F81C60B5F1807F8F
:1008B00005D24F4614F8019B2D0249EA0729EF0A99
:1008C00077434FEA4C0EB94508D23D46C6F500675E
:1008D00006EB571623F81C60F44608E0A6EB561604
:1008E000ED1BA9EB070923F81C600EF1010CBCF10C
:1008F000400FD9D3ACF1400CBCF1040F40D34FEA08
:100900005C0366465B1E0CF0010747F0020C0E2EDE
:1009100037D2009F0CFA03FC760007EB4C077642B7
:100920003E4406F25E5E012601273EF81780B5F1CF
:10093000807F05D2CA4614F8019B2D0249EA0A2994
:100940004FEAD52B08FB0BFB4FEA470AD94508D2E3
:100950005D46C8F5006B08EB5B182EF8178057460C
:100960000BE0A8EB5818A5EB0B05A9EB0B092EF82B
:1009700017800AF1010746EA0C0C76005B1ED4D101
:10098000A5E01B1FB5F1807F00F053F96D08A9EBBE
:1009900005094FEAD976764206EB4C072E4007F15F
:1009A000010CB1445B1EEDD1009B4FEA0C1CB5F16C
:1009B000807FB3F8463600F03CF9EE0A5E43B1455D
:1009C00009D23546C3F5006603EB5613009FA7F81E
:1009D000463602270AE0AD1BA9EB0609A3EB531329
:1009E000009E03274CF0010CA6F84636009BB5F19B
:1009F000807F03F2446333F817E005D24E4614F8C3
:100A0000019B2D0249EA0629EE0A0EFB06F87E003C
:100A1000C14507D24546CEF500680EEB581E23F8B7
:100A200017E00AE0AEEB5E1EA5EB0805A9EB08098E
:100A300023F817E0761C4CF0020C33F816E0B5F101
:100A4000807F05D24F4614F8019B2D0249EA072901
:100A5000EF0A0EFB07F87700C14507D24546CEF5F1
:100A600000680EEB581E23F816E00AE0AEEB5E1E9F
:100A7000A5EB0805A9EB080923F816E07F1C4CF04C
:100A8000040C33F81760B5F1807F05D2CE4614F818
:100A9000019B2D0249EA0E294FEAD52E06FB0EFED8
:100AA000F14507D27546C6F5006E06EB5E1623F8D3
:100AB000176009E0A6EB5616A5EB0E05A9EB0E098B
:100AC00023F817604CF0080C1CF1010F11D0059EA3
:100AD000069F07960597019B0CF101070693099B5A
:100AE000019763B98C450DD2132A34BF07220A221D
:100AF0000CE0029B0C3A03F58973029345E0099BD5
:100B00009C45F1D310994862012089E0029F0A9B1D
:100B1000BF1C1B1AF6D0BB42019EDDF804E088BF63
:100B20003B46B042A0EB0E0E2CBF0026049EFF1ADF
:100B30000297049F76445918BF1B9F420DD3DDF8DE
:100B40000CC0361A0CEB000707EB030C1818BB5D42
:100B500007F8013B6745FAD110E0039FDDF810E08C
:100B600017F806C0761C07F800C0401C764508BF81
:100B700000265B1EF4D10397CDF810E00A9B984243
:100B80003CBF129EB442FFF46EACB5F1807F04D23C
:100B900014F8016B2D0246EA0929109B9C61109CF8
:100BA000E561109BC3F82090029C109B9C64109CF4
:100BB00060621098C162019910988163069910983B
:100BC000C1630599109801640799109841641099C0
:100BD0004A63109A106B28B9D0681146CA6A8242DB
:100BE00028BF086311991098FFF7CCFB1098416A51
:100BF000119881423FBF109988691299884205D2A5
:100C00001098816CB1F5897FFFF4EDAB1098816C81
:100C1000B1F5897F03D910994FF489708864002059
:100C200013B0BDE8F08FC7F5006307EB53172F80B3
:100C3000704704D214F8017B2D0247EA0929704756
:100C40002DE9F04F0646D6F810A0D6F83490B768D4
:100C5000F46A0125D6F81CB005FA07F70AEB491E1D
:100C60007F1E8B182740D6F820C03EF81700BBF136
:100C7000807F09D2994280F0C681624611F801CB8B
:100C80004FEA0B2B4CEA022C4FEADB2250434FF485
:100C90008078844572D2326B0AF66C6A002A08BFEB
:100CA000002C17D0726A02B9B26A7768D6F800E0F1
:100CB000BD406D1E2C40756904FA0EF4CEF1080E8D
:100CC000AA1812F8017C4FF4C06227FA0EF73C19FB
:100CD0005443A244B9F1070F1DD20A46012401462C
:100CE0003AF81400B1F1807F06D29A426FD212F81E
:100CF000015B090245EA0C2CCF0A78436400844565
:100D000031BF0146091AACEB000C641CB4F5807FBE
:100D1000E6D301246FE1B46B726AA24234BFB76AB2
:100D200000277669121BBA18B45C0A4601260146F0
:100D3000640008EA04070AEB480000EB470535F8B1
:100D40001600B1F1807F07D29A4240D2654612F870
:100D500001CB09024CEA052CCD0A68437600844594
:100D600003D2014628EA070804E0091AACEB000C9C
:100D7000761CB846B6F5807FDAD3CAE7ACEB00063E
:100D80000AEB490CABEB00040CF5C079B9F8002074
:100D9000B4F1807F07D2994219D2304611F8016B25
:100DA000240246EA0026E50A6A43964206D2104625
:100DB0004FF0000C0AF2646E022454E0A01AB61A36
:100DC0000324B9F81820B0F1807F08D2994280F04E
:100DD0001A81354611F8016B000246EA0526C50A5C
:100DE0006A43964219D210460EEB4702B2F8E02150
:100DF000B0F1807F07D29942E9D2354611F8016BF4
:100E0000000246EA0526C50A6A43964225D2B2F197
:100E1000807F01D29942DAD2F2E0801AB61AB9F88C
:100E20003050B0F1807F03D29942D0D200F0EDF87B
:100E3000C20A6A4396420ED3801AB61ABCF8C85149
:100E4000B0F1807F03D29942C1D200F0DEF8C20A2D
:100E50006A43964201D2104601E0801AB61A4FF05A
:100E60000C0C0AF6682EBEF80020B0F1807F07D285
:100E7000994265D2354611F8016B000246EA052613
:100E8000C50A6A430EEB0717964206D210463A1D72
:100E90004FF0000E4FF008081FE0801AB61ABEF897
:100EA0000220B0F1807F07D2994249D2354611F82D
:100EB000016B000246EA0526C50A6A43964206D23D
:100EC00010464FF0080E07F58272F04605E0801AD2
:100ED000B61A0EF501724FF0100E012732F8179076
:100EE000B0F1807F07D299422AD2354611F8016BC2
:100EF000000246EA0526C50A09FB05F57F00AE4259
:100F000031BF2846401B761B7F1C4745E6D30A4667
:100F10000146A7EB08007044BCF1040F6BD2042813
:100F200034BF4FEAC01E4FF4C07E0AEB0E0000F53E
:100F30005875012735F81700B1F1807F07D29A4222
:100F400061D2B64612F8016B090246EA0E264FEA54
:100F5000D12800FB08F07F00864231BF0146091A04
:100F6000361A7F1C402FE5D3403F042F43D3780827
:100F7000401E0E2F0CD207F0010545F002058540FA
:100F80007F000AEB45057F422F4407F25E5A16E0C8
:100F9000001FB1F1807F07D29A4234D2374612F84F
:100FA000016B090246EA07264908751AED0F6D1E06
:100FB0000D40761B401EECD10AF2446A04204FF02B
:100FC000010C3AF81C70B1F1807F07D29A421AD214
:100FD000354612F8016B090246EA0526CD0A6F4331
:100FE0004FEA4C0CBE4231BF3946C91BF61B0CF10F
:100FF000010C401EE5D1B1F1807F01D29A4202D2AC
:101000002046BDE8F08F0020FBE7324611F8016B67
:10101000000246EA0226704710B501230024C3648B
:101020008464846519B10121C462046301650AB155
:101030000121016510BD0021416201220121EBE780
:101040002DE9FB4F0D9F1D6800211960019906468F
:101050009146FFF797F900223A7006F15C0414E01C
:1010600009EB0500A0F11402C6F81890019930466A
:10107000FFF7B6F9002826D10299B0690A68A0EBFB
:101080000900814482180A602D1AB06CB0F5897F7E
:1010900000F0C880F06C48B3029808E04A1CB265C2
:1010A00019F8013B6D1E63540168491C0160B16D64
:1010B0000DB10529F2D30290052902D2032139701E
:1010C000A9E02078002840F0B380A1786078E27829
:1010D000090441EA0061207941EA022101433162B9
:1010E0004FF0FF310020F161F064B065706A019942
:1010F0004FF00008884211D3B06C002804BF316A59
:10110000002901D1042003E09DF8301011B902201C
:10111000387080E000283BD14FF00108306DD0B12D
:10112000316870684FF440724FF48063411802FADE
:1011300001F101F236713069002202E020F812302C
:10114000521C8A42FAD3012070643064F063B063A9
:10115000002070633065B06DE8B9142D03D3B8F189
:10116000000F3FF47DAF2A4649463046FFF768FD41
:1011700050B92A464946204600F0D6FEB565029889
:1011800001686D18056044E0B8F1000F18BF02282F
:1011900043D14A4668E7AA464FF0000B054605E0F2
:1011A00019F80B000BF1010B60556D1C142D38BFA5
:1011B000D345F5D3B565142D02D3B8F1000F0AD08D
:1011C0002A4621463046FFF73BFDF0B1B8F1000F4B
:1011D00018BF022821D1B461019922463046FFF799
:1011E000FFF828BBB069001B854224BF2D1AAB4510
:1011F00016D30298ABEB0505A94401686918016094
:101200000020AAEB0505B0653FE702980168594444
:1012100001600320387000200BE00221397007E0E4
:101220000B2006E0306A08B901213970306A00B13C
:101230000120BDE8FE8F2DE9F84F84B00E9DD2F855
:1012400000B00026D5F800A016602E60074688463C
:10125000039299460E95CDF808A0B96A786A02AB58
:10126000884204BF00227A627C6A109D4A46081BAD
:10127000584532BF00200BEB04019DF83C00009064
:1012800001953846FFF7DCFE054602988144014689
:101290000E98AAEB010A02688A1802607E6A7869D1
:1012A000361B32460119404600F03EFE0399B04419
:1012B000ABEB060B08683018086045B9002E18BF64
:1012C000BBF1000FC7D1002005B0BDE8F08F284664
:1012D000FAE710B5044608462169426890470020A5
:1012E000206110BD10B50446084661694268904708
:1012F0000020606110BD38B504460D46FFF7E9FFD8
:1013000029462046BDE83440ECE710B5052A12D343
:101310004A788B78CC7842EA03220B7942EA04427D
:1013200042EA0362B2F5805F38BF4FF48052C26078
:101330000A78E12A01DB042010BD092392FBF3F3B4
:1013400003EBC301521A0260DBB2052293FBF2F1F8
:10135000816001EB81015B1A4360002010BD70B514
:101360000D68496804464FF440704D1900FA05F5C0
:101370002069164605F2367510B1606D85420CD0B5
:1013800031462046FFF7A5FF326869003046904796
:101390002061656508B9022070BD002070BD7FB571
:1013A00000F036F868BB00F037F850BB039E40F6FB
:1013B000FF701549B6F1804F28BF084602D28E4211
:1013C00088BF1248811921EA0000864238BF0646CC
:1013D000606910B1A06A86420FD029462046FFF707
:1013E00081FF2A68314628469047606128B929461E
:1013F0002046FFF76EFF022003E0A66200F010F81F
:10140000002004B070BD0000FFFF3F00FFFF0F0091
:1014100004461D46684678E72A46694620469EE708
:1014200020466946102200F07FBDFEE72DE9F84313
:101430001E467368002B4ED00C4614F0030118BFF3
:1014400041F2020048D11546074600F082FD396E90
:10145000001D6A18824221D300F1180399421DD25F
:101460008C46844505EB010800F1180238BF84461C
:101470009045ACEB0101ACEB000088BF904604EB5B
:101480000109A8EB0C08384442464946683000F090
:101490004BFDFF224146484600F052FD4FF400400C
:1014A000396E001D884222BF6A18031D9A4209D373
:1014B000411A6018026807F180010A60FF220421C6
:1014C00000F03EFD21463368386E74682A46A04716
:1014D000386E2D183D660020BDE8F28370B54B686C
:1014E0008C689C4206D200F140021B1B14781B1929
:1014F000412B01D3002070BD0D6853781478E41897
:101500008B6804F03F04EE5C06558C68641C8C60AC
:1015100013785B1C13708C684B689C42ECD30120E1
:1015200070BD90F840004A6889681018401A7047EA
:101530002DE9F0410C4617461D468046FFF7F1FFA6
:1015400008F14006A84206D221464046FFF7C6FFF2
:1015500010B300204DE000210CE0707818F8002056
:101560007A5473783078491C5B1C03F03F03421EA9
:1015700073703270307808B1A942EED3A068626807
:10158000904238BFA9420CD22368185C7854A268F4
:10159000491C521CA260F1E71420B07141F2020014
:1015A00027E0A942F8D1B26C069C29463846FEF7DE
:1015B000D1FDB06424B1F0682A46394600F0D7FC6A
:1015C000079838B1F07878B1B0682B463A4639467A
:1015D00000F0F5FCF07838B1B169F069281888425C
:1015E000F06124BF0020F07070692D18756141F220
:1015F0000300BDE8F081F8B584B014460026054626
:1016000001960096082302AAFFF792FF41F2030613
:10161000B0423BD195F8430005F1480738B100F0DE
:1016200037F83868082302AA02A900F0C8FC9DF820
:101630000A209DF80B009DF80910120442EA00628E
:101640009DF8080042EA0122024322609DF80E0044
:101650009DF80F1000F049FC9DF80D1040EA0120A4
:101660009DF80C100843606095F8430048B9DFF816
:1016700024188A421CBFDFF82008824201D000F003
:1016800007F860680021F960B860304605B0F0BD29
:101690007868082202A900F06ABCF8B5064606F18F
:1016A000400700200D46B8717870F870387100213D
:1016B0004FF0FF3014463970797103F02003B8649D
:1016C00039627962BB70FF22182106F1680000F0D0
:1016D00037FCFF22042106F1800000F031FCFF22DC
:1016E000042106F1840000F02BFCBD60FC600020AA
:1016F000C04600B11DB10120C04618B114B941F275
:101700000B00F2BD14B1F86800F027FC0020F2BD18
:101710002DE9FB4F82460021002300249AB005A842
:1017200080E81A0005921C9A269D099106920AF1FA
:1017300048060AF1420710E000F0C6FB089988420B
:1017400035D104980021F160B0600398DFF84C17A0
:10175000884240F03F8102223A7107981C998842E2
:1017600080F0DD8241F20302089239790DF12808F8
:101770001429F2D8DFE811F016001700D7022E0165
:1017800069036B03F10250016B034B016B031603FA
:101790006B034B012E02D0026E03A402A702DF01ED
:1017A000D002DAE7C8E700F08FFB0899884240F0E2
:1017B000B782B87820B10398DFF8DC16884246E09B
:1017C0003A78D1074DD5787800284AD10398DFF8C8
:1017D000CC1688421CBFDFF8C816884225D0DFF837
:1017E000C41688421FBFDFF8C0168842DFF8BC1657
:1017F00088421AD0DFF8B816884222D0DFF8941653
:1018000088426BD0DFF8AC16884213D0DFF8A816F8
:1018100088420DD0DFF88016884215D0DFF89C167C
:1018200088421CBFDFF89816884200F0D38010E091
:10183000102291E711203871B16800207061316188
:101840008BE7142139716CE00120C046002843D198
:101850003EE01420387103A800F0C0FB002860D0DF
:1018600005E30398DFF8381688421CD0DFF83416F9
:1018700088421DD0DFF83016884216D0DFF82C16CB
:10188000884218D0DFF80C16884223D0DFF80816FB
:10189000884216D0DFF82416884210D0DFF82016D0
:1018A00088420AD01CE00B2256E70420387154E726
:1018B0000621397151E70720F8E70921F9E70D20E2
:1018C000F4E70120C046002804BF7878002803D13F
:1018D0000E21EEE77878002840F07C801221E8E7BE
:1018E00003A800F07BFBA8B1039813217064397141
:1018F000039800F07BFB099038788106DAD50998C7
:1019000000281CBF41680029D4D0504688470028D1
:10191000D0D0ACE278781421397110B141F20400D2
:10192000FEE141F20800FBE198F8050098F8041088
:1019300041EA00210291C90704D5387840F001003E
:10194000387002E00020C04640B90120C04600289F
:1019500000F0EB810298C10500F1E7811420387195
:1019600041F20A00DCE1F9780520387141F001010B
:10197000F9700020F061F068082880F0748201217D
:101980000191009100F0B5FA08998842EAD12078D7
:1019900040F00200207098F8020098F803109DF8BB
:1019A000282000F0A2FA98F8011040EA0120104324
:1019B0006060B0680838606298F8060098F8071010
:1019C00098F8042000F091FA98F8051040EA0120F8
:1019D0001043C8D01420387149E2012000F07DFA8C
:1019E00008998842BED198F8021098F803009DF833
:1019F0002820090441EA006198F8010041EA002129
:101A000011430291B068052824BF0298B061F068C4
:101A10000428E2D30A214CE70020F061082148E7BE
:101A20002B6842460AA9F069E047F0694044F0613A
:101A3000B068F168814280F01382A0EB0108B8F130
:101A4000040F05A9504608D3FFF76BFD042808D200
:101A500005A95046FFF742FD61E1FFF762FD4045F1
:101A6000F6D3B8F1410F05A9504628BF4FF0400802
:101A7000FFF757FD404502D200F02BFA8046B8F13F
:101A8000040F0AAA05A924BF4FEA98004FEA80086C
:101A9000012001900090434600F024FA0899884202
:101AA00040F03E813879082804D1D5F808C0BCF14F
:101AB000000FB5D1C8F1040BB8F1040F06D20AA883
:101AC000FF225946404400F03BFAD84439790A29AC
:101AD00006D12B4642460AA95046FFF7A7FCA7E7C6
:101AE000052918D199F80100820714D5E86890B14A
:101AF000F069052818D208EB0001072914D30AA9B8
:101B0000091D081A01680AF184021160FF220421EC
:101B100000F016FA08E00C298AD199F80100410773
:101B200086D5E868002883D02B6842460AA9F06968
:101B3000D5F80CC078E73978880640F19681706C4A
:101B400000F054FA0990002840F08F818FE14FF0A7
:101B5000010900F0BEF9484582D3B068F168A0EBF6
:101B60000109B9F1410F05A9504628BF4FF04009BE
:101B7000FFF7D7FC814502D300F0ABF98146012085
:101B8000019000904B4600F0ABF9089988422FD1A4
:101B9000387881060DD5002C1CBFD4F808C0BCF1E4
:101BA000000FD3D02B464A460AA95046E0470028EA
:101BB0001ED1F068B168884280F05C813878810677
:101BC000C5D5002C1CBF21690029C0D050468847CC
:101BD0008146BEE7002000F080F90899884207D1CD
:101BE000306CB849884204D014223A7141F20500A1
:101BF00096E00120C04618B91B990120C87003E087
:101C00001B99C87800283FD0F87810F0030F1CBF4C
:101C1000EC68002C05D02B6804220AF18401042012
:101C2000A047B06900281CBF686800282CD04FF07E
:101C3000FF3102910AF180040422214602A800F03B
:101C4000E9F940B14FF4004028B121462B686C6897
:101C50000422001DA04704220AF1680102A800F036
:101C6000D9F988B100F075F92B686C6814220AF173
:101C70006C010830A04700F06CF92B686C680422F6
:101C80000AF16801001DA0471B99012088700F20F0
:101C9000387144E00020012101900091102300F0F0
:101CA0001FF9089988423BD100F0E1F900908021AA
:101CB0000191306801230BAA022100F05DF9CBE00D
:101CC0000120787026E0B87820BB002101910090B7
:101CD000402300F005F90899884221D1706800F08E
:101CE00048F900F0B2F9044600F0A4F90094034664
:101CF000706812AA0AA900F0C3F938B11B99002034
:101D0000C8701420387141F2060009E01B990120C7
:101D1000C870B8700121CCE541F2070000E0002056
:101D20001DB0BDE8F08FDDF86C90F068082819D27E
:101D3000002101200191009000F0DBF80899884211
:101D4000EED198F803000006B0F1407F3FF4ECAD0F
:101D50001420387141F20900E2E7DDF86C90B368B5
:101D6000F06898427CD201210191009100F0B8F80E
:101D700008998842D4D11C220AA909F1080000F070
:101D8000D3F899F8000040F0010089F8000009F14B
:101D900008000120C0460028E1D11420387141F22A
:101DA0000C00BDE71B9CF06808285CD20121019162
:101DB000009108230CAA00F094F808998842AFD14A
:101DC000207840F00400207098F80E0098F80F106A
:101DD00098F80C2000F089F898F80D1040EA0120DE
:101DE0001043A062607841072CD5EB208DF82800C5
:101DF000A620172188F8020088F801100AF1500087
:101E00005E2188F8031002680AF184010A6000224A
:101E1000F261F87840F00200F870D5F80CC0BCF11F
:101E2000000F0FD02B6804220AA90020E047F069B8
:101E30002B68D5F80CC008220CA90830E047F069DF
:101E40001030F0610C203871ADE71B9C93E5DDF894
:101E50006C90EDE5DDF86C90F0681028FFF41AAF97
:101E6000CDF86C9056E71B9477E4099CA1E641F20B
:101E7000010055E7099438788106F3D5002C1CBF82
:101E8000E268002A04D02946504690470028F0D145
:101E900040E70000F70A0AF7FC0404FCEB17A6036E
:101EA000EB17A65EF40A0AF4F50909F5F60808F638
:101EB000F70909F7F90707F9FA0606FAFD0303FD22
:101EC000FE0101FEE320BBDE03AA05A95046FFF791
:101ED00092BB05A95046FFF724BB01900090042354
:101EE0000AAA05A95046FFF723BB000440EA016097
:101EF000704708230AAA05A95046FFF719BBFEE759
:101F000062B181423ABF5318984200F00FB880186E
:101F100013F8011D521E00F8011DF9D17047FEE7AC
:101F2000002200F055B9FEE74AB1000011F8013B6C
:101F3000521E00F8013B1CBF11F8013BF8E7704747
:101F40004018491C1CBFB1F1010100F8012DF9D165
:101F50007047282001680869704710B5044600F0F2
:101F60000DFA20460021BDE8104000F037BA00F01D
:101F700037BA014600F035BA2DE9F84380460E46DF
:101F800091461C46089D099F00F060FA29463A4692
:101F9000404600F061FA08F1240000210160067556
:101FA0000C22494608F13900FFF7BEFF08F1450051
:101FB000210C220A017042708470BDE8F1833EB5A5
:101FC0001C460292019100F12805009500F13803AA
:101FD00000F12402214600F0D1FA37BD006807491C
:101FE000884201D101207047002070470349884290
:101FF00002D100BF02A0704700207047FD0707FD17
:10200000FD0707FD7B020000990200002703000086
:102010001B03000003000020521E22BF13F8010B17
:1020200011F801CBB0EB0C00F6D0521C08BF1046E3
:102030007047FEE780B590B000F012F8B0F5A02F21
:1020400011B00CBF0B48002000BD80B590B000F06F
:1020500007F8B0F5A02F11B00CBF0748002000BD55
:102060000023402269464FF4807000F0DEBB034835
:10207000704700004CE30F006CE30F0086E20F0096
:102080002DE9F04F5FEA00080E4697B017461D464F
:1020900018BF002E00D017B940F201605DE0209C0F
:1020A000002D0FA833A116BF002CDFF8B490DFF885
:1020B000B4902022FFF738FF49460FA800F08CFBB0
:1020C00020210FA800F088FB32A292E808500CA94A
:1020D000002D81E808500C9531A191E8010C0DF11B
:1020E000240918BF002C89E8010C099405D00CA91B
:1020F00000F03CF809A900F039F800BF2BA191E8E5
:102100001C0006A806A980E81C00CDF8188000F085
:102110002DF800BF28A191E81C0003A86D4680E8B7
:102120001C00039627A696E8004303A90FA885E89C
:102130000043009700F03CFB694600F017F80FA839
:1021400000F054FB08480168C902FCD5006910F48E
:10215000702F0CBF002040F2046017B0BDE8F08F74
:102160001F24FC841F2400804400004C0FA800F0B2
:102170001FBB00000000010600000000000000007E
:10218000000000000000000000000000000000004F
:1021900000000000000000000100000020000020FE
:1021A00000000000010000002000002000000000EE
:1021B00001000000200000200000000001000000DD
:1021C000200000200000000001000000200000208E
:1021D00000B500BF130096469446103928BFA0E80A
:1021E0000C50FAD85FEA417C28BF0CC048BF40F8C9
:1021F000042BC90728BF20F8022B48BF00F8012B89
:1022000000BDFEE72DE9F84F834602281FD81400D1
:1022100055D00B9A9846D2F800C0BCF13F0F18D8A1
:102220005068002818BF5FEA080A13D1BBF1000FFD
:1022300004D0BBF1020F07D003D308E00FF2AC1AB1
:1022400008E00FF2C81A05E00FF2E01A02E0494870
:1022500036E0C2460CF03F06A444C6F14005C2F881
:1022600000C0A44502D25068401C506089460A9FB5
:102270008EB1AC420FD32A46B819FFF755FE0120A4
:10228000009043463A465146584600F00BFBC24682
:10229000A944641B00263F2C0BD9A5090095434691
:1022A0004A465146584600F0FDFA09EB8519A4EB61
:1022B000851424B122464946B819FFF735FE00209F
:1022C000BDE8F28F2DE9F041044686B088461646F7
:1022D0001D46200003D0022C30D02DD330E014272F
:1022E000002100200DF1080C55F8203042429200E8
:1022F000D21D01EBC3010CF8021002A9114455F8DC
:102300002020C91E52098A7055F82020520B4A70AD
:1023100055F82020520D0A7055F82010401C490F26
:102320000128E1D92A7802F03F02382A34BFC2F1ED
:102330003802C2F1780205E01C27D1E72027CFE759
:102340000C4814E00195009643460B492046FFF7E0
:1023500059FF019500964346082202A92046FFF73F
:1023600051FF0C983A464146FFF7DEFD002006B0CB
:10237000BDE8F08180AFFFFFD400000000281CBF43
:102380006C21FFF7CDBD704700220029026042603A
:10239000CCBF0121002180F86810002070473EB5B5
:1023A00090F86830019000F12805002B00F1080337
:1023B000009514BF012402242046FFF723FF3EBDF1
:1023C00080B5034693F86800009103F128020028C5
:1023D00003F1080114BF0120022003E0D4E700004C
:1023E000DDE7EDE7FFF76EFF02BD00006745230163
:1023F000EFCDAB8998BADCFE10325476C3D2E1F04F
:10240000000000000000000000000000C1059ED890
:10241000367CD5073070DD17F70E5939FFC00B3108
:102420006858151164F98FA7BEFA4FA46A09E667C8
:10243000BB67AE853C6EF372A54FF53A510E527FE5
:102440009B05688C1F83D9AB5BE0CD1900281CBFAE
:102450002421FFF765BD704770B505000C46164690
:1024600018BF002C02D16FF0210070BD2421FFF7AE
:1024700057FD802E1CBFC02EB6F5807F02D06FF0B6
:102480001F0070BD2E60F2082146281DFFF74CFD8D
:10249000002070BD2DE9F8470600144691B00F46A4
:1024A0001D4618BF002C00D015B96FF0210055E073
:1024B0003068802818BFC02805D0B0F5807F18BFCD
:1024C0006FF01F004AD109A82021FFF729FD012F35
:1024D0000FF25C2191E88C000CBFDFF84802DFF8B6
:1024E00048020990684680E88C00301D00903068F2
:1024F0000FF2482206A9C00840F00050029092E86E
:10250000884009A881E888400FF23C21069491E8B0
:10251000000703AC694684E80007039500F048F91A
:1025200006A909A800F044F903A909A800F04AF98E
:10253000316809A800F01EF8102109A800F04CF934
:102540000020C04650B909A800F050F900F009F881
:1025500004F47024002C0CBF0020204612B0BDE80B
:10256000F087DFF8C8010168C902FCD5046900F0F2
:102570003DBA11A8C90800F02FB90000002A2DE9C2
:10258000F64F99B014BF146800240026002800906C
:102590004FF0000A1FBFDDF89480B8F1000FDDF89E
:1025A0009890B9F1000F04D01D001CBF249F002F8C
:1025B00002D16FF0210096E00068019180281CBFD5
:1025C000C028B0F5807F04D06FF01F008BE000F0D2
:1025D0008DF80198824580F07F80002CF7D1A0EB28
:1025E0000A005FEA101B5DD062A611A859A1202243
:1025F000FFF79AFC96E80E0008A84FEA0B1B80E84C
:102600000E000099081D089000990BA80A680EA9F1
:10261000D20842F000520A9259A292E8484081E85A
:1026200048400E9559A191E84C000DF1140E80E838
:102630004C000B9558A090E80E0008EB0A008EE8BD
:102640000E0005904BF00051079100BF55A393E891
:10265000414002AA09EB0A0382E8414000F056F823
:102660000EA900F056F805A900F053F800F04AF85A
:102670000BA900F048F800980168FFF77AFF594667
:1026800011A800F0A9F80020C04600282BD111A8FD
:1026900000F0ACF800F040F806690020C046DA44CB
:1026A00006F47026F6B90198B0EB0A0091D084B90F
:1026B00000983B462A460121FFF7ECFE00204142EC
:1026C0002944CA7B521CCA73D2B212B9401C0F28CB
:1026D000F5D900F00BF8E6E71A9800B104600EB9DE
:1026E000002000E030461BB0BDE8F08F18F80A105B
:1026F000385D641C04F00F04414009F80A100AF127
:10270000010A704702A911A800F05CB80293049175
:1027100008A911A800F04CB804480168C902FCD50A
:102720007047000000010004000101044400004C57
:102730000000000001000000000000000000000098
:102740000100000010000020000000000100000057
:10275000100000200303000400000000000000003F
:102760000000000000000000000000000000000069
:102770000000000000000000010000000000000058
:102780000000000001000000100000200000000018
:102790000100000010000020000000000100000007
:1027A0000000000000000000010000000000000028
:1027B000426812B941607047526850680128FBD1E5
:1027C00051607047826812B98160704752685068E2
:1027D0000128FBD151607047C269042A05D200EB81
:1027E0008202D160C169491CC1617047C169042975
:1027F00000D9704710B54FF098410A6CD302FAD552
:10280000C269121D92000A6502680A6043680B6083
:1028100082680A60002204E000EB8203DC68521C3C
:102820000C60C3699A42F7D310BD002B2DE9F84E16
:102830008BB0074614BF154D154D0E46144603A820
:102840002021FFF76DFB0FF250002F4390E8000EA0
:1028500003976F4687E8000E009644F000540294F8
:10286000694603A8FFF7AEFF03A8FFF7BFFF00F01C
:1028700006F80CB000F47020BDE8F08E00000548AA
:102880000168C902FCD500697047000001000AFF19
:10289000010008FF4400004C00000000010000009F
:1028A000000000002DE9F84791B006460D4691461C
:1028B0001F461A9C0DF124003BA12022FFF734FB98
:1028C00041A393E807000DF1180A03AB8AE807005B
:1028D000CDF818903FA090E8004600BF40A269469E
:1028E00083E80046039592E8280181E828010097D3
:1028F0001EB1022E33D021D336E00998A10140F455
:102900000070099009A8FFF767FF00F047F840F052
:1029100014000590029840F01400029003A909A841
:10292000FFF746FF06A909A8FFF742FF694609A875
:10293000FFF748FF0020C046C0B126E00998A1017A
:1029400040F44070099009A8FFF746FF00F026F810
:1029500040F020000590029840F02000DDE7099843
:10296000A10140F48060EDE709480EE009A8FFF7F7
:102970003DFF08480168C902FCD504690020C04633
:1029800014F4702F0CBF0020034812B0BDE8F0878C
:1029900080AFFFFF4400004C80ADFFFF089840EA85
:1029A000841408940598704700000103000000009B
:1029B0000000000000000000000000000000000017
:1029C0000000000000000000000000000100000006
:1029D00000000020000000000100000000000020B6
:1029E00000000000010000000000002000207047EF
:1029F0004FF4017000F096B880B5684600F0C0F85A
:102A00003E48816ACA0311D441686FF3162141F42C
:102A1000B81141F405414160016821F4704141F46D
:102A200040410160026842F4E06202609DF80100EA
:102A3000012804BF9DF80000002807D14FF0005185
:102A400006200A6801F58041401EFAD100F0A6F880
:102A500000F063F800F0AAF848B940F2012000F055
:102A600061F84FF4017000F05DF8002002BD2449C8
:102A700001E00099491E009100990129F9DA40F21C
:102A800005429042EDD140F20320ECE71D4838B5F5
:102A90000168012401254A060CD500F05DF840F2DA
:102AA0000221401A04D0C01E02D0C01E012801D845
:102AB0000024002544F20400016811F1010F06D141
:102AC0004FF40270BDE8324000F020B831BD2DB1A6
:102AD0004FF4804000F046F90400F1D0002CF5D00E
:102AE0004FF480400849086002461046016881F3AF
:102AF000088881F3098840688746FEE730C00040B7
:102B000000350C009440004008ED00E04FF000510B
:102B100008804FF20F00488070474CF23C300B4960
:102B2000088070474FF0005108804FF20F00488036
:102B3000BFF34F8F06490A68064802F4E062024379
:102B40000A60BFF34F8F00BFFDE7000002000020C6
:102B50000CED00E00400FA054FF0005148884FF2F8
:102B60000F02904201D108887047002804BF0888EE
:102B7000012802D140F2022070474FF400707047E4
:102B8000054909688A0902F03F0201F03F0382709B
:102B90004370090B0170704714C0074000F058BA29
:102BA00000F0AABA4FF400207047000038B500BF0B
:102BB0002FA3D3E90045E2B00221CDE900456846E4
:102BC00000F0AAFA00284FD100245DF8243013F158
:102BD000010F46D04FF4C07202A9184600F040FC25
:102BE000002102A800F050FC40F201218842F7D0F9
:102BF00040F20322904232D19DF8080000F0030019
:102C000002282CD09DF8080041070BD50C9800F045
:102C100055F938B15E9800F0CBFC18B14FF4004084
:102C200000F07CF99DF8080081070FD52820026884
:102C3000039993688B4209D25E9800F0CDFC70B185
:102C40004FF400400B9900F001F908E09DF80800EE
:102C5000C10704D505995E9800F0E0FC30B940F258
:102C60000540641C012CB0D963B030BD0020FBE7E7
:102C7000FFFFFFFF00000000F8B50446600B0D46A3
:102C80001646B4EB403004BF204600F0FFFC04F5CC
:102C900000577F0B7F0304E0384600F0F7FC07F590
:102CA000005730198742F7D3324629462046BDE8FF
:102CB000F84000F0F9BC38B504460D4600F03AF88B
:102CC00050B16069012802D1207C022801D3002084
:102CD00032BDA069286000E02C60012032BD38B50B
:102CE00028231B681C69A04222BF5B691518AB42F0
:102CF00002D3BDE83840BFE731BDF8B504460D4604
:102D000016464FF400402718F0199949884210D20E
:102D10004CB94FF40040282109684A6990423CBFF1
:102D2000086900F0B3FC324629463846BDE8F84051
:102D3000A2E7F1BD7FB504464FEA0D0094A1102231
:102D4000FFF7F2F8002046420DEB0605E97B225C16
:102D5000914205D1401C1028F5D3012004B070BD6C
:102D60000020FBE758B504462268824B606802F1F8
:102D70006042616B9A422CD2282213681A699042F1
:102D800027D37B4B984224D240320E46914201D346
:102D9000994205D30020C046401E8041C00F52BD5D
:102DA0000020C046B8B93046FFF7C4FFB8B1307C48
:102DB00002280ED2706990B102280CD1B0694FF090
:102DC000FF32001D011B2046FDF7C4F96A49884205
:102DD00005D0002052BD2046BDE8524001E0012050
:102DE00052BD30B504469DB0606B01A9FFF763FF8B
:102DF00050B328210A6801981369984228BFA0425D
:102E000003D301465A48814201D300201CE002A8A6
:102E1000FFF7A3F801982146021B02A8FFF7A7F8C5
:102E200002A8FFF7A6F8019CFFF70FF90546FFF788
:102E300001F90199203403460095224602A8FFF7C4
:102E40001FF9401E8041C00F1DB030BD70B590B05D
:102E500004460D464FF0FF32FDF77CF9464B984291
:102E600013D168464EA100F055F800F08DF82946C0
:102E700000F08BF86846FFF7B9FC404E3068C0029E
:102E8000FCD5306910F4702F02D0002010B070BD56
:102E900040F20220FFF73AFE0DF1200048A100F0B9
:102EA00039F800F06DF8294600F06BF808A8FFF734
:102EB0009DFC3068C002FCD53169E6E72DE9F84396
:102EC0008CB004464FF0FF35009504A844A100F0F3
:102ED00021F800BF4AA696E8800301AD01A985E864
:102EE0008003CDF804D004A8FFF76CFC04A8FFF71A
:102EF0007DFC22480168C902FCD5006910F4702FDE
:102F000018BF002003D10098A0428041C00F0DB02F
:102F1000BDE8F0832022FFF707B8000038B590B075
:102F20000446684639A1FFF7F5FF00F02DF8684622
:102F3000FFF75CFC114D2868C002FCD5286910F42D
:102F4000702F11D140F20220FFF7E0FD0DF12000BB
:102F500036A1FFF7DFFF00F013F808A8FFF746FCE3
:102F60002868C002FCD52969002011B030BD0000DE
:102F70000100100001800100E320BBDE4400004C92
:102F8000214608A8FFF728BC21466846FFF724BC65
:102F9000B814B6F1E0CFF3ADB7DD25C9FA79B713B0
:102FA00001000543000000000000000000000000D8
:102FB0000000000000000000000000000000000011
:102FC00001000643000000000000000000000000B7
:102FD00000000000000000000000000000000000F1
:102FE0000000084300000000000000000000000096
:102FF00000000000000000000000000000000000D1
:103000000000000001000000040000200000024356
:1030100000000000000000000000000000000000B0
:10302000000000000000000000000000000003435A
:103030000000000000000000000000000000000090
:103040000000000000000000000000002BA07047FE
:10305000002070472648006800F00100704710B556
:103060000B461118234CA14205D201461846FEF723
:103070005BFF002010BD40F2024010BD38B51318B0
:103080001C4D40F20244AB4210D2002300E01B1D55
:10309000934206D21D5815F1010FF8D040F20340BB
:1030A00032BD00F001FB08B1002032BD204632BD28
:1030B00070B505460C46E00401D1E90402D040F2A7
:1030C000044070BD60190B4940F20246884209D2A3
:1030D000284600F0DBFA05F50055B4F5005403D09E
:1030E0000028F5D1304670BD0028FBD0002070BD0F
:1030F0001C00034001001000002070470102030083
:10310000280000002800000000200000000010003F
:10311000B4000000040000002DE9F04399B004461B
:103120000D4605A85021FEF7FBFE00F0E1F86846C9
:1031300000F012F903984FF0FF36022809D2002060
:1031400020600120A8423CBF44F82060401CF9D315
:1031500064E0A84238BF40F2045060D3FFF722FD7C
:10316000804604980C2205A9C7684046FFF777FF00
:103170004744002853D10598DFF86C91484522D088
:103180000C2205A93846FFF76AFF002847D10598A9
:10319000484507D00020A8423CBF44F82060401CAE
:1031A000F9D33FE0079A05A93846FFF758FF04987E
:1031B000C1684046FFF77CFF88BB079A05A94046D7
:1031C000FFF75CFF58BB079A05A94046FFF747FF8A
:1031D0000799324605A8FCF7BDFF4449884207D04D
:1031E0000020A8423CBF44F82060401CF9D319E0FD
:1031F000079808AA10388008A84288BF28460021EE
:1032000004E052F8213044F82130491C8142F8D3BF
:10321000A8423CBF44F82060401CF9D3002019B0FC
:10322000BDE8F08340F20550F9E7F0B599B00546E6
:103230000C4605A85021FEF773FE50212A4E0127A7
:1032400007910596069700F053F8684600F084F859
:103250000398A04207D302280AD22868002818BF82
:1032600010F1010F02D040F204503AE0002038E0A3
:103270004FF400200646049808A9C768BF19112C0E
:1032800028BF1024002004E055F8202041F8202019
:10329000401CA042F8D34FF0FF3002E041F8240078
:1032A000641C102CFAD302464C2105A8FCF752FFEF
:1032B000C04318900498C1683846FFF7F9FE80B9FA
:1032C000502205A93846FFF7D9FE50B90498C168C5
:1032D0003046FFF7EDFE20B9502205A93046FFF732
:1032E000CDFE19B0F0BD000039528FE1E320BBDE06
:1032F00068461421FEF714BE30B595B00446FFF7BA
:10330000F7FF684600F028F8039D022D20D32946D8
:1033100005A8FFF701FF00281CBF40F205518842B5
:1033200018D1002005A902E0A2420ED0401CA842FC
:103330000ED251F8202012F1010FF5D141F82040B2
:10334000294605A8FFF771FF04E040F2035001E0B1
:1033500040F2025015B030BD10B504000CD04FF44F
:1033600080302060002161603C4802782272406811
:10337000E060FFF76BFE206110BD78B504460D4696
:1033800004F5B876A1B0B1683068802301AA00F0D6
:1033900025F80095802301AA214604F12C00FEF7B0
:1033A000B7F9F060B0688030B06022B070BD0246FE
:1033B00040F20140002900D1704710B5274B5C68EE
:1033C000A24203D300220A604A6010BD03EBC20090
:1033D00082680A60C0684860002010BD38B500F0FF
:1033E00021F800D326E000F017F800D225E09B6812
:1033F000C018BDE83840FFF732BE38B500F012F80B
:1034000000D317E000F008F800D216E09B68C0185F
:10341000BDE83840FFF732BE03EBC403DC68151883
:10342000AC4270470446084611461A460B4B5D688D
:10343000AC42704740F2014032BD40F2024032BD22
:1034400006494A68904202D340F20140704701EBBE
:10345000C000C1688068FFF72BBE0000BC00000000
:103460003EB504460D461146284600F03AF950B9DB
:1034700069462046FFF79BFF28B905F5B870046040
:103480000199416000203EBD38B584B004460D4628
:1034900068461021FEF744FD029504F5BA75A86848
:1034A00088B96868296888420DD269462046FFF7C6
:1034B00064FFA86800281CBF41F2070188420BD1B5
:1034C00040F2012008E0A07800281DBFE078002825
:1034D00040F2032040F2022005B030BD01201870F8
:1034E00070470000F0B585B004460D46164600272B
:1034F0008DF800700DF1040052A100F084F8CDF8B1
:1035000004D037601C212846FEF70AFD04F5BA777F
:103510009DF8000080B994F8720013280CD0B868A8
:1035200050B978683968884206D201A92046FFF769
:1035300024FFEDE705B0F0BD2078810744BF606847
:1035400030602178C80705D51C2204F108012846FF
:10355000FEF7EAFC9DF80010002905BF207800283E
:10356000002040F20640E5E770B504460D462023F2
:1035700004F5827204F1BC0104F12C00FEF78DF811
:1035800004F5BA76B06850B970683168884206D2DE
:1035900029462046FFF7F1FEF4E7002070BDA07831
:1035A00000281CBFE0780028F7D0012070BD000083
:1035B00080B5E4B000F02AF808B1002009E004204A
:1035C0008DF811004FEA0D0022A100F01CF800F068
:1035D00021F865B000BD000010B5E4B028221368E2
:1035E0009C688C4202D200F011F808B1002008E07B
:1035F00002208DF8110068461AA100F004F800F0CE
:1036000009F864B010BD1022FEF78EBC4FF4C072F2
:1036100004A925E7694604A8A6E7000080B5E4B040
:10362000FFF7F4FF08B1002009E001208DF8110038
:103630004FEA0D000FA1FFF7E6FFFFF7EBFF65B0C4
:1036400000BD000000000000DD340000DD3400009B
:10365000DD34000000000000000000000000000059
:10366000FB2C000000000000000000000000000033
:10367000FB2C000000000000DF2C00000000000018
:103680000000000000F0A8B800F0AEB810B5044685
:10369000FFF7F8FF204600F0B2F80446FFF7F4FF0A
:1036A000601E8041C00F10BD70B50546144615F070
:1036B000030F0E4608BF14F0030F01D0002070BDA9
:1036C0000CB9012070BDFFF7DDFF224631462846C8
:1036D00000F0B5F80446FFF7D7FF601E8041C00F29
:1036E00070BD10B50446B1F5C07F02D240F205208E
:1036F00010BD4FF4C071FEF713FC0020607004F59C
:10370000827204F1BC0104F12C000023BDE81040DA
:10371000FDF7C3BF1CB504460091214604F12C00FF
:10372000FDF7F6FF0028C4F87C011CBF41F2070139
:1037300088420BD1A07838B1E07810B140F2032074
:1037400016BD40F2022016BD40F2012016BDFEE774
:1037500010B5524A524C534B1B68234207D10340C9
:103760008B420DD0521EF6D16FF0020010BD4E48B4
:10377000034202D06FF0010010BD4FF0FF3010BDCA
:10378000002010BD70B5494D6860E8680E464107DD
:1037900002D54FF0FF3070BD56F8040B141F02E045
:1037A00056F8040B241FA86044B108210820FFF735
:1037B000CFFF0100F4D00421296070BD04202860EF
:1037C00000212120FFF7C4FF010004D100212120A6
:1037D000BDE87040BCE770BD41F671303449086007
:1037E0000122344B1A60704710B5314841F67131EF
:1037F000016001222F4B1A600024046010BD70B5D7
:1038000041F67131294C01222B4BE568E1621A60C7
:10381000606002262660002121202D0CFFF798FF12
:1038200005F00105010003D100212120FFF790FFE1
:103830000121204A11600DB10021E16270BD2DE926
:10384000F843184F3D688946144641F67131804669
:103850002D0C39620122184B002005F001051A6079
:1038600002E0B044B144A41B7CB108F50056760BCD
:103870007603A6EB0806B4424946404638BF2646C2
:103880003246FFF77FFF0100EBD00121094A1160AA
:103890000DB100213962BDE8F283000080969800E6
:1038A000060001001C00034002000100100003405C
:1038B0003C0003400C2003400C1003400148024927
:1038C000086070470000000008ED00E04EF68851E7
:1038D000CEF20001086840F470000860BFF34F8F1B
:1038E000BFF36F8F4FF00070E1EE100A7047FEE7F4
:1038F0000120C046002801D000F026F8AFF3008078
:103900000020AFF30080FFF777F800F031F830B413
:10391000002513E050F8042BD30744BFA9F101039D
:103920009A18091F042942F8045BFAD213468C073F
:1039300044BF15809B1CC90748BF1D7050F8041B6D
:103940000029E7D130BC704710B5074979441831D8
:10395000064C7C44163404E00A68081D114488476C
:103960000146A142F8D110BD7C0000009800000083
:1039700000F000B80746384600F002F8FBE7000008
:103980002021090326311820ABBEF9E780B5FFF7E7
:1039900095FFFFF77BF8BDE8014000F000B8AFF3FA
:1039A0000080FFF793FFFFF7A3FF30B5016884683D
:1039B0004218416802EB5103C90703D54C4401E0AA
:1039C000491C05D19A420AD012F9011B12F8015B79
:1039D000002904F8015BF3D4491EF7D5F2E70C3057
:1039E00030BD00002BFFFFFF044B0000040300204C
:1039F00000000000B7FFFFFF0C00000028000000DF
:103A00008000002081008100810081008100080089
:103A10007D010000AF01000000000000FFFFFFFF7C
:103A2000FFFFFFFFFFFFFFFFFFFFFFFFFFFFFFFFA6
:103A3000FFFFFFFFFFFFFFFFFFFFFFFFFFFFFFFF96
:103A4000FFFFFFFFFFFFFFFFFFFFFFFFFFFFFFFF86
:103A5000FFFFFFFFFFFFFFFFFFFFFFFFFFFFFFFF76
:10400000A04F01203D940300551901008591030044
:10401000A70A0A010042000004180FAC5065B00165
:104020000000000000000000000000000000000090
:10403000000000005C95030000000000000000008C
:104040000000000000000000FFFFFFFFFFFFFFFF78
:10405000FFFFFFFF00600F00551602100000000078
:10406000FFFFFFFFFFFFFFFF8000000000000000D8
:104070000000000000000000000000000000000040
:104080000000000000000000EC7F0120EC7F012018
:10409000A04F012079BB03005A9403004046012041
:1040A0007C13002000E00F0000000000FFFFFFFF76
:1040B000FFFFFFFFFFFFFFFFFFFFFFFFFFFFFFFF10
:1040C000FFFFFFFFFFFFFFFFFFFFFFFFFFFFFFFF00
:1040D000FFFFFFFFFFFFFFFFFFFFFFFFFFFFFFFFF0
:1040E000FFFFFFFFFFFFFFFFFFFFFFFFFFFFFFFFE0
:1040F000FFFFFFFFFFFFFFFFFFFFFFFFFFFFFFFFD0
:10410000FFFFFFFFFFFFFFFFFFFFFFFFFFFFFFFFBF
:10411000FFFFFFFFFFFFFFFFFFFFFFFFFFFFFFFFAF
:10412000FFFFFFFFFFFFFFFFFFFFFFFFFFFFFFFF9F
:10413000FFFFFFFFFFFFFFFFFFFFFFFFFFFFFFFF8F
:10414000FFFFFFFFFFFFFFFFFFFFFFFFFFFFFFFF7F
:10415000FFFFFFFFFFFFFFFFFFFFFFFFFFFFFFFF6F
:10416000FFFFFFFFFFFFFFFFFFFFFFFFFFFFFFFF5F
:10417000FFFFFFFFFFFFFFFFFFFFFFFFFFFFFFFF4F
:10418000FFFFFFFFFFFFFFFFFFFFFFFFFFFFFFFF3F
:10419000FFFFFFFFFFFFFFFFFFFFFFFFFFFFFFFF2F
:1041A000FFFFFFFFFFFFFFFFFFFFFFFFFFFFFFFF1F
:1041B000FFFFFFFFFFFFFFFFFFFFFFFFFFFFFFFF0F
:1041C000FFFFFFFFFFFFFFFFFFFFFFFFFFFFFFFFFF
:1041D000FFFFFFFFFFFFFFFFFFFFFFFFFFFFFFFFEF
:1041E000FFFFFFFFFFFFFFFFFFFFFFFFFFFFFFFFDF
:1041F000FFFFFFFFFFFFFFFFFFFFFFFFFFFFFFFFCF
:10420000A04F01203D940300551901008591030042
:104210008D9103008991030091910300000000003B
:10422000000000000000000000000000D346000075
:1042300095910300000000007B470000AF4C000098
:10424000F5910300F5910300F5910300F59103004A
:10425000F59103008D420300F5910300F5910300F1
:10426000378F0000F5910300018C0000F5910300E9
:10427000F5910300F5910300F5910300F59103001A
:10428000F5910300F5910300F5910300474D0000FF
:10429000F591030015910300F5910300F5910300DA
:1042A000F5910300D5910300C5910300F59103003A
:1042B000F5910300F5910300F59103009F68030059
:1042C0005368030051680300716403009D68030094
:1042D0005568030059680300576803008193030081
:1042E000CF680300F5910300F591030019810000E8
:1042F000F5910300F5910300F59103007B4D00005B
:10430000F5910300F59103000B460000F5910300C1
:10431000F5910300F5910300F5910300F591030079
:10432000F5910300F5910300F5910300F591030069
:10433000F5910300102510B5494A494C4A4B1B68BA
:10434000234207D103408B420DD0521EF6D16FF0AD
:10435000020010BD4548034202D06FF0010C201648
:104360004FF0FF3010BD002010BD70B5404D6860AB
:10437000E8680E46410702D518200870BD56F804BB
:104380000B141F02E008101D241FA86044B108216F
:104390000820FFF7CFFF0100F4D00421296070BD91
:1043A000042028600021211612C4162304D10C1009
:1043B00005BDE87040BCE77054301341F671312AF6
:1043C0004C01222A4BE568E1621A606060022626F1
:1043D00030300B2D0CFFF7ABFF05F001050100039A
:1043E00036201CFFF7A3FF0121204A11600DB10008
:1043F00021E16270BD2DE9F843184F3D68894614EC
:10440000464A200A80462D0C39620122164B0020B4
:104410003A100B1A6009E0324649464046FFF79FC2
:104420007E501F0DD1B044B144A41B4CB108F5001F
:1044300056760B7603A6EB0806B442ECD22646EA83
:10444000E70121095C10133962BDE8F283000080A6
:10445000969800060001001C000340020812100894
:10446000130C1004000120034000000038B500F0D8
:10447000DDF818B3244C206B011F216300F0D9F83C
:10448000216B0860A14219D1216804F1300020633A
:104490000A460B460B202568954238BF2A46AB4298
:1044A00038BF2B4654F8045B6918401EF3D1891AB3
:1044B000C91A0A20B1FBF0F01449086031BD10B5EB
:1044C000114C3021204600F001F904F13002226342
:1044D00040F65F200D490860BDE8104000F0B0B81C
:1044E0000A490A8840F6E44040F6FF73424392FBD3
:1044F000F3F080B2704700F0B8B880B500F099F8DA
:104500000249086001BD00006C5C0120E4500120FC
:10451000010007D4012200F01F018A405B4B4009D3
:1045200043F82020704700002DE9F0439FB000279A
:1045300004460D4602AEB846B94686E8800305A893
:104540005AA1182200F0D6F85EA6D6E900890BA879
:104550005021CDE9008900F0B9F84D4E304600F009
:10456000E3FA02208DF80B0000224A49304600F0A1
:1045700042FB03218DF8171009228DF8192005EB55
:10458000041101228DF83020A1F180028DF80D0078
:104590008DF82D208DF802708DF82C7005AA02A9D7
:1045A000304600F008F90BAA6946304600F05CFA84
:1045B00039484FF48031032C17D8DFE804F00209A2
:1045C0001010EA07026858BF0121114301600CE096
:1045D000EB07426858BF01211143416005E0EA073B
:1045E000826858BF012111438160B06A4FF4802175
:1045F00040F00200B062294801603220FFF788FFD6
:104600000820F0601FB0BDE8F0833EB5204D29467C
:10461000684600F048FB0098214C01216060217041
:104620000222204802600823EB6037BD1C48007856
:1046300070471B49087808B100220A704868704723
:10464000174910B501200B1D03E00022C4B243F846
:1046500024200246501ED2B2002AF6D10020087053
:104660000321FFF761FF012010BD02210D4A1160F7
:1046700000281CBF3220FFF74BBF4FF480210A48AF
:104680000160BFF34F8FBFF36F8F704700E100E011
:104690000040004A005A620220C3034084E200E066
:1046A000746801202460004A84E100E000000200F8
:1046B00000000000BA04000000000200000000003A
:1046C000BA0400000000030000000000002200F017
:1046D000EFBAFEE762B38B0708D0521E11F8013B18
:1046E00000F8013B00F024808B07F6D1830740F0EF
:1046F000208000BF103A07D330B4B1E83810103A28
:10470000A0E83810F9D230BC530724BFB1E8081034
:10471000A0E8081044BF51F8043B40F8043BD2071E
:1047200024BF31F8022B20F8022B44BF0B78037012
:104730007047121F17D35B0009D151F8043B20F8D2
:10474000023B1B0C121F20F8023BF6D20BE051F883
:10475000043B00F8013B1B0A20F8023B1B0C121F14
:1047600000F8013BF3D238BF121D521E24BF11F8CE
:10477000013B00F8013BF8D87047FEE782B0D2B2A7
:104780003AB1032A01BF0B0A1B0200938DF80410F3
:104790000BE00A0221F07F414CBF4FF07F42002224
:1047A0001143002200918DF80420DDE90023C0E9C7
:1047B000002302B070472DE9F04F0D46164685B034
:1047C00007460022DFF8981400F015FA6C7942F2DF
:1047D0000401844238BF04460120785029790A0038
:1047E00004D10021384600F0F3F90146E8780904C5
:1047F00001F4FE01000100F0300022070143287897
:1048000002F0E042114308B141F00201687808B1BA
:1048100041F00401A87808B141F00801B960E888C6
:10482000DFF840B4386129896889002540EA0140F1
:104830003862029704968DF804400DE0C0F3110031
:10484000044304E010F5003FF8DA44F40034346522
:104850009DF800006D1C70650298DFF80C1488420A
:104860000CBF02200020854280F0F6800C210498C5
:10487000694347183C789DF804007E79002C00902D
:1048800002980CBFDFF8E413DFF8E413234600229C
:1048900000F0C7F9B042DFF8DC2304F0030138BFB1
:1048A00030468DF80000029800EB0516B06C7B785E
:1048B00010400843B9789B0003F01C030903184318
:1048C00001F4E0410843F978090401F4E0210843C8
:1048D0003979090701F040510843B064002CB7D181
:1048E000B06C4FF00009C0F30230012814BF022859
:1048F000DBF800801CD0032807D1DBF800004FEA6A
:104900001048DBF80C0000140FE00428DBF80480EA
:1049100004D1DBF80C000014400006E0DBF80C00CA
:104920004FEA1848001400EB400000F0DAF9814625
:104930001FFA88F049F6FF71084084040004B16C46
:1049400048BF44F000440120C1F38201491C00FA31
:1049500001FA504600F0C5F90390BAF1020F07D1F1
:10496000DBF80C0000B200F0BCF90146484619E043
:10497000DBF8100000B200F0B4F9494600F0B8F9D5
:10498000039981464FF07C5000F0BBF90146484640
:1049900000F0C0F98246DBF8080000B200F0A1F98F
:1049A0000146504600F0BFF98146B86800F0C4F9EE
:1049B000DFF8C41200F0AEF90146DFF8C00200F0E3
:1049C000A9F90146484600F09CF901464FF08140A4
:1049D00000F097F9039907464FF0874000F09AF9E5
:1049E0000146DFF89C0200F08CF90146384600F0E1
:1049F0009AF90746B4F1004F18D01FFA88F000F07A
:104A00009BF901464FF0605000F07BF980464FF073
:104A10009241384600F087F90146404600F071F9AE
:104A200001464FF0494000F07EF9074687F000400C
:104A3000002100F089F9394634BF4FF03F404FF074
:104A40007C5000F055F900F091F9B0F5003FFFF609
:104A5000F9AEDFF83002F3E60298012141F20402D8
:104A6000815005B0BDE8F08FF0B50346012442F255
:104A700004055C5148780028C87814BF0824002435
:104A800008B14FF480700D788E7805F007052C433F
:104A9000360106F0300634430443C3F88040D86A38
:104AA0000C794D7920F0170004F007042D01204304
:104AB00005F010052843D862002417E0AC422CD240
:104AC00004EB84051544E87808B14FF400302E78E3
:104AD0006F78AD7846EA07262D0405F480352E431D
:104AE000304303EB8406C6F8A000641C5E48834292
:104AF0000CBF10250025E1E704EB84071744387943
:104B000010B10127A7403E43641CAC42F4D39E6120
:104B1000887908B10821D960F0BD012041F2040470
:104B2000185100260024F0E770B5012141F204027B
:104B30008150554BC360554A41691142FCD1002157
:104B4000816100F1840100224A61426912F4401F30
:104B5000FBD14269D30548BF426FFAD400E00B682D
:104B600042699305FBD4C26F896842F20403C118FD
:104B700001220A60002484600461C462046230225D
:104B80000267C0F880200022374B414E08E000EB5E
:104B9000021442F26005521CA56426650025656575
:104BA00098420CBF02240024A242F0D3002205E068
:104BB000002400EB8205C5F8A040521C98420CBFAF
:104BC00010240024A242F3D332480862486270BD28
:104BD00080B5080004D1172000F012F900B90120B7
:104BE0002D4908182D4AB0FBF2F0401E7F2828BF3F
:104BF0007F20C0B202BD10B50C4619498C42104648
:104C000028BF0C4610B9172000F0FAF82018401EF3
:104C1000B0FBF4F018B1401E042828BF0320C0B236
:104C200010BD002B10B50C460CBF10491049A14215
:104C3000104638BF0C4610B9172000F0E1F8029971
:104C4000491CB0FBF1F02018401EB0FBF4F028B175
:104C5000401E40F2FF31884228BFFF20C0B210BD85
:104C6000005A62028081E00F0040004A809698005E
:104C7000404B4C00E08FF8CF00007A440000A03F8A
:104C800000002044FFFF010012000200520001005A
:104C900000C002808F330F803F420F0040420F0060
:104CA00002F007026AE551F8802F4968F8E7FEE74D
:104CB00000B500BF130096469446103928BFA0E8FF
:104CC0000C50FAD85FEA417C28BF0CC048BF40F8BE
:104CD000042BC90728BF20F8022B48BF00F8012B7E
:104CE00000BD00EE100AB8EEC00A10EE100A7047C0
:104CF00000EE100A00EE901A30EE600A10EE100A74
:104D0000704700EE100A00EE901A20EE200A10EE16
:104D1000100A704700EE100A00EE901A80EE200A8A
:104D200010EE100A704700EE100A00EE901A30EEF6
:104D3000200A10EE100A704700EE100AB8EE400A82
:104D400010EE100A7047FEE74FF0807C1CEB400F1E
:104D500094BF1CEB410F05E040EA010C1CEB0C0F6B
:104D600001D28842704718BF8142704700EE100A96
:104D7000BDEEC00A10EE100A7047FEE700F0D7BB88
:104D800001460020DFF82827012905D0022907D095
:104D9000032909D00E290AD11068C0F3013006E0BA
:104DA000106AC0F3046002E01068C0F38020401C69
:104DB000704738B54C1EDFF8F856012805D0022898
:104DC0000ED0032813D00E2817D100F007FB00F0F7
:104DD000C5FA286820F4405040EA04302860B6E163
:104DE000286A20F0F85040EA0460286231BD286843
:104DF00020F4806040EA8420286031BD000000007B
:104E00001CB500210091242856D8DFE800F01316C5
:104E1000191E2732363A3E42464A4E52163A5555E8
:104E20003E161E271E32163A1E52363636361E1EC5
:104E30001E42460000F06AFB19E000F078FB16E025
:104E400000F064FB0446022003E000F070FB04461F
:104E50000320FFF795FFB4FBF0F008E000F067FBDC
:104E600004460320FFF78CFFB4FBF0F040080090ED
:104E700022E0684600F04DFA1EE0684600F008FAAD
:104E80001AE0684600F020FA16E0684600F020FAC2
:104E900012E0684600F0C8FA0EE0684600F0EAFA50
:104EA0000AE0684600F0D8F906E0684600F06EFABD
:104EB00002E0684600F065FA009816BD80B5002152
:104EC0008DF80010242858D8DFE800F01357575702
:104ED000572B30353A3F44494E53573557573A5779
:104EE0005757572B57355753303030305757573F58
:104EF0004400DFF8BC05016801F00701491E0329E1
:104F00003BD8DFE801F00A020406042202E0032194
:104F100004E006228DF800202FE002218DF8001019
:104F20002BE06946002000F0F4F926E069460020F5
:104F300000F0AEF921E06946002000F0C5F91CE060
:104F40006946002000F0C4F917E06946002000F02F
:104F50006BFA12E06946002000F08CFA0DE0694619
:104F6000002000F079F908E06946002000F00EFA10
:104F700003E06946002000F004FA9DF8000002BD3D
:104F8000F8B5002500260C46DFF82475DFF8242547
:104F9000DFF82435242844D8DFE800F013C2C2C269
:104FA000C244576A71788CA0B0BCC26AC2C271C2D6
:104FB000C2C2C244C26AC2BC57575757C2C2C278A3
:104FC0008C00022915D0032907D0042903D0062913
:104FD00008BF04250EE002250CE0DFF8E0040668B7
:104FE0000120DFF8DC147608032506F001060860CE
:104FF00000E0012500F0F2F900F0B0F9386800F0A7
:1050000090F83D60FFF7BAFE002100F024F900F0AF
:10501000A9F9002E08BF032C03D10120DFF8A41446
:105020000860F1BD022907D0052903D00D2904D15C
:10503000012502E0022500E00325DFF88C04016869
:10504000890845EA81050560F1BD891E03290AD852
:10505000DFE801F008040206012504E0022502E071
:10506000032500E00425186A00F05BF81D62F1BD1D
:1050700000F05FF8186C00F058F81D64F1BD00F006
:1050800058F8186E00F051F81D66F1BD072909D0D7
:10509000082905D0092907D00C2908BF042504E0F8
:1050A000012502E0022500E00325106800F039F830
:1050B0001560F1BD072909D0082905D0092907D0B5
:1050C0000C2908BF042504E0012502E0022500E0C8
:1050D0000325906800F025F89560F1BD032905D0FF
:1050E000062905D0072908BF022502E0012500E0B6
:1050F0000325186800F019F81D60F1BD052903D0DB
:105100000B2902D1022500E00325386900F00DF8D3
:105110003D61F1BD00F00DF8106C00F006F815646B
:10512000F1BDC00845EAC0057047800845EA800522
:105130007047072905D007D3092904D004D20125D7
:10514000704702257047032570470020B6E6FFF739
:1051500015FE002100F07FF8BDE8314002E1F8B50E
:105160000446FFF7F2FF032874D0DFF8601345F61A
:105170000E000867DFF8583302221A61DFF8442373
:10518000012010608D6CE803FCD466782578E07807
:10519000360546EA05662579677946EA0046A0792C
:1051A00046EA053646EA871606430E60267AE57912
:1051B000607A360646EA8566A57A46EA0046E07ACF
:1051C00046EA052606438E600D69607B002825F0BF
:1051D0000D050CBF002608263543267B45EA8605CB
:1051E00005430D61607BE57BA67B0028886920F084
:1051F000330040EA461646EA051520D145F0010580
:105200008D61DFF8D0028D6C05408542FBD1022014
:105210001861886C4500FCD40868A5784FF00046FA
:1052200020F4700040EA055008601E60207C08B938
:1052300002231360607C40B90123136005E0227CE7
:10524000607C45EA420505438D61A07C10B1DFF822
:1052500088220A67F1BDC6E0974A38B5136805464B
:10526000002003F003030C46032B10D8DFE803F003
:105270000E02060A00F06AF9032108E000F0B4F912
:10528000072104E000F073F9062100E001213BE072
:1052900038B50C46914900F0E5F813D8DFE802F084
:1052A00002060A0E00F060F904210CE000F04EF94D
:1052B000032108E000F061F9052104E000F05AF94B
:1052C000022100E000211FE038B50C46844902E0CD
:1052D00038B50C4683490A680546002002F00302EF
:1052E000012A04D00FD3032A09D004D30BE000F025
:1052F00075F9082108E000F077F9072104E000F0D3
:1053000070F9092100E0002105B1286004B1217085
:1053100031BD38B504460D46002000906A490A6840
:1053200002F00302012A04D012D3032A0CD006D3C0
:105330000EE000216846FFF7ABFF0D2008E000F00B
:105340001CF90090052003E000F014F90090022001
:105350000CB10099216005B1287031BD02210320F4
:10536000FFF727BD012010B5FFF74AFD02245E4973
:10537000884238BF012421460320BDE81040FFF7D2
:1053800018BD38B50C465949A5E7000070B50C4664
:1053900057490A680546002002F00302012A04D09A
:1053A00015D3032A0FD00AD311E000F0C0F8064647
:1053B0000320FFF7E5FCB6FBF0F00A2108E000F05F
:1053C000B6F80B2104E000F0D8F8052100E0002138
:1053D00005B1286004B1217070BD000080B500F0F7
:1053E000B3F8BDE8024041F6713330B5414C424953
:1053F0003D4D4A694B630B68120CA04223F44013E5
:105400003E4C02F0010228BF43F480130B60236876
:10541000A84223F0020328BF43F0020323600AB12D
:105420000020486330BD000038B50C46214900F02B
:1054300019F814D8DFE802F002060A0E00F0CEF8E0
:1054400008210DE000F0D0F8072109E000F0C9F8CC
:10545000092105E000F06BF8800A0C2100E0002132
:1054600052E700000A680546002002F00702521EBB
:10547000032A704738B50C462149FFF7F3FF14D8CB
:10548000DFE802F002060A0E00F0A8F808210DE09D
:1054900000F0AAF8072109E000F0A3F8092105E0CF
:1054A00000F045F8800A0C2100E000212CE7000004
:1054B00070800040008200400081004028C0004011
:1054C00028D0004028E000408081004010C000400B
:1054D00018D0004003000140F1A7FFFF20810040E9
:1054E000408100406081004081F0FA02408200402B
:1054F00080800040C11753020800034018C20740D3
:10550000088200403A483B49086070473A490A68B7
:105510003A4802F00702012A07D007D3032A02D033
:1055200004D2406870470068704724E0FEE780B509
:10553000FFF7ECFF30490968314AC1F30131491CDA
:10554000B0FBF1F0106002BD2E4870472B48006898
:1055500070472A4908602848026802F00702032AB7
:1055600008BFFFF7E4BF7047244840687047002039
:105570007047000000BF2448704724490A68002093
:10558000120C12F01F020CD0062A1BD0072A1BD0C7
:10559000082A1BD00A2A1BD00B2A1BD00C2A1BD08E
:1055A0007047096811F0407106D0B1F1807F05D0D5
:1055B000B1F1007F04D07047154870471548704717
:1055C000154870471548704715487047154870478B
:1055D0001548704715487047154870474FF400400C
:1055E00070474FF47A7070471248006870470000A7
:1055F0000042000008ED00E070800040A053012050
:10560000AC53012000B4C404002D31010840014A0C
:1056100000093D0080841E0040420F00405DC6002E
:105620000024F400C0EA210180BA8C010048E8019E
:10563000005A6202A853012070B5044616460D4672
:10564000304600F06DF9002020703046A847BDE8D4
:10565000704000F06EB9012225492648ECE701228E
:1056600025492648E8E7012225492648E4E70122A2
:1056700025492648E0E7012225492648DCE70122A2
:1056800025492648D8E7F22223492548D4E780B5A2
:10569000012000F073FA0FF23C1000F003FA2149E8
:1056A000087001BD80B500F07DFA012805D01D48C5
:1056B0000078BDE8024000F0E0B901BDF0B500257A
:1056C000194C00E06D1CA68FEBB2B3420CD20C2734
:1056D0007B4323441E78864201BF5E888E421E793A
:1056E0009642EFD11846F0BD0020F0BD000000004A
:1056F0001F0D0300B45E0120770E0300BC5E012085
:105700002D910200C45E0120310A0200CC5E01200E
:10571000A3ED0000D45E012009930300DC5E0120AC
:10572000E45E0120F37E0120E850012080B519B924
:1057300000F024F9002002BDB1F1004F02D200F0C8
:1057400027F9F7E7022002BDB1F5000F3CBF0902BF
:10575000FFF7ECBF0220704770B505461E46FFF705
:10576000ADFF04000ED0284601F0DCF850B1A0686F
:105770003146FFF7DBFF28B904990598A0716171E4
:10578000002070BD022070BD1CB5049C0093134620
:105790000194012205E01CB5049C0093134601947A
:1057A0000022FFF7D9FF16BD80B500230093FFF755
:1057B000F2FF02BD80B5FFF781FF20B180680021B4
:1057C0000170002002BD022002BD0122F2E700228A
:1057D000F0E70000F4740120AD2D0200FC740120FC
:1057E000AD2D020004750120AD2D02000C750120C5
:1057F000AD2D0200B45E012057560000BC5E0120B2
:105800005F560000C45E012067560000CC5E012098
:105810006F560000D45E012077560000AC66012070
:1058200009AB0200546601207BAD020084660120B2
:10583000CDAC0200C86801209544030038690120FE
:10584000199900003069012051990000AC690120CC
:105850000DDC0000A469012009DC0000446A01207D
:1058600049EF0000686A012025340200907301208E
:105870007D090300BC7301202DA80000DC7301200A
:10588000D7840200A077012089F10000DC5E0120AE
:105890007F560000E45E0120875600001475012049
:1058A000535B02001C750120114D0300247501207B
:1058B000115E02002C75012059030300347501208C
:1058C000B55102003C7501204B5502004475012082
:1058D0007DF302004C750120F3070200547501208E
:1058E00025F300005C75012025F40000647501209B
:1058F000ED430200AC740120E34401006C7501200B
:10590000AB4C020000000000000000000A480B49F8
:1059100008600020704700B1702070470020704779
:1059200080B500F00DF8FF2801D1A32002BD0020B2
:1059300002BD0020704770474C950300406A01206B
:1059400080B500F0FDFFFF2818BF002002BD002138
:1059500001707047FFF7F8BE38B54478456801F02C
:10596000D3FB0C214C438749874B0A59521B9A425F
:1059700038BF0D51BDE8324001F0CCBB10B500F08E
:1059800079F86060042020702046BDE81040E3E70D
:1059900038B504460D4601F0EAFB2D18656001207C
:1059A00020702046BDE83240D6E710B50446207886
:1059B00060B1042806D001F0DAFB6168724B421A2C
:1059C0009A4201D2002010BD081A10BD4FF0FF30DE
:1059D00010BD70B500F04EF8054601F095FB064687
:1059E000606800226FF0004100F007F8451925605B
:1059F0003046BDE8704001F08DBBF8B505460E4657
:105A0000144601F0B4FB024600239CB1FF20207035
:105A100010E0087860B1042811D048685A4F111A74
:105A2000B9420CD3801AB04202D2064604B12370A8
:105A30005B1C083529680029EBD13046F2BD04B162
:105A400023700020F2BD38B500F014F805460DE0D3
:105A5000017851B1042904D041684B4A691A914236
:105A600003D2042303706168884708342068002843
:105A7000EED131BD044601F07ABB10B5FFF7FAFF55
:105A80000C2254433F4A404B1159401A984207D2C6
:105A900014446068FFF7D7FF2046BDE8104098E740
:105AA00010BD000070B50446384E394A707813783E
:105AB000984204D35FF0F00136A001F0A7FB75789F
:105AC0000C20304A2B464343691C7170D1180126C3
:105AD0004C600E7200E0457054F8080B0028FAD1B3
:105AE0000846FFF776FF284670BD0000F8B50C2485
:105AF0004FF0FF3160430091224D05F10801002273
:105B00000A54224B93F8000068B301F073FC20B9EB
:105B100040F229111FA001F079FB01F028FB024699
:105B200000261A4BDFF860C05978F0B2884211D2D3
:105B300060432958571A674515D305F10807385CA3
:105B4000891A80B979B10098814288BF01460091D5
:105B5000761CE9E7684601F072FC10B9684601F06E
:105B600022FB0120F2BD01F073FC0020F2BD0C21EC
:105B70004843044B012218440272704703490870DD
:105B8000704700009868012001000080CA7F012052
:105B90006C9803006576656E742D636F6E74726F1A
:105BA0006C2E630002480078704701490870704706
:105BB000AD7F01207FB500BF1FA213681FA003A9FE
:105BC00000880B601EA10988ADF806001DA00568BD
:105BD0001DA00088ADF804100021ADF80200DFF828
:105BE000BC0C022202ACADF8001080F82020256029
:105BF0005FF0000215A10DF1060400EB0213A55C95
:105C000003AE1D7036F8124002AD5C8035F81240CC
:105C100001AD9C80AE5C0DF102049E71A55C01EBB0
:105C2000C5069E601DF802500126521C1D735E734E
:105C3000022AE0DB7FBD00000401E0A101F20000C8
:105C4000010000000D01610000010000045F000080
:105C50000B00C400E05F000001001B000220704741
:105C6000DFF8380C90F820007047DFF8301C01EBAB
:105C70000010407B00F001007047412818BF422807
:105C800003D0432818BF442801D1012070470020C9
:105C90007047F8B515461E46069A079B044600F065
:105CA000DCFD60B1042101F0E0F8070007D02046D8
:105CB000FFF736FE324629462046B84794E0F1BD4C
:105CC0002DE9FC471400814688461F461CBF0A9DEB
:105CD000002D1FD0F7B128780C9B0107618820792F
:105CE0004CBF4022802200F0B8FD98B1082101F09D
:105CF000BCF8824670B120790B9EFFF711FE00952B
:105D000001963B46224641464846D047BDE8F34708
:105D1000FFF70FBEBDE8F387F8B5069C16461A4696
:105D20000546234600F099FDD0B121000BD1022198
:105D300001F09BF8040013D02846FFF7F1FD31462F
:105D40002846A0470BE0102101F08FF8070007D08C
:105D50002846FFF7E5FD224631462846B84743E08E
:105D6000F1BD2DE9F843089C90461A4606462346A5
:105D700000F073FD08B9862016E000259CB92021AB
:105D800001F073F8814670B10B9F0A9C099D304663
:105D9000FFF7C6FD009723462A4641463046C847CE
:105DA0000546FFF7C6FD2846BDE8F283F8B5044670
:105DB0002078A5680026FFF7B3FD11E0F1B21422A8
:105DC0002868514347183988207801F04CFB01219D
:105DD000384601F04AF801001CBF20788847761C3D
:105DE0002979F0B28842E9D3BDE8F140FFF7A1BDBF
:105DF00038B50024DFF8A45A07E005EB0010417B1A
:105E0000CA0748BFFFF7D2FF641C95F82010E0B224
:105E10008842F2D331BD5CB585B00A9C00268DF86E
:105E20000800ADF80A108DF80C30ADF80E20019680
:105E3000ADF8104000960023002201A902A800F04E
:105E400005F9019807B050BD7CB5069D1C469678B3
:105E50002B0008BFD378412E18BF422E06D0432E08
:105E600009D19A1E92B201F089FE16E05A1ED2B2F2
:105E700001F06AFE11E0442EF3D034B92C0004D0B6
:105E8000D278954201D2892076BD00291A4602D1E6
:105E900001F093FF01E001F049FF002076BD10B54D
:105EA000002301E0001D5B1C9CB28C4204D20488DC
:105EB0009442F7D1408810BD002010BDBEA1401A09
:105EC0000C2290FBF2F2052100A018E012007C11D8
:105ED00019007C117D007C117E007C117F007C11FB
:105EE0000288B2F57C4FA8BF00F002B80846E5E78B
:105EF00004A1401A142290FBF2F201213DA092B2BB
:105F0000CDE7000000000000B86100000F000000B5
:105F10004000000000000000030000006C62000070
:105F200002000400430000000C9503000400000080
:105F30008462000003000700410000001495030084
:105F400005000000A86200000700090041000000F1
:105F50001895030006000000FC620000060009001E
:105F6000410000001C95030008000000446300008D
:105F70000600080041000000209503001900000001
:105F80008C6300000A0021008500000024950300B6
:105F9000000300004C640000330055004300000083
:105FA0002C950300050B0000B066000012002200D3
:105FB00040000000000000000010000088670000A2
:105FC000010002007F000000349503007CFC00000B
:105FD000946700000400050040000000000000007D
:105FE000210000000464000006001B008000000087
:105FF000000000000A007C1110B50C460188628880
:1060000091420DD1037B2279134209D0B1F57C4F27
:1060100004DBFFF76DFF2189884201D1012010BD0B
:10602000002010BD10B514460A88E3889A420AD1B0
:106030000288B2F57C4F04DAFFF752FF21898842CB
:1060400001D1012010BD002010BD00002DE9FF4F3F
:1060500081B0044600250027DFF840B804E08168DD
:10606000C88845197F1CFFB29BF820108F4280F032
:106070009E800BEB0710217802788A42EFD182686C
