S001FE

S315000000008010002019240000D30800007D010000A4
S315000000105F0C0000970C0000671A0000000000004B
S315000000200000000000000000400000006F1A000001
S31500000030A31E000074000000C31E0000F71E00008F
S3150000004007B0CD5E01000000020009014024000057
S315000000500040000000001000F1000100290300002C
S315000000602D030000E9040000FB1900002D1A000012
S315000000701401000013B779FAC925DDB7ADF3CFE057
S31500000080F1B614B801010000000000003C24000095
S31500000090400000000200090100000000000000000E
S315000000A0000000000000000000000000000000004A
S315000000B000000000454652333200000001000000F7
S315000000C0020000000040080000E0060000200F00CB
S315000000D0004000008000000000000000000000005A
S315000000E0000000000000000000000000000000000A
S315000000F000000000000000000000000000000000FA
S3150000010000000000000000000000000000000000E9
S315000001100000000000010000D50800002B090000C7
S315000001205909000077090000BD090000B708000062
S315000001309D080000CD080000DD090000050A00004A
S31500000140610A0000D9070000E3070000010800006B
S315000001503508000030B5084B01241C6000255D60A1
S31500000160DA609C6002E010F8014BDC610A46511E21
S31500000170002AF8D1186A30BD048008404FF4017097
S3150000018000F096B880B5684600F0C0F83E48816A2F
S31500000190CA0311D441686FF3162141F4B81141F432
S315000001A005414160016821F4704141F4404101601C
S315000001B0026842F4E06202609DF80100012804BF73
S315000001C09DF80000002807D14FF0005106200A686C
S315000001D001F58041401EFAD100F0A6F800F063F860
S315000001E000F0A6F848B940F2012000F061F84FF49B
S315000001F0017000F05DF8002002BD244901E000997D
S31500000200491E009100990129F9DA40F2054290420F
S31500000210EDD140F20320ECE71D4838B50168012412
S3150000022001254A060CD500F05DF840F20221401A7D
S3150000023004D0C01E02D0C01E012801D8002400250B
S3150000024044F20400016811F1010F06D14FF4027067
S31500000250BDE8324000F020B831BD2DB14FF48040EA
S3150000026000F042F90400F1D0002CF5D04FF48040A4
S315000002700849086002461046016881F3088881F340
S31500000280098840688746FEE730C0004000350C000C
S315000002909440004008ED00E04FF0005108804FF216
S315000002A00F00488070474CF23C300B49088070477D
S315000002B04FF0005108804FF20F004880BFF34F8F78
S315000002C006490A68064802F4E06202430A60BFF380
S315000002D04F8F00BFFDE70000020000200CED00E09C
S315000002E00400FA054FF0005148884FF20F02904281
S315000002F001D108887047002804BF0888012802D168
S3150000030040F2022070474FF40070704705490968B3
S315000003108A0902F03F0201F03F0382704370090B25
S315000003200170704714C0074000F054BA00F0A6BA36
S3150000033038B500BF2FA3D3E90045E2B00221CDE9CD
S315000003400045684600F0AAFA00284FD100245DF85F
S31500000350243013F1010F46D04FF4C07202A918469B
S3150000036000F03CFB002102A800F04CFB40F201210A
S315000003708842F7D040F20322904232D19DF808001D
S3150000038000F0030002282CD09DF8080041070BD589
S315000003900C9800F055F938B15E9800F0C7FB18B11B
S315000003A04FF4004000F07CF99DF8080081070FD556
S315000003B028200268039993688B4209D25E9800F060
S315000003C0C9FB70B14FF400400B9900F001F908E049
S315000003D09DF80800C10704D505995E9800F0DCFB7E
S315000003E030B940F20540641C012CB0D963B030BD71
S315000003F00020FBE7FFFFFFFF00000000F8B5044602
S31500000400600B0D461646B4EB403004BF204600F0A4
S31500000410FBFB04F500577F0B7F0304E0384600F032
S31500000420F3FB07F5005730198742F7D332462946C2
S315000004302046BDE8F84000F0F5BB38B504460D4649
S3150000044000F03AF850B16069012802D1207C0228F8
S3150000045001D3002032BDA069286000E02C60012095
S3150000046032BD38B528231B681C69A04222BF5B69D0
S315000004701518AB4202D3BDE83840BFE731BDF8B529
S3150000048004460D4616464FF400402718F0199949C0
S31500000490884210D24CB94FF40040282109684A69B5
S315000004A090423CBF086900F0AFFB32462946384609
S315000004B0BDE8F840A2E7F1BD7FB504464FEA0D005E
S315000004C094A1102200F0CCFB002046420DEB06055D
S315000004D0E97B225C914205D1401C1028F5D301200E
S315000004E004B070BD0020FBE758B504462268824B75
S315000004F0606802F16042616B9A422CD2282213682E
S315000005001A69904227D37B4B984224D240320E463A
S31500000510914201D3994205D30020C046401E804136
S31500000520C00F52BD0020C046B8B93046FFF7C4FF21
S31500000530B8B1307C02280ED2706990B102280CD175
S31500000540B0694FF0FF32001D011B2046FFF702FE87
S315000005506A49884205D0002052BD2046BDE8524077
S3150000056001E0012052BD30B504469DB0606B01A983
S31500000570FFF763FF50B328210A6801981369984270
S3150000058028BFA04203D301465A48814201D3002026
S315000005901CE002A800F070FB01982146021B02A88D
S315000005A000F074FB02A800F073FB019C00F07FFBD7
S315000005B0054600F071FB019920340346009522465A
S315000005C002A800F08FFB401E8041C00F1DB030BD59
S315000005D070B590B004460D464FF0FF32FFF7BAFDF6
S315000005E0464B984213D168464EA100F055F800F0EC
S315000005F08DF8294600F08BF8684600F039FC404E2D
S315000006003068C002FCD5306910F4702F02D000208B
S3150000061010B070BD40F20220FFF73EFE0DF1200043
S3150000062048A100F039F800F06DF8294600F06BF8A3
S3150000063008A800F01DFC3068C002FCD53169E6E769
S315000006402DE9F8438CB004464FF0FF35009504A819
S3150000065044A100F021F800BF4AA696E8800301AD48
S3150000066001A985E88003CDF804D004A800F0ECFBCE
S3150000067004A800F0FDFB22480168C902FCD5006908
S3150000068010F4702F18BF002003D10098A0428041BB
S31500000690C00F0DB0BDE8F083202200F0E1BA0000E3
S315000006A038B590B00446684639A1FFF7F5FF00F06B
S315000006B02DF8684600F0DCFB114D2868C002FCD519
S315000006C0286910F4702F11D140F20220FFF7E4FDE3
S315000006D00DF1200036A1FFF7DFFF00F013F808A8A0
S315000006E000F0C6FB2868C002FCD52969002011B0BD
S315000006F030BD00000100100001800100E320BBDED8
S315000007004400004C214608A800F0A8BB21466846D4
S3150000071000F0A4BBB814B6F1E0CFF3ADB7DD25C940
S31500000720FA79B7130100054300000000000000003D
S3150000073000000000000000000000000000000000B3
S315000007400000000001000643000000000000000059
S315000007500000000000000000000000000000000093
S315000007600000000000000843000000000000000038
S315000007700000000000000000000000000000000073
S31500000780000000000000000001000000040000203E
S31500000790000002430000000000000000000000000E
S315000007A00000000000000000000000000000000043
S315000007B000000343000000000000000000000000ED
S315000007C00000000000000000000000000000000023
S315000007D02BA07047002070472648006800F00100F3
S315000007E0704710B50B461118234CA14205D201469D
S315000007F0184600F035FA002010BD40F2024010BD48
S3150000080038B513181C4D40F20244AB4210D20023F7
S3150000081000E01B1D934206D21D5815F1010FF8D0BA
S3150000082040F2034032BD00F0FDF908B1002032BDB0
S31500000830204632BD70B505460C46E00401D1E904F8
S3150000084002D040F2044070BD60190B4940F20246E6
S31500000850884209D2284600F0D7F905F50055B4F5C7
S31500000860005403D00028F5D1304670BD0028FBD0D7
S31500000870002070BD1C0003400100100000207047DE
S3150000088001020300280000002800000000200000EC
S3150000089000001000B4000000040000000022026006
S315000008A001224FF0FF3302E040F82230521C8A4208
S315000008B0FAD3002070470068002818BF10F1010F16
S315000008C002D040F2045070470020704740F20250B8
S315000008D07047FEE710B504000CD04FF4803020605E
S315000008E0002161603C48027822724068E060FFF7B0
S315000008F06FFF206110BD78B504460D4604F5B87645
S31500000900A1B0B1683068802301AA00F025F80095EF
S31500000910802301AA214604F12C0000F077FCF06048
S31500000920B0688030B06022B070BD024640F201402F
S31500000930002900D1704710B5274B5C68A24203D34B
S3150000094000220A604A6010BD03EBC20082680A609A
S31500000950C0684860002010BD38B500F021F800D30B
S3150000096026E000F017F800D225E09B68C018BDE825
S315000009703840FFF736BF38B500F012F800D317E05D
S3150000098000F008F800D216E09B68C018BDE83840B1
S31500000990FFF736BF03EBC403DC681518AC4270479B
S315000009A00446084611461A460B4B5D68AC42704732
S315000009B040F2014032BD40F2024032BD06494A686B
S315000009C0904202D340F20140704701EBC000C1687B
S315000009D08068FFF72FBF0000BC0000003EB504464C
S315000009E00D461146284601F008F850B969462046DA
S315000009F0FFF79BFF28B905F5B870046001994160BF
S31500000A0000203EBD38B584B004460D466846102128
S31500000A1001F02AF8029504F5BA75A86888B96868DD
S31500000A20296888420DD269462046FFF764FFA86808
S31500000A3000281CBF41F2070188420BD140F2012079
S31500000A4008E0A07800281DBFE078002840F20320C7
S31500000A5040F2022005B030BD01201870704700003A
S31500000A60F0B585B004460D46164600278DF8007091
S31500000A700DF1040052A100F084F8CDF804D03760DF
S31500000A801C21284600F0F0FF04F5BA779DF8000017
S31500000A9080B994F8720013280CD0B86850B97868F9
S31500000AA03968884206D201A92046FFF724FFEDE700
S31500000AB005B0F0BD2078810744BF606830602178BA
S31500000AC0C80705D51C2204F10801284600F0C8F81D
S31500000AD09DF80010002905BF20780028002040F26C
S31500000AE00640E5E770B504460D46202304F58272FC
S31500000AF004F1BC0104F12C0000F04DFB04F5BA76BC
S31500000B00B06850B970683168884206D229462046D6
S31500000B10FFF7F1FEF4E7002070BDA07800281CBFA7
S31500000B20E0780028F7D0012070BD000080B5E4B061
S31500000B3000F02AF808B1002009E004208DF8110021
S31500000B404FEA0D0022A100F01CF800F021F865B074
S31500000B5000BD000010B5E4B0282213689C688C42E2
S31500000B6002D200F011F808B1002008E002208DF84A
S31500000B70110068461AA100F004F800F009F864B004
S31500000B8010BD102200F06CB84FF4C07204A925E71E
S31500000B90694604A8A6E7000080B5E4B0FFF7F4FFB5
S31500000BA008B1002009E001208DF811004FEA0D0080
S31500000BB00FA1FFF7E6FFFFF7EBFF65B000BD0000F2
S31500000BC000000000590A0000590A0000590A0000F6
S31500000BD00000000000000000000000007F0400008C
S31500000BE00000000000000000000000007F0400007C
S31500000BF00000000063040000000000000000000088
S31500000C0000F07ABF00F080BF10B50446FFF7F8FF8A
S31500000C10204600F084FF0446FFF7F4FF601E804183
S31500000C20C00F10BD70B50546144615F0030F0E46ED
S31500000C3008BF14F0030F01D0002070BD0CB90120CD
S31500000C4070BDFFF7DDFF22463146284600F087FFDC
S31500000C500446FFF7D7FF601E8041C00F70BDFEE758
S31500000C604AB1000011F8013B521E00F8013B1CBFBF
S31500000C7011F8013BF8E7704710B5044601F06AF831
S31500000C8020460021BDE8104001F094B801F094B868
S31500000C90014601F092B8FEE780B590B000F012F878
S31500000CA0B0F5A02F11B00CBF0B48002000BD80B5D9
S31500000CB090B000F007F8B0F5A02F11B00CBF0748B0
S31500000CC0002000BD0023402269464FF4807000F0EA
S31500000CD0EEB80348704700004CE30F006CE30F00CA
S31500000CE086E20F002DE9F04F5FEA00080E4697B046
S31500000CF017461D4618BF002E00D017B940F20160F6
S31500000D005DE0209C002D0FA833A116BF002CDFF854
S31500000D10B490DFF8B4902022FFF7A2FF49460FA84F
S31500000D2000F09CF820210FA800F098F832A292E873
S31500000D3008500CA9002D81E808500C9531A191E8C6
S31500000D40010C0DF1240918BF002C89E8010C099447
S31500000D5005D00CA900F03CF809A900F039F800BF4D
S31500000D602BA191E81C0006A806A980E81C00CDF876
S31500000D70188000F02DF800BF28A191E81C0003A8F8
S31500000D806D4680E81C00039627A696E8004303A953
S31500000D900FA885E80043009700F04CF8694600F07C
S31500000DA017F80FA800F064F808480168C902FCD5D6
S31500000DB0006910F4702F0CBF002040F2046017B0D9
S31500000DC0BDE8F08F1F24FC841F2400804400004CE3
S31500000DD00FA800F02FB80000000001060000000078
S31500000DE000000000000000000000000000000000FD
S31500000DF000000000000000000000000001000000EC
S31500000E00200000200000000001000000200000205B
S31500000E10000000000100000020000020000000008B
S31500000E20010000002000002000000000010000007A
S31500000E3020000020426812B941607047526850682D
S31500000E400128FBD151607047826812B981607047F2
S31500000E50526850680128FBD151607047C269042A64
S31500000E6005D200EB8202D160C169491CC16170479D
S31500000E70C169042900D9704710B54FF098410A6C32
S31500000E80D302FAD5C269121D92000A6502680A6089
S31500000E9043680B6082680A60002204E000EB82036C
S31500000EA0DC68521C0C60C3699A42F7D310BD002B54
S31500000EB02DE9F84E8BB0074614BF154D154D0E465D
S31500000EC0144603A8202100F0CFFD0FF250002F4357
S31500000ED090E8000E03976F4687E8000E009644F0F0
S31500000EE000540294694603A8FFF7AEFF03A8FFF774
S31500000EF0BFFF00F006F80CB000F47020BDE8F08EDD
S31500000F00000005480168C902FCD500697047000069
S31500000F1001000AFF010008FF4400004C0000000029
S31500000F2001000000000000002DE9F8431E4673682A
S31500000F30002B4ED00C4614F0030118BF41F20200FC
S31500000F4048D11546074600F06DFF396E001D6A1838
S31500000F50824221D300F1180399421DD28C46844562
S31500000F6005EB010800F1180238BF84469045ACEB4A
S31500000F700101ACEB000088BF904604EB0109A8EB29
S31500000F800C083844424649466830FFF769FEFF229E
S31500000F904146484600F04AFF4FF40040396E001DB6
S31500000FA0884222BF6A18031D9A4209D3411A601863
S31500000FB0026807F180010A60FF22042100F036FF73
S31500000FC021463368386E74682A46A047386E2D1855
S31500000FD03D660020BDE8F28370B54B688C689C4284
S31500000FE006D200F140021B1B14781B19412B01D3BA
S31500000FF0002070BD0D6853781478E4188B6804F0EF
S315000010003F04EE5C06558C68641C8C6013785B1C90
S3150000101013708C684B689C42ECD3012070BD90F82D
S3150000102040004A6889681018401A70472DE9F04157
S315000010300C4617461D468046FFF7F1FF08F14006AD
S31500001040A84206D221464046FFF7C6FF10B300204D
S315000010504DE000210CE0707818F800207A5473787F
S315000010603078491C5B1C03F03F03421E73703270DC
S31500001070307808B1A942EED3A0686268904238BFC2
S31500001080A9420CD22368185C7854A268491C521CE9
S31500001090A260F1E71420B07141F2020027E0A942F4
S315000010A0F8D1B26C069C29463846FFF753F8B0646F
S315000010B024B1F0682A463946FFF7E8FD079838B1AB
S315000010C0F07878B1B0682B463A46394600F0DAFE39
S315000010D0F07838B1B169F06928188842F06124BF08
S315000010E00020F07070692D18756141F20300BDE8AB
S315000010F0F081F8B584B014460026054601960096A0
S31500001100082302AAFFF792FF41F20306B0423BD141
S3150000111095F8430005F1480738B100F037F838680C
S31500001120082302AA02A900F0ADFE9DF80A209DF848
S315000011300B009DF80910120442EA00629DF80800AF
S3150000114042EA0122024322609DF80E009DF80F102C
S3150000115000F049FC9DF80D1040EA01209DF80C10A6
S315000011600843606095F8430048B9DFF824188A42BE
S315000011701CBFDFF82008824201D000F007F8606843
S315000011800021F960B860304605B0F0BD78680822E5
S3150000119002A9FFF77BBDF8B5064606F14007002019
S315000011A00D46B8717870F870387100214FF0FF3035
S315000011B014463970797103F02003B8643962796294
S315000011C0BB70FF22182106F1680000F02FFEFF22F7
S315000011D0042106F1800000F029FEFF22042106F119
S315000011E0840000F023FEBD60FC600020C04600B114
S315000011F01DB10120C04618B114B941F20B00F2BD71
S3150000120014B1F868FFF738FD0020F2BD2DE9FB4F59
S3150000121082460021002300249AB005A880E81A001F
S3150000122005921C9A269D099106920AF148060AF132
S31500001230420710E000F0C6FB0899884235D10498B1
S315000012400021F160B0600398DFF84C17884240F047
S315000012503F8102223A7107981C99884280F0DD820C
S3150000126041F20302089239790DF128081429F2D8BF
S31500001270DFE811F016001700D7022E0169036B0391
S31500001280F10250016B034B016B0316036B034B0119
S315000012902E02D0026E03A402A702DF01D002DAE713
S315000012A0C8E700F08FFB0899884240F0B782B8780B
S315000012B020B10398DFF8DC16884246E03A78D10779
S315000012C04DD5787800284AD10398DFF8CC168842A5
S315000012D01CBFDFF8C816884225D0DFF8C41688423E
S315000012E01FBFDFF8C0168842DFF8BC1688421AD046
S315000012F0DFF8B816884222D0DFF8941688426BD001
S31500001300DFF8AC16884213D0DFF8A81688420DD055
S31500001310DFF88016884215D0DFF89C1688421CBF7D
S31500001320DFF89816884200F0D38010E0102291E78B
S3150000133011203871B1680020706131618BE714218A
S3150000134039716CE00120C046002843D13EE01420EC
S31500001350387103A80020C046002860D005E3039832
S31500001360DFF8381688421CD0DFF8341688421DD0C4
S31500001370DFF83016884216D0DFF82C16884218D0CF
S31500001380DFF80C16884223D0DFF80816884216D0FC
S31500001390DFF82416884210D0DFF8201688420AD0DB
S315000013A01CE00B2256E70420387154E706213971F8
S315000013B051E70720F8E70921F9E70D20F4E70120B6
S315000013C0C046002804BF7878002803D10E21EEE736
S315000013D07878002840F07C801221E8E703A80020F6
S315000013E0C046A8B103981321706439710398002090
S315000013F0C046099038788106DAD5099800281CBFBE
S3150000140041680029D4D0504688470028D0D0ACE2A5
S3150000141078781421397110B141F20400FEE141F2ED
S315000014200800FBE198F8050098F8041041EA00214D
S315000014300291C90704D5387840F00100387002E0FF
S315000014400020C04640B90120C046002800F0EB81CC
S315000014500298C10500F1E7811420387141F20A00B3
S31500001460DCE1F9780520387141F00101F9700020BE
S31500001470F061F068082880F07482012101910091E2
S3150000148000F0B5FA08998842EAD1207840F00200C7
S31500001490207098F8020098F803109DF8282000F0B4
S315000014A0A2FA98F8011040EA012010436060B06883
S315000014B00838606298F8060098F8071098F8042033
S315000014C000F091FA98F8051040EA01201043C8D0C0
S315000014D01420387149E2012000F07DFA089988420B
S315000014E0BED198F8021098F803009DF82820090448
S315000014F041EA006198F8010041EA00211143029196
S31500001500B068052824BF0298B061F0680428E2D3C9
S315000015100A214CE70020F061082148E72B68424683
S315000015200AA9F069E047F0694044F061B068F168E3
S31500001530814280F01382A0EB0108B8F1040F05A9DF
S31500001540504608D3FFF76BFD042808D205A950467C
S31500001550FFF742FD61E1FFF762FD4045F6D3B8F1C2
S31500001560410F05A9504628BF4FF04008FFF757FD29
S31500001570404502D200F02BFA8046B8F1040F0AAAC1
S3150000158005A924BF4FEA98004FEA80080120019080
S315000015900090434600F024FA0899884240F03E81C4
S315000015A03879082804D1D5F808C0BCF1000FB5D1A8
S315000015B0C8F1040BB8F1040F06D20AA8FF22594657
S315000015C0404400F033FCD84439790A2906D12B4629
S315000015D042460AA95046FFF7A7FCA7E7052918D1F6
S315000015E099F80100820714D5E86890B1F0690528DA
S315000015F018D208EB0001072914D30AA9091D081AF5
S3150000160001680AF184021160FF22042100F00EFC39
S3150000161008E00C298AD199F80100410786D5E868C7
S31500001620002883D02B6842460AA9F069D5F80CC079
S3150000163078E73978880640F19681706C0020C046BC
S315000016400990002840F08F818FE14FF0010900F0EA
S31500001650BEF9484582D3B068F168A0EB0109B9F13B
S31500001660410F05A9504628BF4FF04009FFF7D7FCA8
S31500001670814502D300F0ABF981460120019000902C
S315000016804B4600F0ABF9089988422FD1387881068D
S315000016900DD5002C1CBFD4F808C0BCF1000FD3D068
S315000016A02B464A460AA95046E04700281ED1F06854
S315000016B0B168884280F05C8138788106C5D5002CF7
S315000016C01CBF21690029C0D0504688478146BEE725
S315000016D0002000F080F90899884207D1306CB8499B
S315000016E0884204D014223A7141F2050096E00120A6
S315000016F0C04618B91B990120C87003E01B99C87829
S3150000170000283FD0F87810F0030F1CBFEC68002CBF
S3150000171005D02B6804220AF184010420A047B06991
S3150000172000281CBF686800282CD04FF0FF310291BA
S315000017300AF180040422214602A800F0B3FB40B15E
S315000017404FF4004028B121462B686C680422001D26
S31500001750A04704220AF1680102A800F0A3FB88B1A1
S3150000176000F060FB2B686C6814220AF16C010830EB
S31500001770A04700F057FB2B686C6804220AF1680149
S31500001780001DA0471B99012088700F20387144E086
S315000017900020012101900091102300F01FF9089903
S315000017A088423BD1FFF795FA00908021019130687D
S315000017B001230BAA022100F042FBCBE00120787046
S315000017C026E0B87820BB002101910090402300F06C
S315000017D005F90899884221D17068FFF759FAFFF791
S315000017E066FA0446FFF758FA00940346706812AA90
S315000017F00AA9FFF777FA38B11B990020C8701420A0
S31500001800387141F2060009E01B990120C870B870D2
S315000018100121CCE541F2070000E000201DB0BDE843
S31500001820F08FDDF86C90F068082819D200210120AD
S315000018300191009000F0DBF808998842EED198F803
S3150000184003000006B0F1407F3FF4ECAD1420387180
S3150000185041F20900E2E7DDF86C90B368F06898425F
S315000018607CD201210191009100F0B8F808998842D4
S31500001870D4D11C220AA909F10800FFF7F1F999F859
S31500001880000040F0010089F8000009F1080001207D
S31500001890C0460028E1D11420387141F20C00BDE7A2
S315000018A01B9CF06808285CD2012101910091082355
S315000018B00CAA00F094F808998842AFD1207840F03D
S315000018C00400207098F80E0098F80F1098F80C2075
S315000018D000F089F898F80D1040EA01201043A06244
S315000018E0607841072CD5EB208DF82800A62017211B
S315000018F088F8020088F801100AF150005E2188F885
S31500001900031002680AF184010A600022F261F87885
S3150000191040F00200F870D5F80CC0BCF1000F0FD0F3
S315000019202B6804220AA90020E047F0692B68D5F845
S315000019300CC008220CA90830E047F0691030F061AD
S315000019400C203871ADE71B9C93E5DDF86C90EDE556
S31500001950DDF86C90F0681028FFF41AAFCDF86C90A3
S3150000196056E71B9477E4099CA1E641F2010055E78E
S31500001970099438788106F3D5002C1CBFE268002A4A
S3150000198004D02946504690470028F0D140E7000091
S31500001990F70A0AF7FC0404FCEB17A603EB17A65E8E
S315000019A0F40A0AF4F50909F5F60808F6F70909F73D
S315000019B0F90707F9FA0606FAFD0303FDFE0101FE23
S315000019C0E320BBDE03AA05A95046FFF792BB05A993
S315000019D05046FFF724BB0190009004230AAA05A9EC
S315000019E05046FFF723BB000440EA01607047082316
S315000019F00AAA05A95046FFF719BB10B50446B1F56A
S31500001A00C07F02D240F2052010BD4FF4C07100F035
S31500001A102BF80020607004F5827204F1BC0104F119
S31500001A202C000023BDE81040FFF7B5BB1CB50446EB
S31500001A300091214604F12C00FFF7E8FB0028C4F8CA
S31500001A407C011CBF41F2070188420BD1A07838B156
S31500001A50E07810B140F2032016BD40F2022016BD18
S31500001A6040F2012016BDFEE7002200F02BBAFEE789
S31500001A7010B5524A524C534B1B68234207D10340C0
S31500001A808B420DD0521EF6D16FF0020010BD4E48AB
S31500001A90034202D06FF0010010BD4FF0FF3010BDC1
S31500001AA0002010BD70B5494D6860E8680E464107D4
S31500001AB002D54FF0FF3070BD56F8040B141F02E03C
S31500001AC056F8040B241FA86044B108210820FFF72C
S31500001AD0CFFF0100F4D00421296070BD04202860E6
S31500001AE000212120FFF7C4FF010004D1002121209D
S31500001AF0BDE87040BCE770BD41F6713034490860FE
S31500001B000122344B1A60704710B5314841F67131E5
S31500001B10016001222F4B1A600024046010BD70B5CD
S31500001B2041F67131294C01222B4BE568E1621A60BE
S31500001B30606002262660002121202D0CFFF798FF09
S31500001B4005F00105010003D100212120FFF790FFD8
S31500001B500121204A11600DB10021E16270BD2DE91D
S31500001B60F843184F3D688946144641F67131804660
S31500001B702D0C39620122184B002005F001051A6070
S31500001B8002E0B044B144A41B7CB108F50056760BC4
S31500001B907603A6EB0806B4424946404638BF2646B9
S31500001BA03246FFF77FFF0100EBD00121094A1160A1
S31500001BB00DB100213962BDE8F283000080969800DD
S31500001BC0060001001C000340020001001000034053
S31500001BD03C0003400C2003400C1003402DE9F84F55
S31500001BE0834602281FD8140055D00B9A9846D2F87F
S31500001BF000C0BCF13F0F18D85068002818BF5FEA34
S31500001C00080A13D1BBF1000F04D0BBF1020F07D0B5
S31500001C1003D308E00FF2AC1A08E00FF2C81A05E089
S31500001C200FF2E01A02E0494836E0C2460CF03F06E1
S31500001C30A444C6F14005C2F800C0A44502D25068CB
S31500001C40401C506089460A9F8EB1AC420FD32A468B
S31500001C50B819FFF705F80120009043463A46514669
S31500001C60584600F049F9C246A944641B00263F2C99
S31500001C700BD9A509009543464A465146584600F0F9
S31500001C803BF909EB8519A4EB851424B12246494694
S31500001C90B819FEF7E5FF0020BDE8F28F2DE9F04107
S31500001CA0044686B0884616461D46200003D0022C00
S31500001CB030D02DD330E01427002100200DF1080C80
S31500001CC055F8203042429200D21D01EBC3010CF8B8
S31500001CD0021002A9114455F82020C91E52098A7023
S31500001CE055F82020520B4A7055F82020520D0A70E4
S31500001CF055F82010401C490F0128E1D92A7802F036
S31500001D003F02382A34BFC2F13802C2F1780205E038
S31500001D101C27D1E72027CFE70C4814E00195009651
S31500001D2043460B492046FFF759FF01950096434667
S31500001D30082202A92046FFF751FF0C983A46414671
S31500001D40FEF78EFF002006B0BDE8F08180AFFFFFF2
S31500001D50D400000000281CBF6C21FFF785BE704729
S31500001D600022002902604260CCBF0121002180F8D8
S31500001D706810002070473EB590F86830019000F179
S31500001D802805002B00F10803009514BF0124022446
S31500001D902046FFF723FF3EBD80B5034693F8680053
S31500001DA0009103F12802002803F1080114BF012065
S31500001DB0022003E0D4E70000DDE7EDE7FFF76EFF62
S31500001DC002BD000067452301EFCDAB8998BADCFE62
S31500001DD010325476C3D2E1F000000000000000008B
S31500001DE000000000C1059ED8367CD5073070DD178F
S31500001DF0F70E5939FFC00B316858151164F98FA7D2
S31500001E00BEFA4FA46A09E667BB67AE853C6EF372FD
S31500001E10A54FF53A510E527F9B05688C1F83D9ABAF
S31500001E205BE0CD1928200168086970474018491CF5
S31500001E301CBFB1F1010100F8012DF9D170472DE960
S31500001E40F84380460E4691461C46089D099F00F0C1
S31500001E50F7F829463A46404600F0F8F808F124001B
S31500001E600021016006750C22494608F13900FEF78B
S31500001E70F7FE08F14500210C220A017042708470B9
S31500001E80BDE8F1833EB51C460292019100F128059A
S31500001E90009500F1380300F12402214600F068F9AC
S31500001EA037BDFEE703000020521E22BF13F8010BC8
S31500001EB011F801CBB0EB0C00F6D0521C08BF10464F
S31500001EC07047FEE700B500BF1300964694461039EA
S31500001ED028BFA0E80C50FAD85FEA417C28BF0CC0A6
S31500001EE048BF40F8042BC90728BF20F8022B48BF7B
S31500001EF000F8012B00BDFEE72DE9F84791B0064634
S31500001F000D4691461F461A9C0DF124003BA1202246
S31500001F10FEF7A6FE41A393E807000DF1180A03ABEE
S31500001F208AE80700CDF818903FA090E8004600BF69
S31500001F3040A2694683E80046039592E8280181E8B5
S31500001F40280100971EB1022E33D021D336E009981E
S31500001F50A10140F40070099009A8FEF77FFF00F088
S31500001F6047F840F014000590029840F014000290E3
S31500001F7003A909A8FEF75EFF06A909A8FEF75AFFFE
S31500001F80694609A8FEF760FF0020C046C0B126E0FA
S31500001F900998A10140F44070099009A8FEF75EFF78
S31500001FA000F026F840F020000590029840F020004E
S31500001FB0DDE70998A10140F48060EDE709480EE0ED
S31500001FC009A8FEF755FF08480168C902FCD504694F
S31500001FD00020C04614F4702F0CBF0020034812B036
S31500001FE0BDE8F08780AFFFFF4400004C80ADFFFFE7
S31500001FF0089840EA84140894059870470000010385
S3150000200000000000000000000000000000000000CA
S3150000201000000000000000000000000000000000BA
S315000020200100000000000020000000000100000088
S315000020300000002000000000010000000000002059
S3150000204000281CBF2421FFF70FBD704770B505009F
S315000020500C46164618BF002C02D16FF0210070BD49
S315000020602421FFF701FD802E1CBFC02EB6F5807F10
S3150000207002D06FF01F0070BD2E60F2082146281DA9
S31500002080FEF7EEFD002070BD2DE9F8470600144668
S3150000209091B00F461D4618BF002C00D015B96FF041
S315000020A0210055E03068802818BFC02805D0B0F55B
S315000020B0807F18BF6FF01F004AD109A82021FFF7C3
S315000020C0D3FC012F0FF25C2191E88C000CBFDFF8E6
S315000020D04802DFF848020990684680E88C00301D07
S315000020E0009030680FF2482206A9C00840F0005060
S315000020F0029092E8884009A881E888400FF23C21C6
S31500002100069491E8000703AC694684E80007039546
S31500002110FEF790FE06A909A8FEF78CFE03A909A8FA
S31500002120FEF792FE316809A800F01EF8102109A8F2
S31500002130FEF794FE0020C04650B909A8FEF798FEA7
S3150000214000F009F804F47024002C0CBF002020468F
S3150000215012B0BDE8F087DFF8C8010168C902FCD5F6
S31500002160046900F01FB911A8C908FEF777BE000080
S31500002170002A2DE9F64F99B014BF146800240026F2
S31500002180002800904FF0000A1FBFDDF89480B8F1D8
S31500002190000FDDF89890B9F1000F04D01D001CBFA8
S315000021A0249F002F02D16FF0210096E00068019174
S315000021B080281CBFC028B0F5807F04D06FF01F00B8
S315000021C08BE000F08DF80198824580F07F80002C2E
S315000021D0F7D1A0EB0A005FEA101B5DD062A611A83A
S315000021E059A12022FEF73CFD96E80E0008A84FEA0A
S315000021F00B1B80E80E000099081D089000990BA89B
S315000022000A680EA9D20842F000520A9259A292E830
S31500002210484081E848400E9559A191E84C000DF1DF
S31500002220140E80E84C000B9558A090E80E0008EBC1
S315000022300A008EE80E0005904BF00051079100BF92
S3150000224055A393E8414002AA09EB0A0382E84140FC
S3150000225000F056F80EA900F056F805A900F053F85C
S3150000226000F04AF80BA900F048F800980168FFF75B
S315000022707AFF594611A8FEF7F1FD0020C046002856
S315000022802BD111A8FEF7F4FD00F040F806690020F6
S31500002290C046DA4406F47026F6B90198B0EB0A0097
S315000022A091D084B900983B462A460121FFF7ECFEFF
S315000022B0002041422944CA7B521CCA73D2B212B9C9
S315000022C0401C0F28F5D900F00BF8E6E71A9800B184
S315000022D004600EB9002000E030461BB0BDE8F08F68
S315000022E018F80A10385D641C04F00F04414009F820
S315000022F00A100AF1010A704702A911A8FEF7A4BD47
S315000023000293049108A911A8FEF794BD0448016838
S31500002310C902FCD570470000000100040001010459
S315000023204400004C00000000010000000000000016
S315000023300000000001000000100000200000000066
S31500002340010000001000002003030004000000004C
S315000023500000000000000000000000000000000077
S315000023600000000000000000000000000100000066
S315000023700000000000000000010000001000002026
S315000023800000000001000000100000200000000016
S315000023900100000000000000000000000100000035
S315000023A0000000000020704701480249086070479D
S315000023B00000000008ED00E04EF68851CEF2000164
S315000023C0086840F470000860BFF34F8FBFF36F8F4B
S315000023D04FF00070E1EE100A704700000120C04681
S315000023E0002801D0AFF30080AFF300800020AFF3E8
S315000023F00080FDF7C7FE00F000F800F001B800000D
S315000024000746384600F002F8FBE7000020210903E2
S3150000241026311820ABBEF9E780B5FFF7C5FFFDF7FB
S31500002420FBFEBDE8014000F000B8AFF30080FFF707
S31500002430C3FFFFF7D3FF000000000000FFFFFFFF10
S31500002440FFFFFFFFFFFFFFFFFFFFFFFFFFFFFFFF96
S31500002450FFFFFFFFFFFFFFFFFFFFFFFFFFFFFFFF86
S31500002460FFFFFFFFFFFFFFFFFFFFFFFFFFFFFFFF76
S31500002470FFFFFFFFFFFFFFFFFFFFFFFFFFFFFFFF66
S3150000400000100020619200004DC5000051C500005F
S315000040105D92000055C500005DC500005D92000080
S315000040205D9200005D9200005D9200005D920000CE
S3150000403061C5000094EF03005D9200005D920000F0
S315000040405D9200005D9200005D9200002D8E0000E2
S315000040505D9200005D9200005D9200005D9200009E
S315000040605D9200005D92000091D800005D92000014
S315000040705D9200005D9200005D9200005D9200007E
S315000040805D9200005D920000C35C00005D9200003E
S315000040905D920000B19500005D9200005D92000007
S315000040A05D92000035980000159800005D920000B2
S315000040B05D920000D18702005D920000A59102008A
S315000040C0499102004591020081890200A1910200F6
S315000040D04D9102006591020051910200E9750200BE
S315000040E0E59102005D9200005D9200005D92000085
S315000040F05D920000D1BA00005D9200005D92000062
S315000041005D9200005D9200005D9200005D920000ED
S315000041105D9200005D9200005D9200005D920000DD
S315000041205D9200005D9200005D9200005D920000CD
S315000041305D92000010B5054C237833B9044B13B1DA
S31500004140044800E000BF0123237010BDC8180020FA
S31500004150000000006068040008B5034B1BB103496A
S31500004160034800E000BF08BD00000000CC18002096
S3150000417060680400A3F5803A704700BF174B002B18
S3150000418008BF134B9D46FFF7F5FF00218B460F46F0
S315000041901348144A121A1BF0B2FC0E4B002B00D027
S315000041A098470D4B002B00D09847002000210400B3
S315000041B00D000D48002802D00C4800E000BF1BF09F
S315000041C033FC200029001AF089FD1BF019FC00BF02
S315000041D000000800000000000000000000100020A1
S315000041E0C8180020E4730020000000000000000052
S315000041F0014B13F810007047B0DA0300024B03EBD3
S3150000420040004078704700BFB0DA0300042804D0AD
S31500004210A0F1090358425841704701207047000039
S3150000422030B585B08DF80C000123002143F683409C
S3150000423003AA01F04FFC044678B1094D3923094A17
S31500004240094901900095012000F0F6F92B46392224
S3150000425004490548009400F0B9FA05B030BD00BF26
S315000042603EDB030034DB0300BBDB03000000000081
S3150000427010B583780446012B12D0042B04D073B9F1
S3150000428040F2BA43A3800AE080881AF085FE06A3AE
S31500004290D3E900231AF0EAFE1BF0AAF9A08010BDAC
S315000042A040F2E243EEE700BF9A9999999999E93F5E
S315000042B010B5044602F04AFD04F0F003902B1DD021
S315000042C002D8802B0FD010BD04F0E003A02BFAD14A
S315000042D0D0F82833E2074CBF43F4803343F00103A0
S315000042E0C0F82833EFE7D0F82033E4074CBF43F497
S315000042F0803343F00103C0F82033E4E7D0F82433D9
S31500004300E1074CBF43F4803343F00103C0F8243384
S31500004310D9E700002DE9F043044685B01D48DDE9E4
S315000043200C691D460E9F9046039106F091FA03997B
S315000043300022184806F004FB6871A3782046F37043
S31500004340FFF796FFA3884146F36023781148102BA8
S315000043500CBF0223A379B3706B79009300231A462E
S3150000436006F008FBB0602078787063783B70FFF742
S315000043709FFF6078FFF79CFF32462946054806F006
S3150000438051FB3A464946034805B0BDE8F04306F0FE
S315000043901EBA00BF0040005AF0B5174D93B00AACE4
S315000043A007460FCD0FC495E80F00002684E80F00DE
S315000043B00323CDE905668DF8163001230221052079
S315000043C08DF81030CDE90766099605AC8DF81160B9
S315000043D08DF812608DF8136005F08EFE04ABCDE902
S315000043E001430AAB38460093044A054907ABFFF779
S315000043F091FF304613B0F0BD8CDB03008096980029
S31500004400002D310113B501210B4802F0A3FC0A4827
S3150000441002F0A6FC084C00F4A070B0F5807F07D12E
S315000044206846054906F0CEFABDF9000002B010BD97
S31500004430204602F095FCEEE70040005A8388594377
S3150000444040F6FF73B1FBF3F14378012B0EBF08B2C0
S31500004450480000B270470000F7B5484D06466B7934
S31500004460CBB1286800F0E2FF0446A0B1444F7823A0
S31500004470444A454901900097012000F0DDF83B468B
S31500004480782240494048009400F0A0F92046FFF702
S31500004490C7FE00236B713046FFF77EFFFFF7B2FFC2
S315000044A001463046FFF7CAFF33780446102B39D150
S315000044B0840024B26B79002B30D06B79002B59D055
S315000044C0324806F0C5F90521084605F015FE304AC2
S315000044D02E48A2F10C0106F0A5FA2E4A2B48A2F1AD
S315000044E0080106F074F9286800F0BEFF06460028A9
S315000044F03BD0294F8F23234A28490190009701205A
S3150000450000F09AF83B468F221E492448009600F098
S315000045105DF93046FFF784FE00236B711B4802F0FD
S3150000452021FC27E0B379013B042BC3D801A252F842
S3150000453023F000BF49450000B54400004D4500008A
S31500004540574500005F4500004400B2E700EBD07419
S3150000455044F34F04AEE7032094FBF0F4A9E7002CE4
S31500004560B8BF033444F38F04A4E74FF480310748FF
S3150000457002F0F0FB204603B0F0BD00BF981000200B
S315000045805BDB030034DB0300CEDB03000040005A94
S31500004590AC100020D410002073DB0300ACDB03005A
S315000045A07047704770477047704700002DE9F84321
S315000045B00E4D07460E460024A8460D4B93F8009074
S315000045C0294638461BF068FB50B9C4EB44144444F2
S315000045D094F81E90B14534BF00200120BDE8F88351
S315000045E00134052C05F11F05EAD1F3E7A4230020C9
S315000045F0D81000201F220D4B10B55A7004221A70D5
S315000046000122DA70022200241A71462221465A71CA
S31500004610074840F6C6129C701BF071FA2146BDE8A9
S3150000462010409B2203481BF06ABA00BFD810002036
S31500004630DE190020A42300202DE9FF4706468946FF
S315000046400146104690469A46FFF7B0FF00287ED0F6
S31500004650FA2200214D484E4D1BF051FAFA22002154
S315000046604C481BF04CFA6878484F10F008040DD0FF
S3150000467008F022FF08F070FFF9210346464A384643
S3150000468018F06CFB38461BF011FBC4B26B78D806E9
S3150000469012D5721ED2B2032A98BF404BC4F1F9015B
S315000046A094BF53F822303E4B3E4A381918F056FB59
S315000046B036481BF0FBFAC4B26B78D9070AD5C4F1A9
S315000046C0F9014346384A381918F048FB2F481BF0C1
S315000046D0EDFAC4B26B785A070AD5C4F1F90153460C
S315000046E0324A381918F03AFB28481BF0DFFAC4B2F0
S315000046F06B789B070AD5C4F1F9014B462C4A381949
S3150000470018F02CFB21481BF0D1FAC4B26A79A242F8
S3150000471004D92021121B38191BF0F1F90DAB0C9AA4
S315000047201C48C4F1F901039318F03AFB012E11D18C
S31500004730AB78BBB91F4B204A0093164B13491F4851
S3150000474018F0F8FAFA22002110481BF0D8F904B044
S31500004750BDE8F087022E01D1EB78EAE7032E0FD1F0
S315000047602B79E6E7012B04D1124B154A0093094B2E
S31500004770E4E7022B04D10F4B124A0093054BDDE709
S31500004780044A0249104818F0D5FADBE73F24002016
S31500004790D8100020E4180020E4DB030038DC030016
S315000047A0DCDB0300E8DB0300EDDB03000B31040078
S315000047B0ECDB030000DC0300F1DB0300F7DB0300A6
S315000047C005DC03000BDC0300FBDB030008B42DE96A
S315000047D0F043FA2586B00DAC80460E4617460021FA
S315000047E02A46264854F8049B1BF089F92A460021DC
S315000047F023481BF084F908F05FFE08F0ADFECDE912
S31500004800017803460096F9211E4A1C4818F0A6FABC
S3150000481002270646234605941B4C4A46C0F1F90179
S31500004820174818F0BDFA20782A4615FB00700021BB
S3150000483020441BF064F92078324615FB00700F49BE
S3150000484020441BF035F920780D4915FB00753544D9
S31500004850C6F1FA0260191BF02BF923780133DBB29B
S315000048600A2B08BF002323706378092B9CBF0133F2
S31500004870637006B0BDE8F04301B070473F240020E6
S31500004880E418002011DC0300DE19002008230020B4
S31500004890054A32F8021B013B084413F0FF0380B2BD
S315000048A0F7D1C008704700BF4825002070B5FFF754
S315000048B0EDFF40F65333984223D8B0F5FA6F1ED970
S315000048C0114A0023114615885E1C854212D9948828
S315000048D084420FD801EB830301EB86019A788B782B
S315000048E0401B9B1A5843641B90FBF4F052FA80F06D
S315000048F0C0B270BD082E334602F10402E3D1002097
S31500004900F7E76420F5E700BF48DC030007B5FFF7CB
S31500004910BDFFADF80200FFF7C9FF8DF80400FFF7F1
S31500004920C5FF0F2811D80B38C0B2052834BF0123A4
S3150000493002238DF800306A46062300214FF42050EA
S3150000494001F0C8F803B05DF804FB0023F1E70000AE
S3150000495010B5074C04F11A00FFF77EFD237E1A1DE1
S31500004960013303F0070324F81200237610BD00BFBD
S31500004970402500207FB542F60203984204460E46C3
S3150000498057D10D78082D1AD80DB1013DEDB22F4C37
S3150000499004F11A00FFF760FD2B1D24F8130085B102
S315000049A0736842F6020103930093082320460DEB39
S315000049B003028DF8085001F097F904B070BD082580
S315000049C0E3E723896689A289991B0029B8BF494272
S315000049D088B2991A0029A6EB0202B8BF494289B2E9
S315000049E0002AB8BF5242814228BF014692B2914284
S315000049F088BF334623816381A381E3812382638257
S31500004A00A382E3822576FFF781FF94F9190001F06E
S31500004A10DDF82A460E4942F6010001F0BDF842F6DD
S31500004A200101607620460B4A04B0BDE8704001F0F3
S31500004A30BDB942F601039842BFD1FFF789FFFFF7E0
S31500004A4065FF2146034A0148EEE700BF40250020E6
S31500004A507549000080EE36004FF4887330B5114C6E
S31500004A600022638340F6B833E383022384F82030C0
S31500004A70FF23C8252376032385B00B4942F602009F
S31500004A8022778DF80830039501F086F808236076C2
S31500004A9042F60201204600950DEB030201F024F9CF
S31500004AA005B030BD402500207549000010B50B4B00
S31500004AB004461B7EFF2B0FD0FFF7F8FE0F2809D800
S31500004AC0A0F10B03DBB2052B34BF01230223002028
S31500004AD0237010BD0023FAE70720FAE740250020DF
S31500004AE0012804D1012914BF0020012070470228A3
S31500004AF001D10229F7E70020704700238366C366C9
S31500004B00A0F87030704710B50446D0E90401B1F141
S31500004B10FF3F08BFB0F1FF3F01D001F051F900217E
S31500004B20782220461AF0EBFFFF234FF0FF304FF0BC
S31500004B30FF316373C4E90401237010BD07B5032375
S31500004B408DF804008DF805108DF80620002101AAC5
S31500004B50202000F0BFFF03B05DF804FB2DE9F04311
S31500004B6090F8683004460E4687B073B9B1F5406FC9
S31500004B700BD100F118020A2000FB03F5555DD9B2EE
S31500004B801DB303222078FFF7D9FF257BEB1E012BEF
S31500004B9040D8212E21D1002304F1680212F8011B0E
S31500004BA0B9B90322234483F86820237B032B40F002
S31500004BB0D18000224FF0FF37134604F1180504F1A7
S31500004BC07109A84604F1680699E00133082BD3D190
S31500004BD0DBE701330A2BE1D1E7E7B6F5406FE4D115
S31500004BE0D4E904010023237301F0EAF8238922782B
S31500004BF0009301238DF80F200DF10F02212104A847
S31500004C0001F072F8DDE90423C4E90423237B012BB8
S31500004C100FD0CAE7002D57D1212E38D10123237397
S31500004C2004F1680313F8012B52BB0223254485F8CF
S31500004C30683000234FF0FF354FF00A08012208FBC9
S31500004C4003F704F16806513F16F8010BF15DFFF713
S31500004C5047FF48B1317800294BD108FB03410A448C
S31500004C60127E002A76D15DB20133082BE6D1691C8B
S31500004C7070D000222078E9B2FFF760FF657394E7F1
S31500004C8001350A2DCED12046FFF737FFBEE740F6A5
S31500004C9001439E4289D1D4E9040101F091F804F15F
S31500004CA0680313F8012B5AB901230322254485F81A
S31500004CB068302178227362898DF80F1000929BE785
S31500004CC001350A2DEDD1DEE7012D7FF46EAF40F6FA
S31500004CD001439E42ADD1042294F868302273002B22
S31500004CE03FF463AF6389227800938DF80F202B463B
S31500004CF082E701320A2AA7D1B6E7B14514D016F8E1
S31500004D00010B88B1297879B118F8011BFFF7E8FE85
S31500004D100028F2D031780029EFD198F8001001333D
S31500004D20DBB20029E9D157B20132082A05F10A059A
S31500004D307FF447AF012B1BD17A1C19D02078F9B22A
S31500004D400222FFF7FBFE2046FFF7D7FED4E9040157
S31500004D5001F036F8237B042B0AD194F90D104B1C75
S31500004D6006D001222078C9B2FFF7E8FEFF2363735D
S31500004D7004F1690304F1720213F8011B03292AD115
S31500004D80002304F1180204F17107164604F16805C0
S31500004D9015F8010BC0B11178B1B116F8011BFFF778
S31500004DA09FFE78B1297803290CD1317851B90222B6
S31500004DB019462078FFF7C2FE204607B0BDE8F0434B
S31500004DC0FFF79BBEBD42E3D10133DBB2082B02F1F4
S31500004DD00A02DAD1F0E79A42CED107B0BDE8F083F5
S31500004DE0A0F54063012B30B416D8164A0C68002390
S31500004DF01146D568A54208D1782202FB0313014665
S31500004E0003F1080030BCFFF7A9BE0133082B02F1FD
S31500004E107802EED130BC70472128FBD1094B002027
S31500004E201A46097893F908408C4205D1782303FB8A
S31500004E30002021210830E5E70130082803F1780336
S31500004E40F0D1E7E7682500204FF6FF7238B5002558
S31500004E50054C2280A270083460197835FFF753FE9E
S31500004E60B5F5707FF8D138BD68250020F0B521B3BF
S31500004E700B7813B3072820D87823184E03FB00635A
S31500004E80DB68D3B14B1E01F1090513F8014F022C63
S31500004E9013D80CB1AB42F8D10025C0EB0010C4000A
S31500004EA006EBC00393F82000EFB240B10135082DA0
S31500004EB003F10A03F6D10520F0BD0320FCE704F157
S31500004EC020030A2404FB05330C68F518F4504C68DB
S31500004ED06C600B892B811770EEE700BF68250020F8
S31500004EE02DE9F8430F460546E0B10168D1B100232C
S31500004EF02F4C04EB8302D268914213D01E33F02B61
S31500004F00F7D100262A4BD3F80C905FFA86F8B9F150
S31500004F10000F09D00136082E03F17803F3D10520DE
S31500004F20BDE8F8830320FBE778237343E218D160DA
S31500004F30A98870331182E988518203211175E2181C
S31500004F4044F80390C2F80490A2F8089040F6014194
S31500004F50286801F040F84FF44061286801F03BF8FA
S31500004F6094F90030013306D14A4640F60140114912
S31500004F7000F012FE207094F90130013306D10022B0
S31500004F804FF440600B4900F007FE607094F9023060
S31500004F90013305D100222120064900F0FDFDA07055
S31500004FA0782303FB06440020267287F80080B7E7C3
S31500004FB068250020E14D00000A20704700210148C5
S31500004FC000F0E3BF302900200021014800F0E2BFD5
S31500004FD03029002001460022014800F0E0BF00BF52
S31500004FE03029002001460022014800F0DDBF00BF45
S31500004FF030290020014800F0C5BF00BF302900203D
S31500005000014800F0BCBF00BF3029002070B505463E
S315000050100E4614461AB10649064800F0ADFF23466F
S3150000502032462946BDE87040024800F02ABF00BF5C
S31500005030395000003029002007B50021074800F04C
S315000050409BFF074B6A460093002108234FF4A050AC
S3150000505000F040FD03B05DF804FB00BF30290020DE
S31500005060E01000204FF47A7337B5002200933549DB
S31500005070032301F035FB0446F0B9334C3923334A98
S31500005080012033490094FFF7D7FA23463922314CE1
S315000050902E492F48FFF79AFB5E2301202B4A2E4903
S315000050A00094FFF7C9FA2C4823465E222749FFF7EA
S315000050B08DFB002003B030BD00234FF48072CDE994
S315000050C0003340F2DC510A234FF0B44000F054F8AC
S315000050D0034650B9214C41231C4A01201C49009427
S315000050E0FFF7AAFA23464122D1E701251C480360AF
S315000050F01C4B05711C60836000F0B0FE50B11A4C69
S315000051004C23124A284612490094FFF795FA234683
S315000051104C22BCE7154801F03DFA50B1144C52231D
S315000051200A4A28460A490094FFF786FA234652227D
S31500005130ADE7204601F044FC6421206901F01CFC27
S315000051400C48B7E700C00450EADC0300DCDC0300CF
S315000051508BDD03006ADD03009CDD030008DD030030
S31500005160302900203C29002025DD03007411002091
S3150000517050DD0300E010002030B5274C87B0C4E9AD
S3150000518000010A21E2600A9A23725A43B2FBF1F245
S3150000519022610B9A20465343B3FBF1F3636100F09F
S315000051A081F968B11D4D932301201D4A1D490095C3
S315000051B0FFF742FA2B46932219491A48FFF706FBD6
S315000051C01022002102A824681AF099FC0120B4F1EB
S315000051D0B44F8DF8080011D14FF48073ADF8083044
S315000051E002238DF80A0002A920468DF80E3005F03C
S315000051F034FE04F069F9084807B030BD0A4C28238C
S31500005200074A0A490094FFF717FA23462822044959
S315000052100648FFF7DBFAEEE74029002025DE03000B
S315000052201BDE03003CDF030041DE03002DDF03002D
S3150000523008B5002104F018F9054B984205D0013B4A
S3150000524098420CBF0620002008BD0720FCE700BFDF
S31500005250028000F010B50446006805F03EFE2368A3
S31500005260186900F0010010BD37B5144682B9114C1B
S3150000527040230120104A11490094FFF7DDF90F4839
S31500005280234640220C49FFF7A1FA012003B030BDA6
S31500005290137943B115682846FFF7DCFF18B10021E2
S315000052A0286805F0CEFD064B1B680BB120469847D3
S315000052B02079EBE752DE03001BDE030017DF030055
S315000052C05829002010B50446FFF7C4FF38B901215C
S315000052D0034B2068BDE81040197105F0B2BD10BD42
S315000052E00C11002010B50446FFF7B4FF60B120682A
S315000052F0002105F0A6FD0021044A08461460BDE819
S3150000530010401171FFF7B0BF10BD00BF0C11002097
S315000053102DE9F04FDFF800A187B0054699469DF8C4
S3150000532048300E46CAF800000021006890468AF808
S315000053300430BDF9447005F084FD04F08FF84FF495
S315000053407A7300242A7A5A4311098C462146E0FBD7
S3150000535006C1234660461AF0BBF923460E46A4460C
S31500005360DFF8B8E01AB2C2F1200B06FA0BFBA2F185
S31500005370200420FA02F141EA0B0126FA04F4214343
S315000053804C1E26FA02FB4BF1FF31A6457CEB0101D0
S3150000539003F10103E6D32868002183689BB243EA40
S315000053A00243836005F046FD28680125214605F085
S315000053B09AFD154B4A46049387EAE773A3EBE77316
S315000053C09BB2FF0F02934FF480314046CDE9005760
S315000053D0109BCDF814A0039504F024F9044680B17F
S315000053E00A4EC7230A4A0B49019000962846FFF742
S315000053F023F908483346C72205490094FFF7E6F922
S31500005400032007B0BDE8F08F6952000070DE03008C
S315000054101BDE030004DF03000C110020FEFF0F005B
S31500005420014B1860704700BF5829002037B504F0BB
S315000054307FF8044680B1094DEA23094A09490190DB
S3150000544000950120FFF7F8F806482B46EA220449A2
S315000054500094FFF7BBF90C2003B030BD98DE0300C3
S315000054601BDE0300F6DE030037B504F081F80446C0
S3150000547080B1094DF323094A09490190009501209D
S31500005480FFF7DAF806482B46F32204490094FFF7A3
S315000054909DF90C2003B030BDBFDE03001BDE030008
S315000054A0E7DE030030B54FF6FF751B4B85B00446AB
S315000054B0022218880DF10601ADF8065001F08BFCAA
S315000054C0BDF80630AB4201D000B96360134B04222D
S315000054D002A91888029501F07EFC029A511C06D09A
S315000054E028B9237A53430A22B3FBF2F363614FF6DA
S315000054F0FF7303930A4B0422188803A901F06BFC7F
S31500005500039A531C06D028B9237A53430A22B3FBC5
S31500005510F2F3236105B030BDC2040400C8040400E0
S31500005520CA04040007207047004870474CDF030098
S31500005530034630B50C4958B10022302404FB02F56D
S315000055404D5950B29D420ED00132042AF6D10023A5
S31500005550302202FB03F40C5958B224B10133042B58
S31500005560F7D14FF0FF3030BD602900200023064AF6
S31500005570117931B90133042B02F13002F8D101203F
S3150000558070470020704700BF60290020838A826927
S315000055900133B2F908201BB29A42838209DC002348
S315000055A0838290F82C30FF2B1CBF03F1FF3380F869
S315000055B02C30704708B5C022002104481AF09FFA23
S315000055C0034801F067FA002008BD00BF60290020EB
S315000055D06D5500002DE9F34180460E46FFF7A8FF02
S315000055E0041E64DB30236343324FFD18FB584345EA
S315000055F05DD195F9280000F0E9FA95F82C30FF2BDB
S3150000560007D1D5E9080100F0DBFB95F91C0000F095
S31500005610DDFA302303FB0473DA6812B140461969D8
S315000056209047404600F0EAFF66B924B204EB440412
S315000056303022002107EB04101AF061FA002002B0B4
S31500005640BDE8F081302606FB04764046717900F00D
S31500005650D2FF00250DF10601404600F0C9FF717921
S315000056609DF8063099420DD01422B5FBF2F302FBE9
S315000056701353DBB213B9404600F0BDFF0135EDB25E
S31500005680C82DE7D1002511F0D1FBEEB2B042CCD93E
S31500005690304611F05BFE01238DF80700002141F230
S315000056A001000DF1070200F015FA0135EBE70320C2
S315000056B0C5E700BF6029002030220B780121534343
S315000056C0014AD058FFF786BF6029002030234343A4
S315000056D02DE9F341284D00EB4007EA1892F82C60BB
S315000056E0044605EB07173EB90121E858FFF772FF9C
S315000056F0304602B0BDE8F081B2F91430002BBCBFD1
S315000057000023938230234343EE18B269B6F914108E
S315000057105268E85812F8318000220DF107018DF821
S31500005720072000F065FF9DF80730434508D138464D
S31500005730FFF72CFFB369B6F914205B6813F83280C3
S31500005740302044432B199A69B3F91410526838462D
S3150000575002EBC10256689E60FFF718FF285900F059
S3150000576059FF0A2270430123B0FBF2F24146285941
S3150000577000F046FF0646BBE760290020B0F5A05FB3
S3150000578008B509D10868FFF7D3FE002804DBBDE899
S315000057900840C0B2FFF79ABF08BD000038B50546FD
S315000057A00C46FFF7C5FE031E0DDB30204343074AB8
S315000057B00020D118D358AB4214BF00230B7903F055
S315000057C00103237038BD0320FCE700BF60290020D9
S315000057D02DE9F0474FF0000A86B005460C461746FD
S315000057E01E468DF80EA0FFF7A3FE50458DF80F005C
S315000057F003DA032006B0BDE8F08728460DF10E0156
S31500005800FFF7CCFF9DF80E309DF90F80002B61D07D
S315000058103022344B514602FB0833284693F8059054
S31500005820FFF7D8FE0028E5D1FFF77CFE8246FFF79A
S315000058307BFE00239AB25245DBD284469CF80020B8
S315000058400133A24200F10C00F4D130214FF6FF7370
S3150000585001FB08F2234CA01883820E9BC0F818C0E7
S31500005860C3600F9BA55003619DF80E30A3BB01FBDF
S3150000587008412846053100F0BBFE0028BAD1302386
S31500005880012503FB084400224FF4A0501649257158
S3150000589084F82C6000F080F9FF2EA06215D100225A
S315000058A012494FF4805000F077F92B4620774FF4D9
S315000058B0805100970DF10F0204A800F015FA002898
S315000058C098D1DDE90423C4E908239DF80F00FFF70A
S315000058D0FDFE8FE79946A7E7002380F805908360D1
S315000058E0CDE700BF602900207D570000B9560000B3
S315000058F0002307B5CDE90033FF23FFF769FF03B0A7
S315000059005DF804FB13B500241346CDE900444FF0BF
S31500005910FF32FFF75DFF02B010BD002070470000A8
S315000059202DE9F843404815F0A1F9044650B93F481F
S3150000593015F09CF9044628B93D4815F097F9044638
S31500005940002857D020274FF048083A4E3A4D736842
S31500005950002B4AD0226833689A4246D128784822DA
S3150000596008FB0050002104301AF0C9F822462B78B3
S3150000597004F1300E08FB035314339C46106851683B
S315000059800832ACE8030072456346F6D11068324629
S31500005990CCF800002B7806F1100E08FB03530433F5
S315000059A09C46106851680832ACE8030072456346AD
S315000059B0F6D107F081FD95F8009007F0CDFD2B7824
S315000059C008FB09590133DBB2082B08BF00232B70F3
S315000059D06B78C9F84800072B9CBF01336B702068B1
S315000059E004F10C01D6E901329847013F06F1100691
S315000059F0ADD127710D4815F054F940B9FF210F4874
S31500005A0008F028FBBDE8F84300212AF031BD08481C
S31500005A1015F047F90028F1D0034815F042F900289F
S31500005A20ECD0BDE8F88300BFAC2C0020282C002069
S31500005A30302D00201C300020D82D0020B42D002051
S31500005A4038B5124D124C0A21284615F0C3F82846DF
S31500005A50104D214615F0D0F80A21284615F0BAF85F
S31500005A6028460D4D214615F0C7F80A21284615F09F
S31500005A70B1F82146284615F0BFF8BDE838404FF486
S31500005A801172002105481AF03AB800BF282C0020F0
S31500005A901B590000302D0020AC2C0020D82D0020F2
S31500005AA008B5FF2308481A46084908F093FA012268
S31500005AB0074BFF2104481A7008F0CCFABDE80840ED
S31500005AC000212AF0D5BC00BFB42D002021590000CA
S31500005AD0D42D0020282B2DE9F8430E468146114689
S31500005AE01D4644D8234B00241F461A7952B9342345
S31500005AF003FB04F007EB000861B9002203FB047303
S31500005B009A6010E001340A2C03F13403EDD105202C
S31500005B10BDE8F883002DF0D00C302A46384419F041
S31500005B20C7FFC8F80850342301225C43964207EBAE
S31500005B3004031A7147F804905E7116D00E480F4B95
S31500005B40022E08BF1846414615F05BF80028DED045
S31500005B500B4B18780028DBD0FF210A4808F07AFAA8
S31500005B6000212AF085FC0020D2E70748EBE7032056
S31500005B70CEE700BF202A0020282C0020AC2C0020D5
S31500005B80D42D0020B42D0020302D002000231A46ED
S31500005B901946FFF79FBF000070B50B4C0023254642
S31500005BA0666846B905EB03141E01A851C4E9022331
S31500005BB0616058B206E00133202B04F11004EFD1E6
S31500005BC04FF0FF3070BD00BF1C3000200A4B002292
S31500005BD0194610B55C683CB1DC68844204D10020EB
S31500005BE001EB0212506010BD0132202A03F11003AE
S31500005BF0F0D10320F7E700BF1C3000201022064B2F
S31500005C0093F8281011B1D969091AD961013A03F13B
S31500005C103003F5D1704700BF2032002010226FF00C
S31500005C200040074B93F8281029B1D969012902DDF4
S31500005C308842A8BF0846013A03F13003F2D1704703
S31500005C402032002008B50146002003F0E5FE0020C2
S31500005C5000F0A0FFBDE8084000F088BF70B50868F6
S31500005C60FFF7CCFFFFF7DAFF6FF00043984201D24F
S31500005C70FFF7E8FF102500260A4C94F824305BB1A4
S31500005C80A369022B08DC22460021636954F8040C40
S31500005C9084F82460FFF71EFF013D04F13004ECD1C7
S31500005CA070BD00BF2432002008B500F09FFF8307B7
S31500005CB003D5BDE8084000F075BFBDE8084000F018
S31500005CC077BF07B500F07AFF00F05AFF00F06AFFD1
S31500005CD00423019000210DEB03020D20FFF7FAFECD
S31500005CE003B05DF804FB00002DE9F04F142B85B0DE
S31500005CF0019183461146994651D80E9B012B4ED9E8
S31500005D00DFF8A0A04FF0300EDAE900020446904614
S31500005D10DFF894C010F1100542F10003AC4278EBB5
S31500005D20030301D3052033E004F00F070EFB07F74A
S31500005D30631C48F100050CEB0706009506F12805E3
S31500005D40029596F8285035BB0393019B381D604495
S31500005D504A46336019F0ACFEC6F8189000F010FF02
S31500005D60039BC6E90848CAF80030009BCAF804300D
S31500005D70FFF79AFFFFF742FF0E9B029AF36101239A
S31500005D801370FFF74BFFFFF75DFF2846CBE900488E
S31500005D9005B0BDE8F08F1C46DDF80080BAE70320A9
S31500005DA0F6E700BF2035002020320020002307B58B
S31500005DB000921A46FFF798FF03B05DF804FB000057
S31500005DC0302210B50F4C00F00F0302FB0344D4E958
S31500005DD008238B4208BF824212D100F0D1FE002375
S31500005DE084F82830FFF760FFFFF708FFFFF716FF7C
S31500005DF06FF00043984203D2BDE81040FFF722BF80
S31500005E0010BD00BF203200201FB50821132004F06A
S31500005E1073F90F4A01AB07CA83E80700184603F077
S31500005E20C7FD03F005FE00F0CFFE00231946094A20
S31500005E300133102B82F8281002F13002F8D100222B
S31500005E400D20054905B05DF804EBFFF7A5BE00BFC0
S31500005E50A0DF0300203200205D5C000038B5044658
S31500005E6000252279EBB29A4201D8002008E0A26808
S31500005E70013552F823000430FFF7DAF90028F0D094
S31500005E8038BD2DE9F04F1E46836804461868002386
S31500005E900F4689B00DF11F0115468DF81F3000F031
S31500005EA0CDFB9DF81F00874201D1002061E02368E9
S31500005EB03A1A4CBF5B691B6923B39D4238BF1D4626
S31500005EC017B2002A38D04FF47A714D43002AB8BF72
S31500005ED05242B5FBF2F500F1010801384FEA4808D5
S31500005EE0400038EA270828BF80464FF0000923798A
S31500005EF05FFA89FA534521D8002ED6D02068FFF7DD
S31500005F00E1F9D2E7002DDBD12379EEB2B342CCD949
S31500005F10A368394653F8260000F085FB2379012B48
S31500005F2008D9A3684FF4007253F82630D3E9040168
S31500005F3019F0BEFD0135E7E71546CCE7A368D4F8AE
S31500005F4000B053F82A0009F101090279059200F020
S31500005F5063FBCDE90176A168034651F82A1058463D
S31500005F600969059A414400912946FFF7D1F90028AD
S31500005F70BDD009B0BDE8F08F0846FFF751BA0068FA
S31500005F80FFF768B90068FFF7ADB9836853F82100D9
S31500005F9000F06ABB836853F8210000F083BC836875
S31500005FA053F8220000F04ABB036837B515461A6954
S31500005FB004460AB95B6933B10123002220460191E8
S31500005FC0FFF75FFF0199A36853F8250003B0BDE80A
S31500005FD0304000F028BB00F0E5B900F0C7BA00F089
S31500005FE0CABA00F08FB900F07BB900F019B900F019
S31500005FF0E6B900F0E7B900002DE9F04F022087B0BE
S31500006000FEF7F6F807460220FEF7F8F84FF001080B
S31500006010344C4FF03009D4F8243408FA00F823EA57
S3150000602008030146C4F824340422002306463846F1
S3150000603004F032FB42F2100309FB07442A4D44F8F0
S3150000604003804FF4FA7007F055FF0024AB46297918
S31500006050E3B2022940D018460393FEF7CFF8039B1C
S3150000606082461846FEF7C4F8AB791422A3B36B7ABE
S3150000607093BB19FB002303F1A04303F570331868A3
S3150000608020FA0AF000F00100687028BB297919BBD4
S3150000609001230BEB041423714FF4406004236A447C
S315000060A00594FFF717FD012231463846002304F018
S315000060B0F3FA0E4B3046C3F820840D4903F06CFB0F
S315000060C001233246CDE9003331460023384604F039
S315000060D09FFA07B0BDE8F08F01340C2C05F11005CE
S315000060E0B5D1E0E700C003502835002000E003509A
S315000060F0F56000002DE9F04F022087B0FEF778F832
S3150000610080460220FEF77AF8324D07460220D5F87F
S315000061102444FEF773F801232F4E03FA00F024EA15
S315000061200004C5F82444B14600254FF0300A4FF06C
S31500006130140B3379EAB2022B46D010460392FEF7CF
S3150000614057F8039A04461046FEF758F8B379002B21
S315000061503AD0717A002937D11AFB04B303F1A04370
S3150000616003F570331B68C34003F0010373705BB320
S315000061703379012B28D109EB0515042340F601409C
S31500006180297105AA0595FFF7A5FC0220FEF736F84A
S3150000619001240025114B04FA00F0C3F8200410492D
S315000061A0384603F0F9FA23463A4639464046019402
S315000061B0009504F02DFA2B4622463946404607B094
S315000061C0BDE8F04F04F068BA01350C2D06F1100653
S315000061D0AFD1DAE700C003502835002000E00350B5
S315000061E0F95F000028B1052814BF00204FF4000015
S315000061F070474FF48000704770B5084D044606019D
S3150000620005EB00108271C37000220223AC55817029
S3150000621042708380C2710281827270BD283500206F
S315000062202DE9F74398460646FFF7E6FF0446304653
S315000062308946FDF7E3FF05463046FDF7D9FF84F8AA
S3150000624003800746B8F1000F01D1012363710223D1
S31500006250204A2946384612F809202371637904F04A
S315000062601BFA22461C49284603F0A8FA4FF00108FB
S31500006270E0600246434638462946CDE9008804F0E8
S31500006280C7F93046FDF7C2FFE8B13022142328468D
S3150000629084F80A80FFF7A6FF12FB073303F1A04339
S315000062A003F570331B68064623FA05F505EA08056B
S315000062B0657065B9014604F031FA084BD3F8240439
S315000062C00643C3F82464204603B0BDE8F0830021EA
S315000062D0F1E700BFACDF03006364000000C00350B9
S315000062E001220221064BC3F84024C3F84014C3F828
S315000062F044240422C3F840240822C3F840247047EB
S3150000630000E00350012273B5002311460220FFF777
S3150000631073FF05460078FDF76BFF06462878FDF704
S315000063206DFF6B79044601460122304604F0B4F94C
S31500006330002501232246CDE900532146304604F0CC
S3150000634067F94FF0FF320A4BC3F820244FF0007272
S31500006350084BC3F880211A604FF08062C3F8802191
S315000063601A600549204603F017FA284602B070BDA8
S3150000637000E0035000E100E0F95F000008B503F01B
S31500006380F3F90022064940F60340FFF705FCBDE895
S315000063900840002240F602400149FFF7FDBB00BF5E
S315000063A0D364000040F60143994202D10123C37130
S315000063B07047B1F5406F04BF012303727047007840
S315000063C0FDF716BF0078FDF719BF8078013802285F
S315000063D08CBF00200120704738B50446FFF7F5FF53
S315000063E0034620787BB1FDF703FF05462078FDF7CD
S315000063F005FF0146284600F0FFFB431E5842584160
S315000064006070607838BDFDF7F3FE05462078FDF72D
S31500006410F5FE0146284600F0FCFBEEE713B5044600
S315000064200190FFF7D9FF012810D1E37963B1E37832
S3150000643040F60140012B08BF4FF4406004230021C1
S315000064400DEB0302FFF746FB02B010BD237A002BCB
S31500006450FAD0E37840F60140012B18BF4FF44060B4
S31500006460ECE773B58B790C465BB3497A39B90423EB
S3150000647040F603400DEB03020194FFF72BFBA37AD2
S31500006480012B24D12078FDF7B9FE05462078FDF7CB
S31500006490AFFE1426034630222846FFF7A3FE12FB62
S315000064A0036303F1A04303F570331B680146EB4019
S315000064B003F00103637043B902B0BDE8704004F015
S315000064C02DB90846FFF7AAFFD9E70021F4E702B085
S315000064D070BD10B50C6840F60241884286B005D002
S315000064E040F60343984209D006B010BD002320466B
S315000064F0637206B0BDE81040FFF790BF142303AAED
S31500006500009304A804230394FFF7EEFB0028EBD1C5
S3150000651001236372E8E7000037B504460078FDF70B
S3150000652067FE05462078FDF769FEA3780E4A014608
S31500006530D25C931E012B01D90C2A01D10123637170
S3150000654028466379019104F0A7F82046FFF73DFF3E
S31500006550019928B1284600F04FFB607003B030BDAA
S31500006560284600F056FBF8E7ACDF0300C078431E70
S315000065705842584170470B2838B54FF0000507D8E8
S31500006580FFF73AFE0446FFF7C7FF2571204638BDE0
S315000065902C46FBE7036813B5FF2B044605D1002004
S315000065A004F0E0FC00280CDB2060D4E9011220682E
S315000065B004F016FD20680021A28904F016FD0020D3
S315000065C00EE0084C16230120074A08490094FEF7FE
S315000065D033F80648234616220349FEF7F7F8052046
S315000065E002B010BD28E003001EE0030048E00300EF
S315000065F0C36808461847836808461847436918471A
S3150000660010B40446246A084611461A4623465DF825
S31500006610044B1847836A184770230279006803EB16
S3150000662042131844704710B502690368047932F8BA
S315000066301120196B03EB44131A6710BD38B50023FC
S315000066400B7005460C460179006800F0AFFB237815
S315000066502A6932F81320824201D2FF2B01D1002091
S3150000666038BD01332370F2E713B5036817490246B4
S315000066708B4222D001F580418B4220D001F580412A
S315000066808B421ED0124883420CBF03204FF0FF30CE
S31500006690117900F0CBFAB0B10E4CA02301200E4ABE
S315000066A00E490094FDF7C8FF2346A0220A490B486D
S315000066B002B0BDE81040FEF789B80020E8E70120E7
S315000066C0E6E70220E4E702B010BD00BF00800450F8
S315000066D000400550CBE00300C1E003004FE103009A
S315000066E02DE9F046644F8BB03D788DB1634C6A233B
S315000066F00120634A63490094FDF79EFF61482346E3
S315000067006A225F49FEF762F800200BB0BDE8F0860A
S315000067105D4CA381BDF848302160E3815B4BA060EE
S3150000672023615B4B294620462271636100F0F6F82F
S3150000673068B1584D7C230120514A52490095FDF716
S315000067407BFF2B467C224E494E48FEF73FF806203B
S3150000675003F052FC032803D00321062003F0CCFCEF
S31500006760206800F005FB0D22002102A819F0C7F9E8
S315000067700323A0688DF80E30FFF72FFCB0FA80F0E7
S31500006780400921798DF8120002AA206804F084FDE0
S315000067900E22002106A819F0B2F940F2011306A94B
S315000067A02068ADF8183040F2DC5904F028FD256861
S315000067B002F0EEFDB0FBF9F6D5F804A002F0E8FD14
S315000067C0013E360C06FB0999B0FBF9F9284604F0A0
S315000067D00FFD012205F500531A63CAF3110343EABC
S315000067E0864605F580536E6009F1FF391A632B6BF7
S315000067F0A068C5F81C90EA60FFF7EFFB38B923687C
S315000068002179DA69186B013203EB41131A671E48C6
S31500006810FFF72AFF2068204B984226D003F58043D5
S31500006820984224D003F58043984222D003F5804352
S3150000683098420CBF03204FF0FF30A268217900F088
S3150000684045FA68B1154C5F2301200D4A144900949E
S31500006850FDF7F2FE23465F2209491148FDF7B6FF10
S315000068603B78094801333B704FE70020E5E70120FC
S31500006870E3E70220E1E700BFE8390020E3E0030098
S31500006880C1E003006BE10300EC390020E83500208D
S31500006890E837002025DE03000080045008E10300ED
S315000068A05EE1030013B50368174902468B4222D006
S315000068B001F580418B4220D001F580418B421ED0EC
S315000068C0124883420CBF03204FF0FF30117900F0CD
S315000068D0D5F9B0B10E4CA92301200E4A0E490094F9
S315000068E0FDF7AAFE2346A9220A490B4802B0BDE8D5
S315000068F01040FDF76BBF0020E8E70120E6E7022025
S31500006900E4E702B010BD00BF00800450004005500F
S3150000691025E10300C1E003003FE10300032937B589
S31500006920044622D84FF6FF75114B0222188801A99A
S31500006930ADF8045000F04FFAA8B9BDF804300222B1
S31500006940AB424FF6FF7518BFA3810A4B0DF1060146
S315000069501888ADF8065000F03EFA20B9BDF80630AA
S31500006960AB4200D0E38103B030BD0620FBE700BF99
S31500006970C6040400C4040400002302464FF0640C5D
S31500006980F0B50E4D038000F5FE76AF1E35F8023BDE
S3150000699064291CBF4B43B3FBFCF37C8818BF9BB236
S315000069A0A34238BF234622F8023FB242EED1B0F8E6
S315000069B0FC31A0F8FE310020F0BD00BF063A0020F1
S315000069C010B504462DED028B006800F002FADFEDEB
S315000069D02E7A9FED2E7AA289E38900FB0222B3F577
S315000069E07A7F98BFB0EE677A07EE902AF8EE677A5C
S315000069F000FB0333C7EE878A07EE903AF8EE677A14
S31500006A0087EE878AC8EE287A17EE900A18F0D6FA2B
S31500006A1041EC100B19F0B4F919A3D3E9002351EC9A
S31500006A20100B18F04DFC41EC100B19F055F951EC18
S31500006A30100B18F0FDFD0023BCEEE87A144A07EEB1
S31500006A40900A138017EE103A5380022368EEA78A45
S31500006A50BCEEE87A17EE101A22F813100133FE2B5B
S31500006A60F4D1BCEEC88A18EE103ABDEC028B9BB28C
S31500006A70A2F8FC31A2F8FE3110BD00BFAFF30080D2
S31500006A800000000000A06F4000007A4400401C4651
S31500006A90043A0020074910B500220C4651F8043B81
S31500006AA01BB944F82200184603E001320A2AF5D140
S31500006AB0052010BD043C002070B5054600240120C9
S31500006AC0064E56F8042B22B108B12846904700F02E
S31500006AD0010001340A2CF4D170BD00BF043C002033
S31500006AE093281BD8852805D8D8B101280CBF0620C5
S31500006AF00C20704786380D2810D8DFE800F009070B
S31500006B000B0F0F0F0F110F0F0F0F0F0D06207047F2
S31500006B10082070470A207047022070470C207047F3
S31500006B200920704713B59DF81040009411F044F900
S31500006B3002B0BDE81040FFF7D3BF13B59DF8104073
S31500006B40CDE9003441F27C1311F046F902B0BDE8FC
S31500006B501040FFF7C5BF0000034B5A6812B19A6A8E
S31500006B60002AFAD1704700BF0040065008B5FFF76B
S31500006B70F3FF0122014BDA6008BD00BF004006505A
S31500006B8008B5FFF7E9FF0222014BDA6008BD00BF36
S31500006B900040065008B5FFF7DFFF014B186208BD3D
S31500006BA000400650014B186B704700BF004006506E
S31500006BB0014B186A704700BF004006500222014B85
S31500006BC05A617047006006500222064B03F50051D9
S31500006BD003F580534A619A614FF48022024B1A6092
S31500006BE0704700BF0040065000E100E0014B5869C5
S31500006BF0704700BF004006503022142302FB0030CD
S31500006C0000F1A04000F570300068C84000F00100B7
S31500006C1070473022102302FB003000F1A04000F53F
S31500006C2070300068C84000F001007047431C13B57F
S31500006C3010D10F4C2E2301200E4A0F490094FDF768
S31500006C40FBFC0D4823462E220A49FDF7BFFD062010
S31500006C5002B010BD012303FA01F141F22C534001A9
S31500006C6000F1A04000F57030C1500020F0E700BFF1
S31500006C7000E20300EDE1030067E20300431C13B5E5
S31500006C8010D10F4C372301200E4A0F490094FDF70F
S31500006C90D3FC0D48234637220A49FDF797FD062007
S31500006CA002B010BD012303FA01F142F22C53400158
S31500006CB000F1A04000F57030C1500020F0E700BFA1
S31500006CC000E20300EDE1030044E20300431C73B558
S31500006CD0164610D1184C3F23184A01201849009433
S31500006CE0FDF7AAFC23463F2215481449FDF76EFD21
S31500006CF0062002B070BD71B101290CD002290AD05C
S31500006D00104C46230D4A01200D490094FDF794FCD2
S31500006D1023464622E8E70131890001EB401430465C
S31500006D20FFF765F905463046FFF763F9064B45EA76
S31500006D300040E0500020DCE700E20300EDE1030044
S31500006D4020E203000FE203002CC503500048704701
S31500006D5000C00350014BD960704700BF0040005A85
S31500006D6040697047012300F50050436070470000FA
S31500006D700C4B984211D00AD8A3F5004398420ED086
S31500006D8003F5804398420CBF1E2000207047064B37
S31500006D9098420CBF2020002070471F2070471D20FE
S31500006DA0704700BF0000055000400550012301F167
S31500006DB00802934002691A42FCD1CB1C5B01C358FE
S31500006DC0490103F003030844012B0CBF406F806E9A
S31500006DD07047C069704708B513460A467F2106F01A
S31500006DE035FF002814BF0620002008BD08B507F0AF
S31500006DF005F8002814BF0620002008BD2DE9F04F35
S31500006E008BB09DF858900646B9F1200FCB460F4639
S31500006E1090464FF0000528BF4FF0200BDFF868A022
S31500006E20BAF80020ABB29A4202D80BB0BDE8F08F98
S31500006E30144CABB214F83320B24221D104EBC30494
S31500006E406388BB421CD1A388434519D15A4617997A
S31500006E500DF107008DF80060ADF80270ADF8048002
S31500006E608DF8069018F024FEA37900219A1E53424D
S31500006E705341A3716A4628234FF40050FEF72AFEB9
S31500006E800135CDE72C3C0020F43C0020F0B5002471
S31500006E901A4B8BB01F889DF84850194BA6B2B742C3
S31500006EA001D8002024E01E78864223D15E888E42D7
S31500006EB020D19E8896421DD19E79012E1AD1202D71
S31500006EC08DF80000ADF80210ADF8042013992A469B
S31500006ED00DF1070028BF20228DF8065018F0E8FDB6
S31500006EE028236A46002142F20300FEF7F3FD9320B1
S31500006EF00BB0F0BD01340833D0E700BFF43C0020EE
S31500006F002C3C002000212DE9F04FB84BA7B01C22E5
S31500006F1016A81E78159118F0F2FD1DAA9046B44BDE
S31500006F2003F12005144618685968083303C4AB42B8
S31500006F302246F7D11B7820222370AE4B15A918885C
S31500006F40FFF749FFAC4815F0F5FEC14620250024A1
S31500006F50DFF8ECA215AF17F8011BFF2906D00134A4
S31500006F60504689F80110E4B215F0E4FE013D15F033
S31500006F70FF0509F10109EED1A04815F0DBFEDCB1F1
S31500006F804223052200932946434630468DF8744035
S31500006F90FFF7C8FD044678B1994F2F23994A9A49BD
S31500006FA0019000970120FDF747FB3B462F229549AC
S31500006FB095480094FDF70AFC00230BAA9146CDE9FB
S31500006FC00333CDE90533914B03F1100714461868D6
S31500006FD05968083303C4BB422246F7D11B781022F6
S31500006FE023708B4B03A91888FFF7F5FE894815F027
S31500006FF0A1FECA461024DFF848B20DF10C0818F8B5
S31500007000011BFF2906D0013558468AF80110EDB25A
S3150000701015F090FE013C14F0FF040AF1010AEED1CE
S31500007020764815F087FEEDB14223062200932146ED
S315000070304B4630468DF82C50FFF774FD054688B157
S31500007040DFF8008249236F4A6F490190CDF800802E
S315000070500120FDF7F1FA434649226A496A4800953C
S31500007060FDF7B4FBFF238DF809306B4B012218881E
S315000070700DF10901FFF7AFFE9DF80910674815F0FD
S3150000708059FE9DF80930FF2B1CD0202303220093C4
