S00B0000313130652E733337F2
S315000040000010002061920000BDC50000C1C500007F
S315000040105D920000C5C50000CDC500005D920000A0
S315000040205D9200005D9200005D9200005D920000CE
S31500004030D1C5000024F303005D9200005D920000EC
S315000040405D9200005D9200005D9200002D8E0000E2
S315000040505D9200005D9200005D9200005D9200009E
S315000040605D9200005D92000001D900005D920000A3
S315000040705D9200005D9200005D9200005D9200007E
S315000040805D9200005D920000C35C00005D9200003E
S315000040905D920000B19500005D9200005D92000007
S315000040A05D92000035980000159800005D920000B2
S315000040B05D920000618B02005D9200003595020062
S315000040C0D9940200D5940200118D020031950200A8
S315000040D0DD940200F5940200E19402007979020071
S315000040E0759502005D9200005D9200005D920000F1
S315000040F05D920000D1BA00005D9200005D92000062
S315000041005D9200005D9200005D9200005D920000ED
S315000041105D9200005D9200005D9200005D920000DD
S315000041205D9200005D9200005D9200005D920000CD
S315000041305D92000010B5054C237833B9044B13B1DA
S31500004140044800E000BF0123237010BDA82400200E
S3150000415000000000006C040008B5034B1BB10349C6
S31500004160034800E000BF08BD00000000AC240020AA
S31500004170006C0400A3F5803A704700BF174B002B74
S3150000418008BF134B9D46FFF7F5FF00218B460F46F0
S315000041901348144A121A1BF072FE0E4B002B00D065
S315000041A098470D4B002B00D09847002000210400B3
S315000041B00D000D48002802D00C4800E000BF1BF09F
S315000041C0F3FD200029001AF049FF1BF0D9FD00BFBE
S315000041D000000800000000000000000000100020A1
S315000041E0D4180020C47F002000000000000000005A
S315000041F0014B13F81000704740DE0300024B03EB3F
S3150000420040004078704700BF40DE0300042804D019
S31500004210A0F1090358425841704701207047000039
S3150000422030B585B08DF80C000123002143F683409C
S3150000423003AA01F04FFC044678B1094D3923094A17
S31500004240094901900095012000F0F6F92B46392224
S3150000425004490548009400F0B9FA05B030BD00BF26
S31500004260CEDE0300C4DE03004BDF030000000000C7
S3150000427010B583780446012B12D0042B04D073B9F1
S3150000428040F2BA43A3800AE080881BF045F806A3F3
S31500004290D3E900231BF0AAF81BF06AFBA08010BD2F
S315000042A040F2E243EEE700BF9A9999999999E93F5E
S315000042B010B5044602F04AFD04F0F003902B1DD021
S315000042C002D8802B0FD010BD04F0E003A02BFAD14A
S315000042D0D0F82833E2074CBF43F4803343F00103A0
S315000042E0C0F82833EFE7D0F82033E4074CBF43F497
S315000042F0803343F00103C0F82033E4E7D0F82433D9
S31500004300E1074CBF43F4803343F00103C0F8243384
S31500004310D9E700002DE9F043044685B01D48DDE9E4
S315000043200C691D460E9F9046039106F091FA03997B
S315000043300022184806F004FB6871A3782046F37043
S31500004340FFF796FFA3884146F36023781148102BA8
S315000043500CBF0223A379B3706B79009300231A462E
S3150000436006F008FBB0602078787063783B70FFF742
S315000043709FFF6078FFF79CFF32462946054806F006
S3150000438051FB3A464946034805B0BDE8F04306F0FE
S315000043901EBA00BF0040005AF0B5174D93B00AACE4
S315000043A007460FCD0FC495E80F00002684E80F00DE
S315000043B00323CDE905668DF8163001230221052079
S315000043C08DF81030CDE90766099605AC8DF81160B9
S315000043D08DF812608DF8136005F08EFE04ABCDE902
S315000043E001430AAB38460093044A054907ABFFF779
S315000043F091FF304613B0F0BD1CDF03008096980095
S31500004400002D310113B501210B4802F0A3FC0A4827
S3150000441002F0A6FC084C00F4A070B0F5807F07D12E
S315000044206846054906F0CEFABDF9000002B010BD97
S31500004430204602F095FCEEE70040005A8388594377
S3150000444040F6FF73B1FBF3F14378012B0EBF08B2C0
S31500004450480000B270470000F7B5484D06466B7934
S31500004460CBB1286800F0E2FF0446A0B1444F7823A0
S31500004470444A454901900097012000F0DDF83B468B
S31500004480782240494048009400F0A0F92046FFF702
S31500004490C7FE00236B713046FFF77EFFFFF7B2FFC2
S315000044A001463046FFF7CAFF33780446102B39D150
S315000044B0840024B26B79002B30D06B79002B59D055
S315000044C0324806F0C5F90521084605F015FE304AC2
S315000044D02E48A2F10C0106F0A5FA2E4A2B48A2F1AD
S315000044E0080106F074F9286800F0BEFF06460028A9
S315000044F03BD0294F8F23234A28490190009701205A
S3150000450000F09AF83B468F221E492448009600F098
S315000045105DF93046FFF784FE00236B711B4802F0FD
S3150000452021FC27E0B379013B042BC3D801A252F842
S3150000453023F000BF49450000B54400004D4500008A
S31500004540574500005F4500004400B2E700EBD07419
S3150000455044F34F04AEE7032094FBF0F4A9E7002CE4
S31500004560B8BF033444F38F04A4E74FF480310748FF
S3150000457002F0F0FB204603B0F0BD00BF981000200B
S31500004580EBDE0300C4DE03005EDF03000040005ADA
S31500004590AC100020D410002003DF03003CDF030032
S315000045A07047704770477047704700002DE9F84321
S315000045B00E4D07460E460024A8460D4B93F8009074
S315000045C0294638461BF028FD50B9C4EB4414444430
S315000045D094F81E90B14534BF00200120BDE8F88351
S315000045E00134052C05F11F05EAD1F3E7842F0020DD
S315000045F0D81000201F220D4B10B55A7004221A70D5
S315000046000122DA70022200241A71462221465A71CA
S31500004610074840F6C6129C701BF031FC2146BDE8E7
S3150000462010409B2203481BF02ABC00BFD810002074
S31500004630BE250020842F00202DE9FF470646894627
S315000046400146104690469A46FFF7B0FF00287ED0F6
S31500004650FA2200214D484E4D1BF011FCFA22002192
S315000046604C481BF00CFC6878484F10F008040DD03D
S3150000467008F05AFF08F0A8FFF9210346464A3846D3
S3150000468018F0A4FB38461BF0D9FCC4B26B78D806E8
S3150000469012D5721ED2B2032A98BF404BC4F1F9015B
S315000046A094BF53F822303E4B3E4A381918F08EFB21
S315000046B036481BF0C3FCC4B26B78D9070AD5C4F1DF
S315000046C0F9014346384A381918F080FB2F481BF089
S315000046D0B5FCC4B26B785A070AD5C4F1F901534642
S315000046E0324A381918F072FB28481BF0A7FCC4B2EE
S315000046F06B789B070AD5C4F1F9014B462C4A381949
S3150000470018F064FB21481BF099FCC4B26A79A242F6
S3150000471004D92021121B38191BF0B1FB0DAB0C9AE2
S315000047201C48C4F1F901039318F072FB012E11D154
S31500004730AB78BBB91F4B204A0093164B13491F4851
S3150000474018F030FBFA22002110481BF098FB04B049
S31500004750BDE8F087022E01D1EB78EAE7032E0FD1F0
S315000047602B79E6E7012B04D1124B154A0093094B2E
S31500004770E4E7022B04D10F4B124A0093054BDDE709
S31500004780044A0249104818F00DFBDBE71F300020F1
S31500004790D8100020C424002074DF0300C8DF030003
S315000047A06CDF030078DF03007DDF03009B34040029
S315000047B07CDF030090DF030081DF030087DF030057
S315000047C095DF03009BDF03008BDF030008B42DE9B0
S315000047D0F043FA2586B00DAC80460E4617460021FA
S315000047E02A46264854F8049B1BF049FB2A4600211A
S315000047F023481BF044FB08F097FE08F0E5FECDE9E0
S31500004800017803460096F9211E4A1C4818F0DEFA84
S3150000481002270646234605941B4C4A46C0F1F90179
S31500004820174818F0F5FA20782A4615FB0070002183
S3150000483020441BF024FB2078324615FB00700F49FC
S3150000484020441BF0F5FA20780D4915FB0075354418
S31500004850C6F1FA0260191BF0EBFA23780133DBB2DA
S315000048600A2B08BF002323706378092B9CBF0133F2
S31500004870637006B0BDE8F04301B070471F300020FA
S31500004880C4240020A1DF0300BE2500200823002049
S31500004890054A32F8021B013B084413F0FF0380B2BD
S315000048A0F7D1C008704700BF2831002070B5FFF768
S315000048B0EDFF40F65333984223D8B0F5FA6F1ED970
S315000048C0114A0023114615885E1C854212D9948828
S315000048D084420FD801EB830301EB86019A788B782B
S315000048E0401B9B1A5843641B90FBF4F052FA80F06D
S315000048F0C0B270BD082E334602F10402E3D1002097
S31500004900F7E76420F5E700BFD8DF030007B5FFF738
S31500004910BDFFADF80200FFF7C9FF8DF80400FFF7F1
S31500004920C5FF0F2811D80B38C0B2052834BF0123A4
S3150000493002238DF800306A46062300214FF42050EA
S3150000494001F0C8F803B05DF804FB0023F1E70000AE
S3150000495010B5074C04F11A00FFF77EFD237E1A1DE1
S31500004960013303F0070324F81200237610BD00BFBD
S31500004970203100207FB542F60203984204460E46D7
S3150000498057D10D78082D1AD80DB1013DEDB22F4C37
S3150000499004F11A00FFF760FD2B1D24F8130085B102
S315000049A0736842F6020103930093082320460DEB39
S315000049B003028DF8085001F097F904B070BD082580
S315000049C0E3E723896689A289991B0029B8BF494272
S315000049D088B2991A0029A6EB0202B8BF494289B2E9
S315000049E0002AB8BF5242814228BF014692B2914284
S315000049F088BF334623816381A381E3812382638257
S31500004A00A382E3822576FFF781FF94F9190001F06E
S31500004A10DDF82A460E4942F6010001F0BDF842F6DD
S31500004A200101607620460B4A04B0BDE8704001F0F3
S31500004A30BDB942F601039842BFD1FFF789FFFFF7E0
S31500004A4065FF2146034A0148EEE700BF20310020FA
S31500004A507549000080EE36004FF4887330B5114C6E
S31500004A600022638340F6B833E383022384F82030C0
S31500004A70FF23C8252376032385B00B4942F602009F
S31500004A8022778DF80830039501F086F808236076C2
S31500004A9042F60201204600950DEB030201F024F9CF
S31500004AA005B030BD203100207549000010B50B4B14
S31500004AB004461B7EFF2B0FD0FFF7F8FE0F2809D800
S31500004AC0A0F10B03DBB2052B34BF01230223002028
S31500004AD0237010BD0023FAE70720FAE720310020F3
S31500004AE0012804D1012914BF0020012070470228A3
S31500004AF001D10229F7E70020704700238366C366C9
S31500004B00A0F87030704710B50446D0E90401B1F141
S31500004B10FF3F08BFB0F1FF3F01D001F051F900217E
S31500004B20782220461BF0ABF9FF234FF0FF304FF001
S31500004B30FF316373C4E90401237010BD07B5032375
S31500004B408DF804008DF805108DF80620002101AAC5
S31500004B50202000F0BFFF03B05DF804FB2DE9F04311
S31500004B6090F8683004460E4687B073B9B1F5406FC9
S31500004B700BD100F118020A2000FB03F5555DD9B2EE
S31500004B801DB303222078FFF7D9FF257BEB1E012BEF
S31500004B9040D8212E21D1002304F1680212F8011B0E
S31500004BA0B9B90322234483F86820237B032B40F002
S31500004BB0D18000224FF0FF37134604F1180504F1A7
S31500004BC07109A84604F1680699E00133082BD3D190
S31500004BD0DBE701330A2BE1D1E7E7B6F5406FE4D115
S31500004BE0D4E904010023237301F0EAF8238922782B
S31500004BF0009301238DF80F200DF10F02212104A847
S31500004C0001F072F8DDE90423C4E90423237B012BB8
S31500004C100FD0CAE7002D57D1212E38D10123237397
S31500004C2004F1680313F8012B52BB0223254485F8CF
S31500004C30683000234FF0FF354FF00A08012208FBC9
S31500004C4003F704F16806513F16F8010BF15DFFF713
S31500004C5047FF48B1317800294BD108FB03410A448C
S31500004C60127E002A76D15DB20133082BE6D1691C8B
S31500004C7070D000222078E9B2FFF760FF657394E7F1
S31500004C8001350A2DCED12046FFF737FFBEE740F6A5
S31500004C9001439E4289D1D4E9040101F091F804F15F
S31500004CA0680313F8012B5AB901230322254485F81A
S31500004CB068302178227362898DF80F1000929BE785
S31500004CC001350A2DEDD1DEE7012D7FF46EAF40F6FA
S31500004CD001439E42ADD1042294F868302273002B22
S31500004CE03FF463AF6389227800938DF80F202B463B
S31500004CF082E701320A2AA7D1B6E7B14514D016F8E1
S31500004D00010B88B1297879B118F8011BFFF7E8FE85
S31500004D100028F2D031780029EFD198F8001001333D
S31500004D20DBB20029E9D157B20132082A05F10A059A
S31500004D307FF447AF012B1BD17A1C19D02078F9B22A
S31500004D400222FFF7FBFE2046FFF7D7FED4E9040157
S31500004D5001F036F8237B042B0AD194F90D104B1C75
S31500004D6006D001222078C9B2FFF7E8FEFF2363735D
S31500004D7004F1690304F1720213F8011B03292AD115
S31500004D80002304F1180204F17107164604F16805C0
S31500004D9015F8010BC0B11178B1B116F8011BFFF778
S31500004DA09FFE78B1297803290CD1317851B90222B6
S31500004DB019462078FFF7C2FE204607B0BDE8F0434B
S31500004DC0FFF79BBEBD42E3D10133DBB2082B02F1F4
S31500004DD00A02DAD1F0E79A42CED107B0BDE8F083F5
S31500004DE0A0F54063012B30B416D8164A0C68002390
S31500004DF01146D568A54208D1782202FB0313014665
S31500004E0003F1080030BCFFF7A9BE0133082B02F1FD
S31500004E107802EED130BC70472128FBD1094B002027
S31500004E201A46097893F908408C4205D1782303FB8A
S31500004E30002021210830E5E70130082803F1780336
S31500004E40F0D1E7E7483100204FF6FF7238B500256C
S31500004E50054C2280A270083460197835FFF753FE9E
S31500004E60B5F5707FF8D138BD48310020F0B521B3D3
S31500004E700B7813B3072820D87823184E03FB00635A
S31500004E80DB68D3B14B1E01F1090513F8014F022C63
S31500004E9013D80CB1AB42F8D10025C0EB0010C4000A
S31500004EA006EBC00393F82000EFB240B10135082DA0
S31500004EB003F10A03F6D10520F0BD0320FCE704F157
S31500004EC020030A2404FB05330C68F518F4504C68DB
S31500004ED06C600B892B811770EEE700BF483100200C
S31500004EE02DE9F8430F460546E0B10168D1B100232C
S31500004EF02F4C04EB8302D268914213D01E33F02B61
S31500004F00F7D100262A4BD3F80C905FFA86F8B9F150
S31500004F10000F09D00136082E03F17803F3D10520DE
S31500004F20BDE8F8830320FBE778237343E218D160DA
S31500004F30A98870331182E988518203211175E2181C
S31500004F4044F80390C2F80490A2F8089040F6014194
S31500004F50286801F040F84FF44061286801F03BF8FA
S31500004F6094F90030013306D14A4640F60140114912
S31500004F7000F012FE207094F90130013306D10022B0
S31500004F804FF440600B4900F007FE607094F9023060
S31500004F90013305D100222120064900F0FDFDA07055
S31500004FA0782303FB06440020267287F80080B7E7C3
S31500004FB048310020E14D00000A20704700210148D9
S31500004FC000F0E3BF103500200021014800F0E2BFE9
S31500004FD01035002001460022014800F0E0BF00BF66
S31500004FE01035002001460022014800F0DDBF00BF59
S31500004FF010350020014800F0C5BF00BF1035002065
S31500005000014800F0BCBF00BF1035002070B5054652
S315000050100E4614461AB10649064800F0ADFF23466F
S3150000502032462946BDE87040024800F02ABF00BF5C
S31500005030395000001035002007B50021074800F060
S315000050409BFF074B6A460093002108234FF4A050AC
S3150000505000F040FD03B05DF804FB00BF10350020F2
S31500005060E01000204FF47A7337B5002200933549DB
S31500005070032301F035FB0446F0B9334C3923334A98
S31500005080012033490094FFF7D7FA23463922314CE1
S315000050902E492F48FFF79AFB5E2301202B4A2E4903
S315000050A00094FFF7C9FA2C4823465E222749FFF7EA
S315000050B08DFB002003B030BD00234FF48072CDE994
S315000050C0003340F2DC510A234FF0B44000F054F8AC
S315000050D0034650B9214C41231C4A01201C49009427
S315000050E0FFF7AAFA23464122D1E701251C480360AF
S315000050F01C4B05711C60836000F0B0FE50B11A4C69
S315000051004C23124A284612490094FFF795FA234683
S315000051104C22BCE7154801F03DFA50B1144C52231D
S315000051200A4A28460A490094FFF786FA234652227D
S31500005130ADE7204601F044FC6421206901F01CFC27
S315000051400C48B7E700C004507AE003006CE00300A7
S315000051501BE10300FAE003002CE1030098E00300E2
S31500005160103500201C350020B5E003007411002026
S31500005170E0E00300E010002030B5274C87B0C4E91A
S3150000518000010A21E2600A9A23725A43B2FBF1F245
S3150000519022610B9A20465343B3FBF1F3636100F09F
S315000051A081F968B11D4D932301201D4A1D490095C3
S315000051B0FFF742FA2B46932219491A48FFF706FBD6
S315000051C01022002102A824681AF059FE0120B4F129
S315000051D0B44F8DF8080011D14FF48073ADF8083044
S315000051E002238DF80A0002A920468DF80E3005F03C
S315000051F034FE04F069F9084807B030BD0A4C28238C
S31500005200074A0A490094FFF717FA23462822044959
S315000052100648FFF7DBFAEEE720350020B5E103008C
S31500005220ABE10300CCE20300D1E10300BDE20300E1
S3150000523008B5002104F018F9054B984205D0013B4A
S3150000524098420CBF0620002008BD0720FCE700BFDF
S31500005250028000F010B50446006805F03EFE2368A3
S31500005260186900F0010010BD37B5144682B9114C1B
S3150000527040230120104A11490094FFF7DDF90F4839
S31500005280234640220C49FFF7A1FA012003B030BDA6
S31500005290137943B115682846FFF7DCFF18B10021E2
S315000052A0286805F0CEFD064B1B680BB120469847D3
S315000052B02079EBE7E2E10300ABE10300A7E203009C
S315000052C03835002010B50446FFF7C4FF38B9012170
S315000052D0034B2068BDE81040197105F0B2BD10BD42
S315000052E00C11002010B50446FFF7B4FF60B120682A
S315000052F0002105F0A6FD0021044A08461460BDE819
S3150000530010401171FFF7B0BF10BD00BF0C11002097
S315000053102DE9F04FDFF800A187B0054699469DF8C4
S3150000532048300E46CAF800000021006890468AF808
S315000053300430BDF9447005F084FD04F08FF84FF495
S315000053407A7300242A7A5A4311098C462146E0FBD7
S3150000535006C1234660461AF07BFB23460E46A4464A
S31500005360DFF8B8E01AB2C2F1200B06FA0BFBA2F185
S31500005370200420FA02F141EA0B0126FA04F4214343
S315000053804C1E26FA02FB4BF1FF31A6457CEB0101D0
S3150000539003F10103E6D32868002183689BB243EA40
S315000053A00243836005F046FD28680125214605F085
S315000053B09AFD154B4A46049387EAE773A3EBE77316
S315000053C09BB2FF0F02934FF480314046CDE9005760
S315000053D0109BCDF814A0039504F024F9044680B17F
S315000053E00A4EC7230A4A0B49019000962846FFF742
S315000053F023F908483346C72205490094FFF7E6F922
S31500005400032007B0BDE8F08F6952000000E20300F8
S31500005410ABE1030094E203000C110020FEFF0F0035
S31500005420014B1860704700BF3835002037B504F0CF
S315000054307FF8044680B1094DEA23094A09490190DB
S3150000544000950120FFF7F8F806482B46EA220449A2
S315000054500094FFF7BBF90C2003B030BD28E203002F
S31500005460ABE1030086E2030037B504F081F8044699
S3150000547080B1094DF323094A09490190009501209D
S31500005480FFF7DAF806482B46F32204490094FFF7A3
S315000054909DF90C2003B030BD4FE20300ABE10300E1
S315000054A077E2030030B54FF6FF751B4B85B0044617
S315000054B0022218880DF10601ADF8065001F08BFCAA
S315000054C0BDF80630AB4201D000B96360134B04222D
S315000054D002A91888029501F07EFC029A511C06D09A
S315000054E028B9237A53430A22B3FBF2F363614FF6DA
S315000054F0FF7303930A4B0422188803A901F06BFC7F
S31500005500039A531C06D028B9237A53430A22B3FBC5
S31500005510F2F3236105B030BD5208040058080400B8
S315000055205A0804000720704700487047DCE2030071
S31500005530034630B50C4958B10022302404FB02F56D
S315000055404D5950B29D420ED00132042AF6D10023A5
S31500005550302202FB03F40C5958B224B10133042B58
S31500005560F7D14FF0FF3030BD403500200023064A0A
S31500005570117931B90133042B02F13002F8D101203F
S3150000558070470020704700BF40350020838A82693B
S315000055900133B2F908201BB29A42838209DC002348
S315000055A0838290F82C30FF2B1CBF03F1FF3380F869
S315000055B02C30704708B5C022002104481AF05FFC61
S315000055C0034801F067FA002008BD00BF40350020FF
S315000055D06D5500002DE9F34180460E46FFF7A8FF02
S315000055E0041E64DB30236343324FFD18FB584345EA
S315000055F05DD195F9280000F0E9FA95F82C30FF2BDB
S3150000560007D1D5E9080100F0DBFB95F91C0000F095
S31500005610DDFA302303FB0473DA6812B140461969D8
S315000056209047404600F0EAFF66B924B204EB440412
S315000056303022002107EB04101AF021FC002002B0F2
S31500005640BDE8F081302606FB04764046717900F00D
S31500005650D2FF00250DF10601404600F0C9FF717921
S315000056609DF8063099420DD01422B5FBF2F302FBE9
S315000056701353DBB213B9404600F0BDFF0135EDB25E
S31500005680C82DE7D1002511F009FCEEB2B042CCD905
S31500005690304611F093FE01238DF80700002141F2F8
S315000056A001000DF1070200F015FA0135EBE70320C2
S315000056B0C5E700BF4035002030220B780121534357
S315000056C0014AD058FFF786BF4035002030234343B8
S315000056D02DE9F341284D00EB4007EA1892F82C60BB
S315000056E0044605EB07173EB90121E858FFF772FF9C
S315000056F0304602B0BDE8F081B2F91430002BBCBFD1
S315000057000023938230234343EE18B269B6F914108E
S315000057105268E85812F8318000220DF107018DF821
S31500005720072000F065FF9DF80730434508D138464D
S31500005730FFF72CFFB369B6F914205B6813F83280C3
S31500005740302044432B199A69B3F91410526838462D
S3150000575002EBC10256689E60FFF718FF285900F059
S3150000576059FF0A2270430123B0FBF2F24146285941
S3150000577000F046FF0646BBE740350020B0F5A05FC7
S3150000578008B509D10868FFF7D3FE002804DBBDE899
S315000057900840C0B2FFF79ABF08BD000038B50546FD
S315000057A00C46FFF7C5FE031E0DDB30204343074AB8
S315000057B00020D118D358AB4214BF00230B7903F055
S315000057C00103237038BD0320FCE700BF40350020ED
S315000057D02DE9F0474FF0000A86B005460C461746FD
S315000057E01E468DF80EA0FFF7A3FE50458DF80F005C
S315000057F003DA032006B0BDE8F08728460DF10E0156
S31500005800FFF7CCFF9DF80E309DF90F80002B61D07D
S315000058103022344B514602FB0833284693F8059054
S31500005820FFF7D8FE0028E5D1FFF77CFE8246FFF79A
S315000058307BFE00239AB25245DBD284469CF80020B8
S315000058400133A24200F10C00F4D130214FF6FF7370
S3150000585001FB08F2234CA01883820E9BC0F818C0E7
S31500005860C3600F9BA55003619DF80E30A3BB01FBDF
S3150000587008412846053100F0BBFE0028BAD1302386
S31500005880012503FB084400224FF4A0501649257158
S3150000589084F82C6000F080F9FF2EA06215D100225A
S315000058A012494FF4805000F077F92B4620774FF4D9
S315000058B0805100970DF10F0204A800F015FA002898
S315000058C098D1DDE90423C4E908239DF80F00FFF70A
S315000058D0FDFE8FE79946A7E7002380F805908360D1
S315000058E0CDE700BF403500207D570000B9560000C7
S315000058F0002307B5CDE90033FF23FFF769FF03B0A7
S315000059005DF804FB13B500241346CDE900444FF0BF
S31500005910FF32FFF75DFF02B010BD002070470000A8
S315000059202DE9F843404815F0D9F9044650B93F48E7
S3150000593015F0D4F9044628B93D4815F0CFF90446C8
S31500005940002857D020274FF048083A4E3A4D736842
S31500005950002B4AD0226833689A4246D128784822DA
S3150000596008FB0050002104301AF089FA22462B78F1
S3150000597004F1300E08FB035314339C46106851683B
S315000059800832ACE8030072456346F6D11068324629
S31500005990CCF800002B7806F1100E08FB03530433F5
S315000059A09C46106851680832ACE8030072456346AD
S315000059B0F6D107F0B9FD95F8009007F005FE2B78B3
S315000059C008FB09590133DBB2082B08BF00232B70F3
S315000059D06B78C9F84800072B9CBF01336B702068B1
S315000059E004F10C01D6E901329847013F06F1100691
S315000059F0ADD127710D4815F08CF940B9FF210F483C
S31500005A0008F060FBBDE8F84300212AF0F9BE08481B
S31500005A1015F07FF90028F1D0034815F07AF900282F
S31500005A20ECD0BDE8F88300BF8C3800200838002091
S31500005A3010390020FC3B0020B839002094390020A2
S31500005A4038B5124D124C0A21284615F0FBF82846A7
S31500005A50104D214615F008F90A21284615F0F2F8EE
S31500005A6028460D4D214615F0FFF80A21284615F067
S31500005A70E9F82146284615F0F7F8BDE838404FF416
S31500005A801172002105481AF0FAB900BF0838002043
S31500005A901B590000103900208C380020B83900202E
S31500005AA008B5FF2308481A46084908F0CBFA012230
S31500005AB0074BFF2104481A7008F004FBBDE80840B4
S31500005AC000212AF09DBE00BF943900202159000014
S31500005AD0B4390020282B2DE9F8430E46814611469D
S31500005AE01D4644D8234B00241F461A7952B9342345
S31500005AF003FB04F007EB000861B9002203FB047303
S31500005B009A6010E001340A2C03F13403EDD105202C
S31500005B10BDE8F883002DF0D00C302A4638441AF040
S31500005B2087F9C8F80850342301225C43964207EBF4
S31500005B3004031A7147F804905E7116D00E480F4B95
S31500005B40022E08BF1846414615F093F80028DED00D
S31500005B500B4B18780028DBD0FF210A4808F0B2FA70
S31500005B6000212AF04DFE0020D2E70748EBE703208C
S31500005B70CEE700BF00360020083800208C38002011
S31500005B80B4390020943900201039002000231A4629
S31500005B901946FFF79FBF000070B50B4C0023254642
S31500005BA0666846B905EB03141E01A851C4E9022331
S31500005BB0616058B206E00133202B04F11004EFD1E6
S31500005BC04FF0FF3070BD00BFFC3B00200A4B0022A7
S31500005BD0194610B55C683CB1DC68844204D10020EB
S31500005BE001EB0212506010BD0132202A03F11003AE
S31500005BF0F0D10320F7E700BFFC3B00201022064B44
S31500005C0093F8281011B1D969091AD961013A03F13B
S31500005C103003F5D1704700BF003E002010226FF020
S31500005C200040074B93F8281029B1D969012902DDF4
S31500005C308842A8BF0846013A03F13003F2D1704703
S31500005C40003E002008B50146002003F0E5FE0020D6
S31500005C5000F0A0FFBDE8084000F088BF70B50868F6
S31500005C60FFF7CCFFFFF7DAFF6FF00043984201D24F
S31500005C70FFF7E8FF102500260A4C94F824305BB1A4
S31500005C80A369022B08DC22460021636954F8040C40
S31500005C9084F82460FFF71EFF013D04F13004ECD1C7
S31500005CA070BD00BF043E002008B500F09FFF8307CB
S31500005CB003D5BDE8084000F075BFBDE8084000F018
S31500005CC077BF07B500F07AFF00F05AFF00F06AFFD1
S31500005CD00423019000210DEB03020D20FFF7FAFECD
S31500005CE003B05DF804FB00002DE9F04F142B85B0DE
S31500005CF0019183461146994651D80E9B012B4ED9E8
S31500005D00DFF8A0A04FF0300EDAE900020446904614
S31500005D10DFF894C010F1100542F10003AC4278EBB5
S31500005D20030301D3052033E004F00F070EFB07F74A
S31500005D30631C48F100050CEB0706009506F12805E3
S31500005D40029596F8285035BB0393019B381D604495
S31500005D504A4633601AF06CF8C6F8189000F010FF47
S31500005D60039BC6E90848CAF80030009BCAF804300D
S31500005D70FFF79AFFFFF742FF0E9B029AF36101239A
S31500005D801370FFF74BFFFFF75DFF2846CBE900488E
S31500005D9005B0BDE8F08F1C46DDF80080BAE70320A9
S31500005DA0F6E700BF00410020003E0020002307B5B3
S31500005DB000921A46FFF798FF03B05DF804FB000057
S31500005DC0302210B50F4C00F00F0302FB0344D4E958
S31500005DD008238B4208BF824212D100F0D1FE002375
S31500005DE084F82830FFF760FFFFF708FFFFF716FF7C
S31500005DF06FF00043984203D2BDE81040FFF722BF80
S31500005E0010BD00BF003E00201FB50821132004F07E
S31500005E1073F90F4A01AB07CA83E80700184603F077
S31500005E20C7FD03F005FE00F0CFFE00231946094A20
S31500005E300133102B82F8281002F13002F8D100222B
S31500005E400D20054905B05DF804EBFFF7A5BE00BFC0
S31500005E5030E30300003E00205D5C000038B50446D8
S31500005E6000252279EBB29A4201D8002008E0A26808
S31500005E70013552F823000430FFF7DAF90028F0D094
S31500005E8038BD2DE9F04F1E46836804461868002386
S31500005E900F4689B00DF11F0115468DF81F3000F031
S31500005EA0CDFB9DF81F00874201D1002061E02368E9
S31500005EB03A1A4CBF5B691B6923B39D4238BF1D4626
S31500005EC017B2002A38D04FF47A714D43002AB8BF72
S31500005ED05242B5FBF2F500F1010801384FEA4808D5
S31500005EE0400038EA270828BF80464FF0000923798A
S31500005EF05FFA89FA534521D8002ED6D02068FFF7DD
S31500005F00E1F9D2E7002DDBD12379EEB2B342CCD949
S31500005F10A368394653F8260000F085FB2379012B48
S31500005F2008D9A3684FF4007253F82630D3E9040168
S31500005F3019F07EFF0135E7E71546CCE7A368D4F8EC
S31500005F4000B053F82A0009F101090279059200F020
S31500005F5063FBCDE90176A168034651F82A1058463D
S31500005F600969059A414400912946FFF7D1F90028AD
S31500005F70BDD009B0BDE8F08F0846FFF751BA0068FA
S31500005F80FFF768B90068FFF7ADB9836853F82100D9
S31500005F9000F06ABB836853F8210000F083BC836875
S31500005FA053F8220000F04ABB036837B515461A6954
S31500005FB004460AB95B6933B10123002220460191E8
S31500005FC0FFF75FFF0199A36853F8250003B0BDE80A
S31500005FD0304000F028BB00F0E5B900F0C7BA00F089
S31500005FE0CABA00F08FB900F07BB900F019B900F019
S31500005FF0E6B900F0E7B900002DE9F04F022087B0BE
S31500006000FEF7F6F807460220FEF7F8F84FF001080B
S31500006010344C4FF03009D4F8243408FA00F823EA57
S3150000602008030146C4F824340422002306463846F1
S3150000603004F032FB42F2100309FB07442A4D44F8F0
S3150000604003804FF4FA7007F08DFF0024AB462979E0
S31500006050E3B2022940D018460393FEF7CFF8039B1C
S3150000606082461846FEF7C4F8AB791422A3B36B7ABE
S3150000607093BB19FB002303F1A04303F570331868A3
S3150000608020FA0AF000F00100687028BB297919BBD4
S3150000609001230BEB041423714FF4406004236A447C
S315000060A00594FFF717FD012231463846002304F018
S315000060B0F3FA0E4B3046C3F820840D4903F06CFB0F
S315000060C001233246CDE9003331460023384604F039
S315000060D09FFA07B0BDE8F08F01340C2C05F11005CE
S315000060E0B5D1E0E700C003500841002000E00350AE
S315000060F0F56000002DE9F04F022087B0FEF778F832
S3150000610080460220FEF77AF8324D07460220D5F87F
S315000061102444FEF773F801232F4E03FA00F024EA15
S315000061200004C5F82444B14600254FF0300A4FF06C
S31500006130140B3379EAB2022B46D010460392FEF7CF
S3150000614057F8039A04461046FEF758F8B379002B21
S315000061503AD0717A002937D11AFB04B303F1A04370
S3150000616003F570331B68C34003F0010373705BB320
S315000061703379012B28D109EB0515042340F601409C
S31500006180297105AA0595FFF7A5FC0220FEF736F84A
S3150000619001240025114B04FA00F0C3F8200410492D
S315000061A0384603F0F9FA23463A4639464046019402
S315000061B0009504F02DFA2B4622463946404607B094
S315000061C0BDE8F04F04F068BA01350C2D06F1100653
S315000061D0AFD1DAE700C003500841002000E00350C9
S315000061E0F95F000028B1052814BF00204FF4000015
S315000061F070474FF48000704770B5084D044606019D
S3150000620005EB00108271C37000220223AC55817029
S3150000621042708380C2710281827270BD0841002083
S315000062202DE9F74398460646FFF7E6FF0446304653
S315000062308946FDF7E3FF05463046FDF7D9FF84F8AA
S3150000624003800746B8F1000F01D1012363710223D1
S31500006250204A2946384612F809202371637904F04A
S315000062601BFA22461C49284603F0A8FA4FF00108FB
S31500006270E0600246434638462946CDE9008804F0E8
S31500006280C7F93046FDF7C2FFE8B13022142328468D
S3150000629084F80A80FFF7A6FF12FB073303F1A04339
S315000062A003F570331B68064623FA05F505EA08056B
S315000062B0657065B9014604F031FA084BD3F8240439
S315000062C00643C3F82464204603B0BDE8F0830021EA
S315000062D0F1E700BF3CE303006364000000C0035025
S315000062E001220221064BC3F84024C3F84014C3F828
S315000062F044240422C3F840240822C3F840247047EB
S3150000630000E00350012273B5002311460220FFF777
S3150000631073FF05460078FDF76BFF06462878FDF704
S315000063206DFF6B79044601460122304604F0B4F94C
S31500006330002501232246CDE900532146304604F0CC
S3150000634067F94FF0FF320A4BC3F820244FF0007272
S31500006350084BC3F880211A604FF08062C3F8802191
S315000063601A600549204603F017FA284602B070BDA8
S3150000637000E0035000E100E0F95F000008B503F01B
S31500006380F3F90022064940F60340FFF705FCBDE895
S315000063900840002240F602400149FFF7FDBB00BF5E
S315000063A0D364000040F60143994202D10123C37130
S315000063B07047B1F5406F04BF012303727047007840
S315000063C0FDF716BF0078FDF719BF8078013802285F
S315000063D08CBF00200120704738B50446FFF7F5FF53
S315000063E0034620787BB1FDF703FF05462078FDF7CD
S315000063F005FF0146284600F0FFFB431E5842584160
S315000064006070607838BDFDF7F3FE05462078FDF72D
S31500006410F5FE0146284600F0FCFBEEE713B5044600
S315000064200190FFF7D9FF012810D1E37963B1E37832
S3150000643040F60140012B08BF4FF4406004230021C1
S315000064400DEB0302FFF746FB02B010BD237A002BCB
S31500006450FAD0E37840F60140012B18BF4FF44060B4
S31500006460ECE773B58B790C465BB3497A39B90423EB
S3150000647040F603400DEB03020194FFF72BFBA37AD2
S31500006480012B24D12078FDF7B9FE05462078FDF7CB
S31500006490AFFE1426034630222846FFF7A3FE12FB62
S315000064A0036303F1A04303F570331B680146EB4019
S315000064B003F00103637043B902B0BDE8704004F015
S315000064C02DB90846FFF7AAFFD9E70021F4E702B085
S315000064D070BD10B50C6840F60241884286B005D002
S315000064E040F60343984209D006B010BD002320466B
S315000064F0637206B0BDE81040FFF790BF142303AAED
S31500006500009304A804230394FFF7EEFB0028EBD1C5
S3150000651001236372E8E7000037B504460078FDF70B
S3150000652067FE05462078FDF769FEA3780E4A014608
S31500006530D25C931E012B01D90C2A01D10123637170
S3150000654028466379019104F0A7F82046FFF73DFF3E
S31500006550019928B1284600F04FFB607003B030BDAA
S31500006560284600F056FBF8E73CE30300C078431EDC
S315000065705842584170470B2838B54FF0000507D8E8
S31500006580FFF73AFE0446FFF7C7FF2571204638BDE0
S315000065902C46FBE7036813B5FF2B044605D1002004
S315000065A004F0E0FC00280CDB2060D4E9011220682E
S315000065B004F016FD20680021A28904F016FD0020D3
S315000065C00EE0084C16230120074A08490094FEF7FE
S315000065D033F80648234616220349FEF7F7F8052046
S315000065E002B010BDB8E30300AEE30300D8E3030036
S315000065F0C36808461847836808461847436918471A
S3150000660010B40446246A084611461A4623465DF825
S31500006610044B1847836A184770230279006803EB16
S3150000662042131844704710B502690368047932F8BA
S315000066301120196B03EB44131A6710BD38B50023FC
S315000066400B7005460C460179006800F0AFFB237815
S315000066502A6932F81320824201D2FF2B01D1002091
S3150000666038BD01332370F2E713B5036817490246B4
S315000066708B4222D001F580418B4220D001F580412A
S315000066808B421ED0124883420CBF03204FF0FF30CE
S31500006690117900F0CBFAB0B10E4CA02301200E4ABE
S315000066A00E490094FDF7C8FF2346A0220A490B486D
S315000066B002B0BDE81040FEF789B80020E8E70120E7
S315000066C0E6E70220E4E702B010BD00BF00800450F8
S315000066D0004005505BE4030051E40300DFE40300DF
S315000066E02DE9F046644F8BB03D788DB1634C6A233B
S315000066F00120634A63490094FDF79EFF61482346E3
S315000067006A225F49FEF762F800200BB0BDE8F0860A
S315000067105D4CA381BDF848302160E3815B4BA060EE
S3150000672023615B4B294620462271636100F0F6F82F
S3150000673068B1584D7C230120514A52490095FDF716
S315000067407BFF2B467C224E494E48FEF73FF806203B
S3150000675003F052FC032803D00321062003F0CCFCEF
S31500006760206800F005FB0D22002102A819F087FB26
S315000067700323A0688DF80E30FFF72FFCB0FA80F0E7
S31500006780400921798DF8120002AA206804F084FDE0
S315000067900E22002106A819F072FB40F2011306A989
S315000067A02068ADF8183040F2DC5904F028FD256861
S315000067B002F0EEFDB0FBF9F6D5F804A002F0E8FD14
S315000067C0013E360C06FB0999B0FBF9F9284604F0A0
S315000067D00FFD012205F500531A63CAF3110343EABC
S315000067E0864605F580536E6009F1FF391A632B6BF7
S315000067F0A068C5F81C90EA60FFF7EFFB38B923687C
S315000068002179DA69186B013203EB41131A671E48C6
S31500006810FFF72AFF2068204B984226D003F58043D5
S31500006820984224D003F58043984222D003F5804352
S3150000683098420CBF03204FF0FF30A268217900F088
S3150000684045FA68B1154C5F2301200D4A144900949E
S31500006850FDF7F2FE23465F2209491148FDF7B6FF10
S315000068603B78094801333B704FE70020E5E70120FC
S31500006870E3E70220E1E700BFC845002073E4030018
S3150000688051E40300FBE40300CC450020C84100208E
S31500006890C8430020B5E103000080045098E40300DB
S315000068A0EEE4030013B50368174902468B4222D073
S315000068B001F580418B4220D001F580418B421ED0EC
S315000068C0124883420CBF03204FF0FF30117900F0CD
S315000068D0D5F9B0B10E4CA92301200E4A0E490094F9
S315000068E0FDF7AAFE2346A9220A490B4802B0BDE8D5
S315000068F01040FDF76BBF0020E8E70120E6E7022025
S31500006900E4E702B010BD00BF00800450004005500F
S31500006910B5E4030051E40300CFE40300032937B5CF
S31500006920044622D84FF6FF75114B0222188801A99A
S31500006930ADF8045000F04FFAA8B9BDF804300222B1
S31500006940AB424FF6FF7518BFA3810A4B0DF1060146
S315000069501888ADF8065000F03EFA20B9BDF80630AA
S31500006960AB4200D0E38103B030BD0620FBE700BF99
S315000069705608040054080400002302464FF0640C35
S31500006980F0B50E4D038000F5FE76AF1E35F8023BDE
S3150000699064291CBF4B43B3FBFCF37C8818BF9BB236
S315000069A0A34238BF234622F8023FB242EED1B0F8E6
S315000069B0FC31A0F8FE310020F0BD00BFE645002006
S315000069C010B504462DED028B006800F002FADFEDEB
S315000069D02E7A9FED2E7AA289E38900FB0222B3F577
S315000069E07A7F98BFB0EE677A07EE902AF8EE677A5C
S315000069F000FB0333C7EE878A07EE903AF8EE677A14
S31500006A0087EE878AC8EE287A17EE900A18F096FC69
S31500006A1041EC100B19F07CFB19A3D3E9002351ECD0
S31500006A20100B18F00DFE41EC100B19F01DFB51EC8C
S31500006A30100B18F0BDFF0023BCEEE87A144A07EEEF
S31500006A40900A138017EE103A5380022368EEA78A45
S31500006A50BCEEE87A17EE101A22F813100133FE2B5B
S31500006A60F4D1BCEEC88A18EE103ABDEC028B9BB28C
S31500006A70A2F8FC31A2F8FE3110BD00BFAFF30080D2
S31500006A800000000000A06F4000007A4400401C4651
S31500006A90E4450020074910B500220C4651F8043B96
S31500006AA01BB944F82200184603E001320A2AF5D140
S31500006AB0052010BDE447002070B5054600240120DE
S31500006AC0064E56F8042B22B108B12846904700F02E
S31500006AD0010001340A2CF4D170BD00BFE447002048
S31500006AE093281BD8852805D8D8B101280CBF0620C5
S31500006AF00C20704786380D2810D8DFE800F009070B
S31500006B000B0F0F0F0F110F0F0F0F0F0D06207047F2
S31500006B10082070470A207047022070470C207047F3
S31500006B200920704713B59DF81040009411F07CF9C8
S31500006B3002B0BDE81040FFF7D3BF13B59DF8104073
S31500006B40CDE9003441F27C1311F07EF902B0BDE8C4
S31500006B501040FFF7C5BF0000034B5A6812B19A6A8E
S31500006B60002AFAD1704700BF0040065008B5FFF76B
S31500006B70F3FF0122014BDA6008BD00BF004006505A
S31500006B8008B5FFF7E9FF0222014BDA6008BD00BF36
S31500006B900040065008B5FFF7DFFF014B186208BD3D
S31500006BA000400650014B186B704700BF004006506E
S31500006BB0014B186A704700BF004006500222014B85
S31500006BC05A617047006006500222064B03F50051D9
S31500006BD003F580534A619A614FF48022024B1A6092
S31500006BE0704700BF0040065000E100E0014B5869C5
S31500006BF0704700BF004006503022142302FB0030CD
S31500006C0000F1A04000F570300068C84000F00100B7
S31500006C1070473022102302FB003000F1A04000F53F
S31500006C2070300068C84000F001007047431C13B57F
S31500006C3010D10F4C2E2301200E4A0F490094FDF768
S31500006C40FBFC0D4823462E220A49FDF7BFFD062010
S31500006C5002B010BD012303FA01F141F22C534001A9
S31500006C6000F1A04000F57030C1500020F0E700BFF1
S31500006C7090E503007DE50300F7E50300431C13B52B
S31500006C8010D10F4C372301200E4A0F490094FDF70F
S31500006C90D3FC0D48234637220A49FDF797FD062007
S31500006CA002B010BD012303FA01F142F22C53400158
S31500006CB000F1A04000F57030C1500020F0E700BFA1
S31500006CC090E503007DE50300D4E50300431C73B59E
S31500006CD0164610D1184C3F23184A01201849009433
S31500006CE0FDF7AAFC23463F2215481449FDF76EFD21
S31500006CF0062002B070BD71B101290CD002290AD05C
S31500006D00104C46230D4A01200D490094FDF794FCD2
S31500006D1023464622E8E70131890001EB401430465C
S31500006D20FFF765F905463046FFF763F9064B45EA76
S31500006D300040E0500020DCE790E503007DE503001D
S31500006D40B0E503009FE503002CC5035000487047DB
S31500006D5000C00350014BD960704700BF0040005A85
S31500006D6040697047012300F50050436070470000FA
S31500006D700C4B984211D00AD8A3F5004398420ED086
S31500006D8003F5804398420CBF1E2000207047064B37
S31500006D9098420CBF2020002070471F2070471D20FE
S31500006DA0704700BF0000055000400550012301F167
S31500006DB00802934002691A42FCD1CB1C5B01C358FE
S31500006DC0490103F003030844012B0CBF406F806E9A
S31500006DD07047C069704708B513460A467F2106F01A
S31500006DE06DFF002814BF0620002008BD08B507F077
S31500006DF03DF8002814BF0620002008BD2DE9F04FFD
S31500006E008BB09DF858900646B9F1200FCB460F4639
S31500006E1090464FF0000528BF4FF0200BDFF868A022
S31500006E20BAF80020ABB29A4202D80BB0BDE8F08F98
S31500006E30144CABB214F83320B24221D104EBC30494
S31500006E406388BB421CD1A388434519D15A4617997A
S31500006E500DF107008DF80060ADF80270ADF8048002
S31500006E608DF8069018F0E4FFA37900219A1E53428C
S31500006E705341A3716A4628234FF40050FEF72AFEB9
S31500006E800135CDE70C480020D4480020F0B5002499
S31500006E901A4B8BB01F889DF84850194BA6B2B742C3
S31500006EA001D8002024E01E78864223D15E888E42D7
S31500006EB020D19E8896421DD19E79012E1AD1202D71
S31500006EC08DF80000ADF80210ADF8042013992A469B
S31500006ED00DF1070028BF20228DF8065018F0A8FFF4
S31500006EE028236A46002142F20300FEF7F3FD9320B1
S31500006EF00BB0F0BD01340833D0E700BFD448002002
S31500006F000C48002000212DE9F04FB84BA7B01C22F9
S31500006F1016A81E78159118F0B2FF1DAA9046B44B1C
S31500006F2003F12005144618685968083303C4AB42B8
S31500006F302246F7D11B7820222370AE4B15A918885C
S31500006F40FFF749FFAC4815F02DFFC1462025002468
S31500006F50DFF8ECA215AF17F8011BFF2906D00134A4
S31500006F60504689F80110E4B215F01CFF013D15F0FA
S31500006F70FF0509F10109EED1A04815F013FFDCB1B8
S31500006F804223052200932946434630468DF8744035
S31500006F90FFF7C8FD044678B1994F2F23994A9A49BD
S31500006FA0019000970120FDF747FB3B462F229549AC
S31500006FB095480094FDF70AFC00230BAA9146CDE9FB
S31500006FC00333CDE90533914B03F1100714461868D6
S31500006FD05968083303C4BB422246F7D11B781022F6
S31500006FE023708B4B03A91888FFF7F5FE894815F027
S31500006FF0D9FECA461024DFF848B20DF10C0818F87D
S31500007000011BFF2906D0013558468AF80110EDB25A
S3150000701015F0C8FE013C14F0FF040AF1010AEED196
S31500007020764815F0BFFEEDB14223062200932146B5
S315000070304B4630468DF82C50FFF774FD054688B157
S31500007040DFF8008249236F4A6F490190CDF800802E
S315000070500120FDF7F1FA434649226A496A4800953C
S31500007060FDF7B4FBFF238DF809306B4B012218881E
S315000070700DF10901FFF7AFFE9DF80910674815F0FD
S3150000708091FE9DF80930FF2B1CD02023032200938C
S31500007090002130460DF10903FFF744FD054688B18E
S315000070A0DFF8A4815623574A57490190CDF800804E
S315000070B00120FDF7C1FA434656225249524800952F
S315000070C0FDF784FB002310AA9046CDE90733CDE9EE
S315000070D009334E4B154618685968083303C5BB4239
S315000070E02A46F7D11B7810222B704D4B07A918881A
S315000070F0FFF771FE4B4815F055FEC1461025DFF827
S3150000710040A107AF17F8011BFF2906D001345046EE
S3150000711089F80110E4B215F045FE013D15F0FF05B2
S3150000712009F10109EED1354815F03CFEDCB14123E9
S315000071300A2200932946434630468DF84040FFF721
S31500007140F1FC044678B1384D70232E4A2E49019041
S3150000715000950120FDF770FA2B46702229492A482E
S315000071600094FDF733FBFF238DF80A302F4B0122E5
S3150000717018880DF10A01FFF72EFE9DF80A102C481B
S3150000718015F010FE9DF80A30FF2B1AD03023082286
S315000071900093002130460DF10A03FFF7C3FC0446B5
S315000071A078B1244D7D23174A174901900095012097
S315000071B0FDF742FA2B467D22124913480094FDF74B
S315000071C005FBFF238DF80B301B4B012218880DF1B0
S315000071D00B01FFF700FE9DF80B100446174815F04B
S315000071E0E1FD9DF80B30FF2B4BD02FE07C6000209B
S315000071F0A8E803004E08040018E6030070E8030040
S31500007200E0E60300BDE60300CAE80300B8E80300B1
S315000072104208040012E703004A08040056E7030088
S3150000722050080400ACE70300C8E703004608040062
S31500007230EEE7030016E80300480804004CE80300E4
S31500007240AA3D04002BE703007AE703003023092256
S315000072500093002130460DF10B03FFF763FC044653
S3150000726078B10A4D8A230A4A0A49019000950120FD
S31500007270FDF7E2F92B468A22054906480094FDF7F8
S31500007280A5FA204627B0BDE8F08F00BF73E80300DB
S31500007290BDE60300CAE8030010B5084CFF212046EE
S315000072A006F010FF29F026FBFF21204606F00AFF14
S315000072B0BDE81040FA2129F0A3BA00BF0849002012
S315000072C040F2046005F05AB8062808B514D80B4BEE
S315000072D0DA6041F2883218705A601972FF23084941
S315000072E01A46084806F0AEFEFF2307481A46074925
S315000072F006F0A8FE002008BD0320FCE7D8480020C1
S3150000730055730000E848002008490020C1720000BB
S315000073100C4B37B518681BF057FA044678B10A4D7E
S315000073207A230A4A0A49019000950120FDF784F95B
S315000073302B467A22054906480094FDF747FA03B022
S3150000734030BD00BF4012002075E9030061E903006B
S3150000735093E90300FFF7DCBF13B5FF211F4806F0D2
S31500007360B1FE29F0FBF90246002834D11C4CE06836
S3150000737000B3237A2178FF2B14D16268FEF7B8FA9E
S31500007380C0B964682CF0FFFAC8B1FFF7C1FFFF214E
S31500007390124806F097FE04F1FA0129F031FA0020AE
S315000073A002B010BD01920F4A00924FF0FF32FEF775
S315000073B00FFA08B10024E5E741F28834E2E7642CCD
S315000073C04FF0FF01084838BF642406F07BFE6421B5
S315000073D029F016FADBE70420E2E700BF084900209F
S315000073E0D848002099720000E848002008B504F04B
S315000073F09DFF40F20463C31A5842584108BD00007D
S3150000740007B50A4B1B788DF8073022F029FC0CF0E3
S3150000741085FD0CF055F8012300210DF107024FF40C
S315000074207050FEF757FB03B05DF804FB7C6000204C
S3150000743007B58DF807000CF001FD012300210DF1C1
S3150000744007024FF47050FEF745FB03B05DF804FBEE
S3150000745008B50B4B18B101221A7000225A715A79DD
S315000074601979914207D91344587807F0A9FF0028E3
S3150000747018BF0C2008BD002202201A70FAE700BFD0
S3150000748028490020F8B50C46054608B90320F8BD82
S315000074900FF004FDA042F9D32E462F19BE420DD19E
S315000074A00B4E33788BB922462946701C18F0C0FC67
S315000074B034710120BDE8F840FFF7CABF16F8010B8A
S315000074C00FF0DAFEFF28E9D1E0E70420DFE700BF8E
S315000074D02849002070B50C46054688B14B1E132B73
S315000074E00ED8084E28220021B01D18F0C8FC2946E7
S315000074F06200B01D18F09CFC002086F82E4070BD7E
S315000075000320FCE728490020074A13785BB153792A
S3150000751011790133DBB29942537102D90020FFF78A
S3150000752097BF0023137070472849002070B5154691
S315000075300022244B0C4686B093F82E100633914257
S3150000754002DC002006B070BD33F8020B6688864266
S3150000755007D00132F3E70136102E08D14FF6FF703F
S3150000756016E06B460026184A1068516803C302A944
S31500007570F0B222F0AFF90028EDD19DF80830032BC8
S31500007580E9D19DF80E309DF80D0000EB032080B286
S315000075904FF6FD72431E9BB2934201D905F066F881
S315000075A02346032203F8052B0022C4F805205A605F
S315000075B06B466071000AA07103CB286069600120E8
S315000075C0C0E700BF28490020AFE90300014B18605F
S315000075D00020704758490020104B13B5186848B171
S315000075E0C9B14FF47A724A43012102B0BDE8104096
S315000075F0FEF77EB90A4C332301200A4A0A49009451
S31500007600FDF71AF8234633220649074802B0BDE8BB
S315000076101040FDF7DBB802B010BD00BF584900208E
S315000076204AEA030032EA030093EA03001FB5002387
S31500007630104C8DF80F30206868B10DF10F01FEF780
S31500007640ADF830B99DF80F301BB101212068FDF768
S31500007650C1FF04B010BD084C4F230120074A08495A
S315000076600094FCF7E9FF23464F2204490448FDF73E
S31500007670ADF8EEE7584900204AEA030032EA030073
S3150000768069EA030070B50B688EB0DB7C13B181200C
S315000076900EB070BD264B1B68002BF8D098470146EC
S315000076A00028F4D1142209A818F0E9FB214B142272
S315000076B0188809A9FFF78FFB12230DF111028DF827
S315000076C010300DF136010DF1260353F8040B8B42F1
S315000076D042F8040BF9D1BDF8363041F27C128DF830
S315000076E021301B0A8DF8223004AB0193124B4FF662
S315000076F07C4100930D20002310F044FD12F0DCF8CD
S31500007700044690B10D4E0E4D5B230E4A0E49029073
S31500007710019601200095FCF78FFF2B465B22CDE9F1
S31500007720006408490848FDF751F80020B0E700BF9B
S315000077305C4900204C0804001317040050EB0300BA
S3150000774058EB030038EB03008CEB0300F0B587B071
S315000077501422002101A818F092FB1F4B14221E8848
S3150000776001A93046FFF737FBBDF80430DB0729D502
S315000077700DF1060700243D4604F078FF0134102C75
S3150000778007F8010BF8D14FF6FF732A4648F2084076
S3150000779012F8011B4B40082103F001055B080DB1EF
S315000077A043409BB20139F7D1013CF1D1DB43ADF83F
S315000077B0163040F206631422304601A9ADF80430B3
S315000077C0FFF714FB002241F27C11044B4FF67C407C
S315000077D010F0C0FF07B0F0BD4C080400857600002D
S315000077E0014B1860704700BF5C490020002208B5B5
S315000077F0054B042005495A7107F010FABDE8084008
S3150000780041F60840FEF7C2B960490020ABEB030021
S3150000781010B528F045FB0022094BD4B213F83410FA
S31500007820FF2900D110BD814202F10102F5D103EB1F
S31500007830C4030420BDE810405A68024907F0EEB9B7
S3150000784084110020C1EB030038B504F0DEF9244CA6
S31500007850FF21A568451B04F12C0006F033FC29F036
S3150000786049F8FFF7D5FF1F4B9D4207D9042341F680
S3150000787007402371BDE83840FEF788B928F010FBB1
S31500007880032826D8DFE800F0021B2006BDE83840B2
S3150000789008F0A6BF0420144907F0C0F9FF211348D9
S315000078A006F010FC124928F0ABFFA0220120114976
S315000078B02AF0CAFD032341F606402371DAE70123C5
S315000078C041F605402371D5E7022341F602402371B4
S315000078D0D0E70420BDE83840074907F09FB900BF4C
S315000078E0604900208F5F0100C6EB03008C49002031
S315000078F080EE360000F8FF07E4EB0300B0F5C05F4A
S3150000790038B521D104200C782B4907F087F9FFF709
S315000079107FFF0022294BD0B213F83010FF2902D185
S315000079202246274907E08C4202F10102F3D103EB1C
S31500007930C0035A682349042007F070F9902C04D13B
S315000079400022214B9A605A7138BD912CFCD12AF045
S3150000795087FAD0B928F0A4FA0446B0B942F2010079
S31500007960194DFEF713F941F60A40FEF70FF96B7948
S315000079705BB10420154907F051F9FF2105F12C00F0
S3150000798006F0A0FB214628F03BFF28F089FA0328E1
S31500007990DAD10D4C6379002BD6D004200C4907F0C0
S315000079A03DF9FF2104F12C0006F08CFBBDE83840C0
S315000079B040F6B83128F024BFF6EB0300B4110020DE
S315000079C00EEC0300C1EB0300604900201BEC030032
S315000079D043EC030010B501220446094BFF215A71FE
S315000079E003F12C0034B906F06DFB2146BDE81040CA
S315000079F028F006BF06F066FB4FF47A716143F5E79F
S31500007A006049002010B50B4C20B105210A4A2068B8
S31500007A10FDF76EFF002341F604401A461946FEF7AD
S31500007A2059F804F0F2F8A0600020BDE81040FFF716
S31500007A30D1BF00BF60490020905F01000120FFF721
S31500007A40E1BF0020FFF7DEBF10B5094CFF2104F1AE
S31500007A500C0006F037FB28F04DFF23681BB9BDE884
S31500007A601040FFF7EEBFBDE81040FFF7E7BF00BFCD
S31500007A706049002038B500230E4DFF2105F12C008A
S31500007A806B7106F01FFB28F035FFFF2105F10C0096
S31500007A9006F018FB28F02EFF08F03EFD044630B92C
S31500007AA0286810B10121FDF795FD204638BD032455
S31500007AB0FBE700BF604900202DE9F7430F469046DB
S31500007AC00193064604F0A1F8294D019A2949044676
S31500007AD00420D5F8089007F0A1F843463A4604205A
S31500007AE0254907F09BF8C6B90EF0FCFF02280446AC
S31500007AF00DD1A88041F60140FEF748F8286848B144
S31500007B002246314603B0BDE8F043FDF7FBBEFFF762
S31500007B106DFE2E7103B0BDE8F0836B7953B9FFF7A4
S31500007B2065FE28680028F5D0012103B0BDE8F043C2
S31500007B30FDF750BD114BA4EB0900984208D9042368
S31500007B4041F607402B7103B0BDE8F043FEF71EB8BF
S31500007B5045F20723984209D9094B98428CBF022067
S31500007B600A2003B0BDE8F043FFF734BF0120F8E771
S31500007B706049002065EC03007DEC03008F5F010087
S31500007B807F38010038B5FF230025174C1A461749E0
S31500007B90206004F10C00657106F054FAFF231449C5
S31500007BA01A4604F12C0006F04DFA2A4611494FF404
S31500007BB0C050FDF7F1FF0EF095FF022805D1BDE894
S31500007BC0384041F60240FDF7E1BFFFF70FFC48B130
S31500007BD0FF2104F10C0006F075FABDE83840962145
S31500007BE028F00EBE38BD00BF60490020497A00006B
S31500007BF049780000FD78000070B588B06A461546E1
S31500007C00114B03F11006144618685968083303C46B
S31500007C10B3422246F7D11022FF210DEB020018F0E5
S31500007C202EF900F05DF810222946044618F0F0F807
S31500007C3040B1102220460DEB020118F0E9F8003899
S31500007C4018BF012008B070BD48EE0300F0B585B03E
S31500007C506A4604461746184B03F11006154618687F
S31500007C605968083303C5B3422A46F7D100F038F8FD
S31500007C70054600F039F8102206463946284618F01F
S31500007C80C7F8B8B100232360042323712B46621D75
S31500007C9005F1100153F8040B8B4242F8040BF9D19D
S31500007CA03046153406F1100350F8042B984244F878
S31500007CB0042BF9D105B0F0BD48EE030010B504461B
S31500007CC000F012F810220146204618F0BEF80120F6
S31500007CD010BD00000148FFF783BD00BFF97B00001F
S31500007CE00048704714EC04000048704724EC040078
S31500007CF008B504F01BFB40F20323984203D1BDE80C
S31500007D0008400AF0A7BF04F011FB40F20463984252
S31500007D10F5D008BD2DE9F041B0F5205F86B04FD112
S31500007D2064224B882025B3FBF2F3274C0E798DF89D
S31500007D3016302A460121207800950DF11603FEF72C
S31500007D40F1FEC0B101272378DFF8888038461F4A44
S31500007D501F490193039525230297CDF80080FCF770
S31500007D606BFC237825220093CDE90175434617491C
S31500007D701748FCF72BFD20237600009321220121D2
S31500007D8020780DF117038DF81760FEF7CBFEB8B11A
S31500007D900125212723780F4E28460C4A0C490193CA
S31500007DA0CDE9025731230096FCF746FC23783122B1
S31500007DB00093CDE90157334604490548FCF706FD13
S31500007DC006B0BDE8F08100BF7C600020D3EE030062
S31500007DD021EF0300ECEE030010B5094C94F90030D6
S31500007DE0013301D0002010BD00224FF42050054978
S31500007DF0FDF7D2FE20700130F4D10520F3E700BF75
S31500007E0024120020157D0000FFF7E6BF08B500210B
S31500007E10012303AA41F60100FDF75CFE08BD000040
S31500007E2008B5FF21044806F04DF9BDE808404FF4B7
S31500007E307A7128F0E5BC00BFE049002073B51E4CFE
S31500007E40A37D002B36D00EF04DFE032832D12AF04A
S31500007E5007F8A8B9012019492AF04EFB054678B162
S31500007E60174E4023174A1849019000960120FCF747
S31500007E70E3FB33464022134913480095FCF7A6FC62
S31500007E80A27D34F91230991C04BF02F1FF3234F995
S31500007E901230002B0EDB4FF47A7241F602015A4380
S31500007EA00A48FDF783FFA37D34F91320002AC4BFD7
S31500007EB00133A37502B070BDB849002000F8FF0772
S31500007EC0B8EF0300A4EF0300CAEF0300D049002077
S31500007ED02DE9FF4141F287339842054606D8012431
S31500007EE01C4B1C70204604B0BDE8F08127F0D8FF7B
S31500007EF0022828D1174B1C782CB300254FF6FD77A6
S31500007F004FF004081D700EF09DFE8542EADAEEB2CF
S31500007F106946304621F0DEFC98B99DF80030032B07
S31500007F200DD98DF80080304621F0CEFCB84208D13C
S31500007F3009490DF1050011F019F90024D2E7002BCB
S31500007F40F1D10135DFE741F288339D42C7D00124E4
S31500007F50C8E700BFB4490020217E000008B5FF2114
S31500007F60054806F0AFF828F0C5FCBDE8084041F228
S31500007F708830FFF7ADBF00BFE049002008B50D48C7
S31500007F80FEF788FDFF230C491A460C4806F05AF8FE
S31500007F90012200210A4B4FF0FF301A70094B4FF6B1
S31500007FA0FF7299754FF0FF3183F82020C3E906016F
S31500007FB01A8008BDD17E00005D7F0000E0490020E8
S31500007FC0B4490020B849002070B5044648B3164DA0
S31500007FD095F92030013307D1002241F602001349FA
S31500007FE0FDF7DAFD85F82000D5E90601B1F1FF3F7E
S31500007FF008BFB0F1FF3F01D0FDF7E2FE23460A4A73
S3150000800004F11006144618685968083303C4B342CD
S315000080102246F7D11868206000209B88A380A875A7
S3150000802070BD0320FCE700BFB84900203D7E00007C
S3150000803013B51B4C01238DF8070000214FF4C050E7
S315000080400DF10702FDF746FDA37DBBB92388023378
S315000080509BB2012B10D90EF045FD03280CD120460A
S315000080604FF47A7330F9182B41F602015A43FDF7A3
S315000080709DFEA37D0133A37502B010BD9DF80730A8
S31500008080902BF9D1D4E90601FDF79AFE00234FF0B3
S31500008090FF32A3754FF0FF33C4E90623ECE700BFB8
S315000080A0B84900202DE9F04F002406462746102542
S315000080B0DFF8DC90DFF8D0B0DFF8D0A085B05FFA4B
S315000080C084F86946404621F005FC78BB9DF80130EE
S315000080D0B34249D1D9F800305A88BDF802309A42E5
S315000080E042D10FF06BF99BF8001010F025F99DF8BE
S315000080F00080B8F1010F0AD14FF48A52D9F8003046
S315000081000220DA80A1B2524610F0C4F847469DF824
S315000081100030032B0AD19DF806309DF80500514624
S3150000812000EB032080B210F091F801270134102CE7
S31500008130C5D1B7B9102D14D06946284621F0CAFB1F
S3150000814078B99DF806309DF80540304604EB0324C7
S315000081500D4BA4B2197810F0EFF820460B4910F039
S3150000816075F805B0BDE8F08F9DF80030032BDDD122
S315000081704FF6FD72BDF80230934203D0002B08BFC4
S315000081804546D3E74546D1E77C6000200D7E0000DA
S315000081903061002008B5FF21044805F093FF41F245
S315000081A0883128F02DFB002008BD00BFE0490020E3
S315000081B02DE9FF4706460EF045FD074610F0CEF9BD
S315000081C03046FFF7E7FF0446002839D010F0C8F91B
S315000081D0204604B0BDE8F0876946284621F07AFBC0
S315000081E0044628B99DF8002062B9B84508BFA846DC
S315000081F00AF1010A5FFA8AF5AF42EDD8B84524D3F1
S31500008200B424E3E7BDF8021073889942F0D19DF8D3
S31500008210011073789942EBD19DF804103379994295
S31500008220E6D133789342E3D1032B0CBF0222082216
S3150000823049460DF1050017F0EBFD0028D8D1C5E73A
S31500008240B846824606F10509D4E73146404621F094
S31500008250B9FB0446BAE70000002230B50F4B104DBB
S315000082601B79991EC9B2D0B215F83040152C10D81A
S3150000827008290FD9A3F10D00C0B202280CD9A3F129
S315000082801000C0B2022898BF10239C4202F10102DE
S31500008290E9D130BD0223F8E70D23F6E7004A0020B6
S315000082A018F2030008B5FF21054805F00BFF28F07A
S315000082B021FB06F0E1FCBDE8084006F01DBD00BF4D
S315000082C0484A002030B50546002485B06946E0B22C
S315000082D021F000FB68B99DF80030032B09D101207D
S315000082E09DF806209DF8053003EB02232B8005B090
S315000082F030BD0134102CE9D10020F8E710B5044652
S31500008300044B187810F018F82146BDE810400020FC
S315000083100FF0D6BF7C60002073B5154D06460C469F
S3150000832005F10800FF2105F0CDFE28F017FA58B92F
S31500008330FF2105F108002E7105F0C4FE214602B0AA
S31500008340BDE8704028F05CBA0A4CF12301200A4AC5
S315000083500A490094FCF770F92346F12206490748BA
S31500008360FCF734FA02B0BDE87040FFF775BF00BFF6
S31500008370004A002066F003004EF00300EEF1030011
S315000083809DF804305BB1064B1879A0F11002022A61
S3150000839005D80130C0B200211871FFF7BDBF704784
S315000083A0004A002010B4104A1379A3F10D010229E6
S315000083B017D8017811F005010AD14FF6FF740B4862
S315000083C08484581CC0B210715DF8044BFFF7A4BF3B
S315000083D0438833B98288054B40F6B83110209A8419
S315000083E0F2E75DF8044B7047004A0020CC5E00209F
S315000083F0F0B5A74CFF2191B004F1080005F062FE2C
S3150000840028F078FAFFF728FF2379022B0AD1FF21FB
S3150000841004F1280005F056FE43F2B06128F0F0F9A9
S3150000842006F02AFC23795A1E0A2A49D80B2B04BFC8
S315000084300123A3710CF0DAFE68B120794FF4FA71CA
S315000084400B280FBF15200130C0B2207111B0BDE856
S31500008450F040FFF761BF2379023B052B30D8082394
S3150000846023712379102B4BD02379113B012B00F27A
S315000084708C804FF6FF730CA8ADF83030FFF722FF63
S31500008480054600287DD141224FF48051814B009052
S3150000849011200FF09DFE804BE17918780FF04CFF0C
S315000084A07E4B28467E4A998C0FF0F4FE00286CD04D
S315000084B023790133D8B2132820715DD100213DE123
S315000084C023790D2B25D1FF21764805F0FBFD43F2DC
S315000084D0B06128F095F94FF6FF73704DAE8C9E4251
S315000084E00CD105F11C0027F0C3FEB042A88405D1CB
S315000084F0207900210130C0B22071A7E71023237133
S31500008500664B9A8C4FF6FF739A421AD100211520BA
S315000085109CE70E3B012BA4D84FF6FF735F48828C75
S315000085209A420CD160491C3010F020FE002898D0E9
S3150000853020790130C0B240F6B831207186E71023A9
S315000085402371002541224FF48051524B1120009592
S315000085500FF03EFE504BE17918780FF0EDFE4F4BD1
S315000085602846998C4E4A0FF095FE237910B10133B7
S31500008570237179E7581CDDE740F6B831FFF7CCFEEA
S31500008580F0E000211520FFF7C7FE2379132B40F0FA
S31500008590D7804FF6FF73454AADF81630106851681C
S315000085A006AB03C30DF11600FFF78CFE0546002847
S315000085B04DD104F05BF80322374B1B788DF8202051
S315000085C04FF6FD72CDE909558DF82500000AADF884
S315000085D02C50ADF822208DF821308DF824308DF8FE
S315000085E02600EEB230460CA921F074F99DF8303021
S315000085F01843C0B278B10135102DF2D12C4C4FF48E
S31500008600BA732C4A01202C490094FCF715F823462E
S315000086104FF4BA7216E0304608A921F0D3F90028C3
S31500008620E9D10DF11600FFF74DFE80B9234C4FF44A
S31500008630BC73204A012020490094FBF7FDFF234626
S315000086404FF4BC721B491C48FCF7C0F836E70422FD
S31500008650124F11461A4B11200FF0BAFDE179B88C72
S31500008660FFF74CFE064678B3164C40F28313114AC8
S315000086700190114901200094FBF7DEFF234640F2EA
S31500008680831200960B490C48FCF7A0F816E700BFCA
S31500008690004A0020DB4504007C600020CC5E002000
S315000086A081830000284A0020A5830000AFE903006B
S315000086B000F103004EF0030003F2030096F00300FE
S315000086C05F350400B5F0030006AB0193BDF8163024
S315000086D00246042100931120234B0FF079FDE17926
S315000086E0B88CFFF70BFE0546019068B11F4C40F2AF
S315000086F08B131F4A01201F490094FBF79DFF234659
S3150000870040F28B120095BDE7402203211A4B0090E0
S3150000871011200FF05DFDE179B88CFFF7EFFD014602
S3150000872030B10346154A0420154906F077FAC5E626
S31500008730039002222068FDF7E5F8039915201DE74E
S31500008740142B0DD11523237127F0B2FB20B90A2271
S3150000875002212068FDF7CCF80023A371237101E004
S31500008760152BF1D011B0F0BD3B0B0400CFF0030088
S315000087704EF0030003F20300DA450400DAF10300C9
S31500008780E2F003004FF0807310B5104C104963609F
S31500008790FF2320601A4604F1080005F053FCFF236E
S315000087A004F128001A460B4905F04CFCFF2304F19E
S315000087B048001A46084905F045FCBDE8104000226D
S315000087C04FF4C0500549FDF7E7B900BF004A002045
S315000087D0F1830000B1880000A58200004D880000EA
S315000087E00021044B044A9971597112780220DA71FA
S315000087F0FFF792BD004A00207C60002010B50D4CAA
S315000088002379013B0A2B0FD8FF2104F1280005F03C
S3150000881059FC28F06FF8FF2104F1080005F052FC1E
S3150000882028F068F80CF0E8FC20680121BDE810404B
S31500008830FCF7D0BE004A0020034B187910B115385A
S3150000884018BF0120704700BF004A0020B0F5C05F86
S3150000885010B529D1FFF7F0FF30B30B78902B05D177
S31500008860BDE8104044F6206006F0FEBA942B1BD1FA
S315000088700E4C63795A1C092B627111D80EF032F92D
S31500008880012811D029F0ECFA70B9FF2104F1480053
S3150000889005F018FCBDE810404FF47A7127F0B0BF20
S315000088A0BDE81040FFF7AABF10BD00BF004A002078
S315000088B013B50A4CFF2104F1280005F003FC28F04B
S315000088C019F8FFF7B9FF18B100232371FFF796FFD8
S315000088D00DF10600FFF7F6FC02B010BD004A0020BD
S315000088E008B5044B43F2B06201211868FDF700F8A1
S315000088F0002008BD004A002070B50D46044643F628
S31500008900E7401646FDF742F9174B1A783DB10023AA
S3150000891008361A010133D9B28D42B25CF9D8134E2A
S31500008920216AE06906F11C0303C3A38CB384104BD0
S31500008930198811F0800113D094F82A3003B92DB9A3
S31500008940FA210D20BDE87040FFF7E6BCFF2109487B
S3150000895005F0B8FB27F0CEFF44F620611420F1E7BE
S31500008960054B1320DA71EDE77C600020CC5E002019
S31500008970CA5E0020284A0020004A002008B50246A8
S31500008980FFF75AFFA0B1042A12D02AB900211520F8
S31500008990BDE80840FFF7C0BC052AF7D0054B00210B
S315000089A018790B281BBF0130C0B215201871EFE7EC
S315000089B008BD00BF004A002001460A4B186821B9CD
S315000089C00C221A710222FCF79DBF4FF6FF739942E3
S315000089D016BF4FF47A7240F6B8324A430121FCF7CB
S315000089E087BF00BF004A002008B5034B0121186865
S315000089F0FCF7F0FD012008BD004A0020F0B5002478
S31500008A000F461646254685B06946E0B220F062FF5D
S31500008A1028B99DF80030032B04BF0135EDB2BD42E5
S31500008A2005D801340F2CEFD1002005B0F0BD9DF81C
S31500008A3006209DF80530012003EB02233380002336
S31500008A40B370F2E7014B9879704700BF004A0020E7
S31500008A50014B186000207047684A0020214B13B56F
S31500008A600446186870B30B2C09D80B2C0BD8DFE81A
S31500008A7004F00C161D0A0A0A0A0A0A0A0A22023415
S31500008A80E4B2012C1AD9012403E002220021FCF7EA
S31500008A9039FF204610F05AFF012002B010BD42F205
S31500008AA010720121FCF724FF0024F2E702220621BE
S31500008AB0FCF728FFF8E702220021F9E70121FCF77D
S31500008AC089FDF1E7084C3A230120084A0849009439
S31500008AD0FBF7B2FD23463A2204490548FBF776FE2A
S31500008AE0D1E700BF684A00204AEA0300DCF203002F
S31500008AF0F6F2030037B50D6801A9284616F08EF880
S31500008B0058B9EC7B4CB9EB7C402B06D19DF805108F
S31500008B109DF80400FFF7A2FF10B9812003B030BD15
S31500008B202046FBE7BFF34F8F0549064BCA6802F4A0
S31500008B30E0621343CB60BFF34F8F00BFFDE700BF7A
S31500008B4000ED00E00400FA0500239B6AB3F5804FB0
S31500008B5003D21968064A914203D00023037083604A
S31500008B607047012202709A689B694260F7E700BF6E
S31500008B7007B0CD5E08B54FF00053024A1A60FFF702
S31500008B80D1FF00BF02020FF030B50024A36A87B000
S31500008B90B3F5804F054601910FD2012303A88DF846
S31500008BA00C30CDE90444FFF7CFFF059B5B0504D5E8
S31500008BB0A36A28461B6C0199984707B030BD000090
S31500008BC073B5464B04461A781AB102221A7002B0DF
S31500008BD070BDCDE900220028F9D001261E7001F0F3
S31500008BE0B4FC3F4D3F4B18601EF082FD2B785BB9FD
S31500008BF000F030FE40B93C4808233C4A3C49006836
S31500008C0019F036FC00B92E703A4B5A68A2603A4AFF
S31500008C109A601A6E22605A6E62601B6E5C043DD5C5
S31500008C20364AD368D807FCD4354B1A68531C3AD059
S31500008C304FF480139340334A13660423314C236662
S31500008C404FF48063236600F0A5FA01300BD000F0E4
S31500008C50A1FA40F2011398421FBF4FF480432366E6
S31500008C604FF4004323661023264C4FF080422366C0
S31500008C704FF400536846236601A922666366FFF730
S31500008C8083FF009B2366019B63662B78002B9ED097
S31500008C90164B1A6822665B68636698E71A4AD368B9
S31500008CA0D907FCD4C0E7194B1B78002BC5D1184B4C
S31500008CB05A68144B12B94FF480121A66154A526854
S31500008CC012B94FF400121A66134B5B68002BB4D12D
S31500008CD04FF480020B4B1A66AFE700BF824A0020B2
S31500008CE0804A0020844A002040120020784A002052
S31500008CF0007108000080004455CEAC00000004401E
S31500008D00281200200090004400000450814A0020F0
S31500008D100080055000C005500000065038B5214DB2
S31500008D2004462B78012B02D001232B7038BD002876
S31500008D30FCD000F02FFA013009D000F02BFA40F2F7
S31500008D400113984203D0184AD368DB07FCD4226883
S31500008D50164B1A6662685A66A268D40744BF002298
S31500008D609A60134B1A68013213D1124A127882B9EB
S31500008D7011494968C80748BF1A60104A5268D107A6
S31500008D8044BF01221A600E4A5268D20744BF02222B
S31500008D901A601EF0C5FC0B4B186801F0DCFB0023C3
S31500008DA0C3E700BF824A0020000004400080004460
S31500008DB028120020814A00200080055000C005507E
S31500008DC000000650844A002070B50024A36AB3F55B
S31500008DD0804F1ED2104E337813F0FD0517D10F4881
S31500008DE0FFF7EEFE08214FF480330D4A0D48C2F816
S31500008DF08011C36011600C4A1361AB6ADB69984746
S31500008E0004460648FFF78AFF0CB901233370204653
S31500008E1070BD4FF48174FAE7814A00206C4A002045
S31500008E2000E100E000A000440090004413B51F4B91
S31500008E301B7803B9FEE700231D4CCDE900336A46D3
S31500008E4008231C49206819F013FBF0B91A4AD2F816
S31500008E504031D2F840211F2B4FF0010310D9203AA0
S31500008E609340019A1343019308236A4611492068E7
S31500008E7019F0B4FA4FF00053104A1A60FFF752FE89
S31500008E809340009A13430093EEE70D4B9842F1D1BD
S31500008E90094AD2F84031D2F840211F2B4FF0010386
S31500008EA002D9203A9340DEE79340ECE7824A00205D
S31500008EB04012002000710800008000440B020FF0F1
S31500008EC00BE000F038B50025AB6A0446B3F5804FD9
S31500008ED010D21B6BB3F5804F0CD20748FFF770FE1C
S31500008EE0AB6A20461B6B5B689847BDE83840024872
S31500008EF0FFF714BF38BD00BF884A002000239B6AD5
S31500008F00B3F5804F05D21B6BB3F5804F01D29B683A
S31500008F1018474FF48170704713B50024A36A019077
S31500008F20B3F5804F13D21B6BB3F5804F0FD20948B0
S31500008F30FFF746FEA36A01211B6B01A89B699847B0
S31500008F4004460448FFF7EAFE204602B010BD4FF47F
S31500008F508174F9E7884A002037B50025AB6A0446D4
S31500008F60B3F5804F019113D21B6BB3F5804F0FD22F
S31500008F700948FFF725FEAB6A20461B6B01999B69E2
S31500008F80984704460448FFF7C9FE204603B030BDA3
S31500008F904FF48174F9E700BF884A002037B50025F1
S31500008FA0AB6A0446B3F5804F019113D21B6BB3F540
S31500008FB0804F0FD20948FFF703FEAB6A20461B6BB2
S31500008FC00199DB69984704460448FFF7A7FE204647
S31500008FD003B030BD4FF48174F9E700BF884A002022
S31500008FE037B50025AB6A0446B3F5804FCDE90021BD
S31500008FF012D21B6B83B10A48FFF7E2FDDDE90021BF
S31500009000AB6A20461B6B5B6A984704460448FFF729
S3150000901085FE204603B030BD4FF40174F9E700BF6A
S31500009020884A002037B50025AB6A0446B3F5804F61
S31500009030019113D21B6BB3F5804F0FD20948FFF78E
S31500009040BFFDAB6A20461B6B01999B6A9847044695
S315000090500448FFF763FE204603B030BD4FF40174A9
S31500009060F9E700BF884A0020F0B50027BB6A04462E
S31500009070B3F5804F0D461646ADF50F7D20D21B6B1E
S31500009080B3F5804F1CD21048FFF79AFDBB6A204605
S315000090901B6B4FF40E7269465B6A9847044630B103
S315000090A00948FFF73BFE20460DF50F7DF0BD836AAC
S315000090B032461B6B29466846DB6A98470446EFE74B
S315000090C04FF40174EFE700BF884A002010B5002472
S315000090D0A36AB3F5804F10D21B6BB3F5804F0CD249
S315000090E00748FFF76DFDA36A1B6B1B6B9847044689
S315000090F00348FFF713FE204610BD0124FBE700BF1F
S31500009100884A002037B50025AB6A0446B3F5804F80
S31500009110CDE9002114D21B6BB3F5804F10D20A485B
S31500009120FFF74EFDDDE90021AB6A20461B6B5B6B4A
S31500009130984704460448FFF7F1FD204603B030BDCA
S3150000914040F20114F9E700BF884A002037B5002530
S31500009150AB6A0446B3F5804FCDE9002114D21B6BF0
S31500009160B3F5804F10D20A48FFF72AFDDDE900214A
S31500009170AB6A20461B6B9B6B984704460448FFF777
S31500009180CDFD204603B030BD40F20114F9E700BF23
S31500009190884A00201FB500239A6AB2F5804F04D38F
S315000091A040F2011005B05DF804FB126BB2F5804F7A
S315000091B0F6D2012201A8CDE902338DF80420FFF78B
S315000091C0C3FC039BDB03EBD5029B1A0EE8D0012AF6
S315000091D003D1C3F307430A2BE2D900239B6A1B6B17
S315000091E01B6C9847DEE7000037B50025AB6A0446DE
S315000091F0B3F5804F019113D21B6BB3F5804F0FD29D
S315000092000948FFF7DDFCAB6A20461B6B0199DB6B57
S31500009210984704460448FFF781FD204603B030BD59
S3150000922040F20114F9E700BF884A002000230360DA
S31500009230704703680B6001607047000005490A68C3
S315000092401318054883428CBF4FF0FF320B6010465F
S31500009250704700BF2C12002000800120FEE70000AE
S3150000926008B500F02DF8124B12498B4212D300209C
S31500009270114B12498B4218D3FAF780FF186850F841
S315000092802240586840F82240013298688242F5D35D
S315000092900C33EAE70022F8E71C6844F822000132A2
S315000092A05C68A242F8D30833E4E70022F8E700BF7F
S315000092B0086C0400146C0400146C0400146C0400A4
S315000092C06FF00100104B114A10B59A60D3F8882050
S315000092D00F4942F47002C3F8882001F50052106667
S315000092E041F2FF7050660220C3F8D000BFF34F8FE3
S315000092F0BFF36F8F08244FF440330648C0F880410F
S31500009300D36004600B6110BD00ED00E0004000007A
S315000093100080004400E100E0014B1868704700BF80
S3150000932034120020014B1860704700BF3412002031
S31500009330084B1B6F03F00703022B04D0032B05D049
S31500009340012B05D0FEE7044B18687047034BFBE77B
S315000093500348704700800050341200203812002065
S31500009360002D310108B5FFF7E3FF054B1B6FC3F373
S3150000937001330133B0FBF3F0024B186008BD00BFA8
S3150000938000800050301200200048704700B4C4042A
S31500009390014B1868704700BF38120020054B186053
S315000093A0054B1B6F03F00703032B01D1FFF7DABF51
S315000093B0704700BF38120020008000500020704720
S315000093C000487047002D3101174B9868C0F30440E0
S315000093D00C2822D8DFE800F00921212121210717D6
S315000093E019211B1D1F00114870479B6803F040732D
S315000093F0B3F1807F13D0B3F1007F12D00C4A002B5B
S3150000940008BF104670470B4870470B4870470B481B
S3150000941070470B4870470B487047002070470A4852
S3150000942070470A48704700BF0040015A405DC600B9
S3150000943000093D000024F400C0EA210180BA8C0135
S315000094400048E801005A620280841E0040420F0074
S315000094504FF4004070474FF47A707047014B18681C
S31500009460704700BF3C12002038B5124B05461B78EA
S31500009470DBB1E0B101F069F80F4A00231146147B15
S3150000948054B92B6001251A0101EB03131D738C508F
S3150000949001F061F8204638BD0133082B02F11002B5
S315000094A0EDD101F058F80548F5E70548F3E705481A
S315000094B0F1E700BF144C0020944A0020048000F01D
S315000094C0028000F0018000F0154B13B518680023E8
S315000094D001908DF8043001F038F8124B1C7824B155
S315000094E001F039F8104802B010BD01221A7001F0DF
S315000094F032F80E4B01A81C731C7783F82C4083F8B6
S315000095003C4083F84C4083F85C4083F86C4083F819
