:100000008010002019240000D30800007D010000AA
:100010005F0C0000970C0000671A00000000000051
:100020000000000000000000400000006F1A000007
:10003000A31E000074000000C31E0000F71E000095
:1000400007B0CD5E0100000002000901402400005D
:100050000040000000001000F10001002903000032
:100060002D030000E9040000FB1900002D1A000018
:100070001401000013B779FAC925DDB7ADF3CFE05D
:10008000F1B614B801010000000000003C2400009B
:100090004000000002000901000000000000000014
:1000A0000000000000000000000000000000000050
:1000B00000000000454652333200000001000000FD
:1000C000020000000040080000E0060000200F00D1
:1000D0000040000080000000000000000000000060
:1000E0000000000000000000000000000000000010
:1000F0000000000000000000000000000000000000
:1001000000000000000000000000000000000000EF
:100110000000000000010000D50800002B090000CD
:100120005909000077090000BD090000B708000068
:100130009D080000CD080000DD090000050A000050
:10014000610A0000D9070000E30700000108000071
:100150003508000030B5084B01241C6000255D60A7
:10016000DA609C6002E010F8014BDC610A46511E27
:10017000002AF8D1186A30BD048008404FF401709D
:1001800000F096B880B5684600F0C0F83E48816A35
:10019000CA0311D441686FF3162141F4B81141F438
:1001A00005414160016821F4704141F44041016022
:1001B000026842F4E06202609DF80100012804BF79
:1001C0009DF80000002807D14FF0005106200A6872
:1001D00001F58041401EFAD100F0A6F800F063F866
:1001E00000F0A6F848B940F2012000F061F84FF4A1
:1001F000017000F05DF8002002BD244901E0009983
:10020000491E009100990129F9DA40F20542904215
:10021000EDD140F20320ECE71D4838B50168012418
:1002200001254A060CD500F05DF840F20221401A83
:1002300004D0C01E02D0C01E012801D80024002511
:1002400044F20400016811F1010F06D14FF402706D
:10025000BDE8324000F020B831BD2DB14FF48040F0
:1002600000F042F90400F1D0002CF5D04FF48040AA
:100270000849086002461046016881F3088881F346
:10028000098840688746FEE730C0004000350C0012
:100290009440004008ED00E04FF0005108804FF21C
:1002A0000F00488070474CF23C300B490880704783
:1002B0004FF0005108804FF20F004880BFF34F8F7E
:1002C00006490A68064802F4E06202430A60BFF386
:1002D0004F8F00BFFDE70000020000200CED00E0A2
:1002E0000400FA054FF0005148884FF20F02904287
:1002F00001D108887047002804BF0888012802D16E
:1003000040F2022070474FF40070704705490968B9
:100310008A0902F03F0201F03F0382704370090B2B
:100320000170704714C0074000F054BA00F0A6BA3C
:1003300038B500BF2FA3D3E90045E2B00221CDE9D3
:100340000045684600F0AAFA00284FD100245DF865
:10035000243013F1010F46D04FF4C07202A91846A1
:1003600000F03CFB002102A800F04CFB40F2012110
:100370008842F7D040F20322904232D19DF8080023
:1003800000F0030002282CD09DF8080041070BD58F
:100390000C9800F055F938B15E9800F0C7FB18B121
:1003A0004FF4004000F07CF99DF8080081070FD55C
:1003B00028200268039993688B4209D25E9800F066
:1003C000C9FB70B14FF400400B9900F001F908E04F
:1003D0009DF80800C10704D505995E9800F0DCFB84
:1003E00030B940F20540641C012CB0D963B030BD77
:1003F0000020FBE7FFFFFFFF00000000F8B5044608
:10040000600B0D461646B4EB403004BF204600F0AA
:10041000FBFB04F500577F0B7F0304E0384600F038
:10042000F3FB07F5005730198742F7D332462946C8
:100430002046BDE8F84000F0F5BB38B504460D464F
:1004400000F03AF850B16069012802D1207C0228FE
:1004500001D3002032BDA069286000E02C6001209B
:1004600032BD38B528231B681C69A04222BF5B69D6
:100470001518AB4202D3BDE83840BFE731BDF8B52F
:1004800004460D4616464FF400402718F0199949C6
:10049000884210D24CB94FF40040282109684A69BB
:1004A00090423CBF086900F0AFFB3246294638460F
:1004B000BDE8F840A2E7F1BD7FB504464FEA0D0064
:1004C00094A1102200F0CCFB002046420DEB060563
:1004D000E97B225C914205D1401C1028F5D3012014
:1004E00004B070BD0020FBE758B504462268824B7B
:1004F000606802F16042616B9A422CD22822136834
:100500001A69904227D37B4B984224D240320E4640
:10051000914201D3994205D30020C046401E80413C
:10052000C00F52BD0020C046B8B93046FFF7C4FF27
:10053000B8B1307C02280ED2706990B102280CD17B
:10054000B0694FF0FF32001D011B2046FFF702FE8D
:100550006A49884205D0002052BD2046BDE852407D
:1005600001E0012052BD30B504469DB0606B01A989
:10057000FFF763FF50B328210A6801981369984276
:1005800028BFA04203D301465A48814201D300202C
:100590001CE002A800F070FB01982146021B02A893
:1005A00000F074FB02A800F073FB019C00F07FFBDD
:1005B000054600F071FB0199203403460095224660
:1005C00002A800F08FFB401E8041C00F1DB030BD5F
:1005D00070B590B004460D464FF0FF32FFF7BAFDFC
:1005E000464B984213D168464EA100F055F800F0F2
:1005F0008DF8294600F08BF8684600F039FC404E33
:100600003068C002FCD5306910F4702F02D0002091
:1006100010B070BD40F20220FFF73EFE0DF1200049
:1006200048A100F039F800F06DF8294600F06BF8A9
:1006300008A800F01DFC3068C002FCD53169E6E76F
:100640002DE9F8438CB004464FF0FF35009504A81F
:1006500044A100F021F800BF4AA696E8800301AD4E
:1006600001A985E88003CDF804D004A800F0ECFBD4
:1006700004A800F0FDFB22480168C902FCD500690E
:1006800010F4702F18BF002003D10098A0428041C1
:10069000C00F0DB0BDE8F083202200F0E1BA0000E9
:1006A00038B590B00446684639A1FFF7F5FF00F071
:1006B0002DF8684600F0DCFB114D2868C002FCD51F
:1006C000286910F4702F11D140F20220FFF7E4FDE9
:1006D0000DF1200036A1FFF7DFFF00F013F808A8A6
:1006E00000F0C6FB2868C002FCD52969002011B0C3
:1006F00030BD00000100100001800100E320BBDEDE
:100700004400004C214608A800F0A8BB21466846DA
:1007100000F0A4BBB814B6F1E0CFF3ADB7DD25C946
:10072000FA79B71301000543000000000000000043
:1007300000000000000000000000000000000000B9
:10074000000000000100064300000000000000005F
:100750000000000000000000000000000000000099
:10076000000000000000084300000000000000003E
:100770000000000000000000000000000000000079
:100780000000000000000000010000000400002044
:100790000000024300000000000000000000000014
:1007A0000000000000000000000000000000000049
:1007B00000000343000000000000000000000000F3
:1007C0000000000000000000000000000000000029
:1007D0002BA07047002070472648006800F00100F9
:1007E000704710B50B461118234CA14205D20146A3
:1007F000184600F035FA002010BD40F2024010BD4E
:1008000038B513181C4D40F20244AB4210D20023FD
:1008100000E01B1D934206D21D5815F1010FF8D0C0
:1008200040F2034032BD00F0FDF908B1002032BDB6
:10083000204632BD70B505460C46E00401D1E904FE
:1008400002D040F2044070BD60190B4940F20246EC
:10085000884209D2284600F0D7F905F50055B4F5CD
:10086000005403D00028F5D1304670BD0028FBD0DD
:10087000002070BD1C0003400100100000207047E4
:1008800001020300280000002800000000200000F2
:1008900000001000B400000004000000002202600C
:1008A00001224FF0FF3302E040F82230521C8A420E
:1008B000FAD3002070470068002818BF10F1010F1C
:1008C00002D040F2045070470020704740F20250BE
:1008D0007047FEE710B504000CD04FF48030206064
:1008E000002161603C48027822724068E060FFF7B6
:1008F0006FFF206110BD78B504460D4604F5B8764B
:10090000A1B0B1683068802301AA00F025F80095F5
:10091000802301AA214604F12C0000F077FCF0604E
:10092000B0688030B06022B070BD024640F2014035
:10093000002900D1704710B5274B5C68A24203D351
:1009400000220A604A6010BD03EBC20082680A60A0
:10095000C0684860002010BD38B500F021F800D311
:1009600026E000F017F800D225E09B68C018BDE82B
:100970003840FFF736BF38B500F012F800D317E063
:1009800000F008F800D216E09B68C018BDE83840B7
:10099000FFF736BF03EBC403DC681518AC427047A1
:1009A0000446084611461A460B4B5D68AC42704738
:1009B00040F2014032BD40F2024032BD06494A6871
:1009C000904202D340F20140704701EBC000C16881
:1009D0008068FFF72FBF0000BC0000003EB5044652
:1009E0000D461146284601F008F850B969462046E0
:1009F000FFF79BFF28B905F5B870046001994160C5
:100A000000203EBD38B584B004460D46684610212E
:100A100001F02AF8029504F5BA75A86888B96868E3
:100A2000296888420DD269462046FFF764FFA8680E
:100A300000281CBF41F2070188420BD140F201207F
:100A400008E0A07800281DBFE078002840F20320CD
:100A500040F2022005B030BD012018707047000040
:100A6000F0B585B004460D46164600278DF8007097
:100A70000DF1040052A100F084F8CDF804D03760E5
:100A80001C21284600F0F0FF04F5BA779DF800001D
:100A900080B994F8720013280CD0B86850B97868FF
:100AA0003968884206D201A92046FFF724FFEDE706
:100AB00005B0F0BD2078810744BF606830602178C0
:100AC000C80705D51C2204F10801284600F0C8F823
:100AD0009DF80010002905BF20780028002040F272
:100AE0000640E5E770B504460D46202304F5827202
:100AF00004F1BC0104F12C0000F04DFB04F5BA76C2
:100B0000B06850B970683168884206D229462046DC
:100B1000FFF7F1FEF4E7002070BDA07800281CBFAD
:100B2000E0780028F7D0012070BD000080B5E4B067
:100B300000F02AF808B1002009E004208DF8110027
:100B40004FEA0D0022A100F01CF800F021F865B07A
:100B500000BD000010B5E4B0282213689C688C42E8
:100B600002D200F011F808B1002008E002208DF850
:100B7000110068461AA100F004F800F009F864B00A
:100B800010BD102200F06CB84FF4C07204A925E724
:100B9000694604A8A6E7000080B5E4B0FFF7F4FFBB
:100BA00008B1002009E001208DF811004FEA0D0086
:100BB0000FA1FFF7E6FFFFF7EBFF65B000BD0000F8
:100BC00000000000590A0000590A0000590A0000FC
:100BD0000000000000000000000000007F04000092
:100BE0000000000000000000000000007F04000082
:100BF000000000006304000000000000000000008E
:100C000000F07ABF00F080BF10B50446FFF7F8FF90
:100C1000204600F084FF0446FFF7F4FF601E804189
:100C2000C00F10BD70B50546144615F0030F0E46F3
:100C300008BF14F0030F01D0002070BD0CB90120D3
:100C400070BDFFF7DDFF22463146284600F087FFE2
:100C50000446FFF7D7FF601E8041C00F70BDFEE75E
:100C60004AB1000011F8013B521E00F8013B1CBFC5
:100C700011F8013BF8E7704710B5044601F06AF837
:100C800020460021BDE8104001F094B801F094B86E
:100C9000014601F092B8FEE780B590B000F012F87E
:100CA000B0F5A02F11B00CBF0B48002000BD80B5DF
:100CB00090B000F007F8B0F5A02F11B00CBF0748B6
:100CC000002000BD0023402269464FF4807000F0F0
:100CD000EEB80348704700004CE30F006CE30F00D0
:100CE00086E20F002DE9F04F5FEA00080E4697B04C
:100CF00017461D4618BF002E00D017B940F20160FC
:100D00005DE0209C002D0FA833A116BF002CDFF85A
:100D1000B490DFF8B4902022FFF7A2FF49460FA855
:100D200000F09CF820210FA800F098F832A292E879
:100D300008500CA9002D81E808500C9531A191E8CC
:100D4000010C0DF1240918BF002C89E8010C09944D
:100D500005D00CA900F03CF809A900F039F800BF53
:100D60002BA191E81C0006A806A980E81C00CDF87C
:100D7000188000F02DF800BF28A191E81C0003A8FE
:100D80006D4680E81C00039627A696E8004303A959
:100D90000FA885E80043009700F04CF8694600F082
:100DA00017F80FA800F064F808480168C902FCD5DC
:100DB000006910F4702F0CBF002040F2046017B0DF
:100DC000BDE8F08F1F24FC841F2400804400004CE9
:100DD0000FA800F02FB8000000000106000000007E
:100DE0000000000000000000000000000000000003
:100DF00000000000000000000000000001000000F2
:100E00002000002000000000010000002000002061
:100E10000000000001000000200000200000000091
:100E20000100000020000020000000000100000080
:100E300020000020426812B9416070475268506833
:100E40000128FBD151607047826812B981607047F8
:100E5000526850680128FBD151607047C269042A6A
:100E600005D200EB8202D160C169491CC1617047A3
:100E7000C169042900D9704710B54FF098410A6C38
:100E8000D302FAD5C269121D92000A6502680A608F
:100E900043680B6082680A60002204E000EB820372
:100EA000DC68521C0C60C3699A42F7D310BD002B5A
:100EB0002DE9F84E8BB0074614BF154D154D0E4663
:100EC000144603A8202100F0CFFD0FF250002F435D
:100ED00090E8000E03976F4687E8000E009644F0F6
:100EE00000540294694603A8FFF7AEFF03A8FFF77A
:100EF000BFFF00F006F80CB000F47020BDE8F08EE3
:100F0000000005480168C902FCD50069704700006F
:100F100001000AFF010008FF4400004C000000002F
:100F200001000000000000002DE9F8431E46736830
:100F3000002B4ED00C4614F0030118BF41F2020002
:100F400048D11546074600F06DFF396E001D6A183E
:100F5000824221D300F1180399421DD28C46844568
:100F600005EB010800F1180238BF84469045ACEB50
:100F70000101ACEB000088BF904604EB0109A8EB2F
:100F80000C083844424649466830FFF769FEFF22A4
:100F90004146484600F04AFF4FF40040396E001DBC
:100FA000884222BF6A18031D9A4209D3411A601869
:100FB000026807F180010A60FF22042100F036FF79
:100FC00021463368386E74682A46A047386E2D185B
:100FD0003D660020BDE8F28370B54B688C689C428A
:100FE00006D200F140021B1B14781B19412B01D3C0
:100FF000002070BD0D6853781478E4188B6804F0F5
:101000003F04EE5C06558C68641C8C6013785B1C96
:1010100013708C684B689C42ECD3012070BD90F833
:1010200040004A6889681018401A70472DE9F0415D
:101030000C4617461D468046FFF7F1FF08F14006B3
:10104000A84206D221464046FFF7C6FF10B3002053
:101050004DE000210CE0707818F800207A54737885
:101060003078491C5B1C03F03F03421E73703270E2
:10107000307808B1A942EED3A0686268904238BFC8
:10108000A9420CD22368185C7854A268491C521CEF
:10109000A260F1E71420B07141F2020027E0A942FA
:1010A000F8D1B26C069C29463846FFF753F8B06475
:1010B00024B1F0682A463946FFF7E8FD079838B1B1
:1010C000F07878B1B0682B463A46394600F0DAFE3F
:1010D000F07838B1B169F06928188842F06124BF0E
:1010E0000020F07070692D18756141F20300BDE8B1
:1010F000F081F8B584B014460026054601960096A6
:10110000082302AAFFF792FF41F20306B0423BD147
:1011100095F8430005F1480738B100F037F8386812
:10112000082302AA02A900F0ADFE9DF80A209DF84E
:101130000B009DF80910120442EA00629DF80800B5
:1011400042EA0122024322609DF80E009DF80F1032
:1011500000F049FC9DF80D1040EA01209DF80C10AC
:101160000843606095F8430048B9DFF824188A42C4
:101170001CBFDFF82008824201D000F007F8606849
:101180000021F960B860304605B0F0BD78680822EB
:1011900002A9FFF77BBDF8B5064606F1400700201F
:1011A0000D46B8717870F870387100214FF0FF303B
:1011B00014463970797103F02003B864396279629A
:1011C000BB70FF22182106F1680000F02FFEFF22FD
:1011D000042106F1800000F029FEFF22042106F11F
:1011E000840000F023FEBD60FC600020C04600B11A
:1011F0001DB10120C04618B114B941F20B00F2BD77
:1012000014B1F868FFF738FD0020F2BD2DE9FB4F5F
:1012100082460021002300249AB005A880E81A0025
:1012200005921C9A269D099106920AF148060AF138
:10123000420710E000F0C6FB0899884235D10498B7
:101240000021F160B0600398DFF84C17884240F04D
:101250003F8102223A7107981C99884280F0DD8212
:1012600041F20302089239790DF128081429F2D8C5
:10127000DFE811F016001700D7022E0169036B0397
:10128000F10250016B034B016B0316036B034B011F
:101290002E02D0026E03A402A702DF01D002DAE719
:1012A000C8E700F08FFB0899884240F0B782B87811
:1012B00020B10398DFF8DC16884246E03A78D1077F
:1012C0004DD5787800284AD10398DFF8CC168842AB
:1012D0001CBFDFF8C816884225D0DFF8C416884244
:1012E0001FBFDFF8C0168842DFF8BC1688421AD04C
:1012F000DFF8B816884222D0DFF8941688426BD007
:10130000DFF8AC16884213D0DFF8A81688420DD05B
:10131000DFF88016884215D0DFF89C1688421CBF83
:10132000DFF89816884200F0D38010E0102291E791
:1013300011203871B1680020706131618BE7142190
:1013400039716CE00120C046002843D13EE01420F2
:10135000387103A80020C046002860D005E3039838
:10136000DFF8381688421CD0DFF8341688421DD0CA
:10137000DFF83016884216D0DFF82C16884218D0D5
:10138000DFF80C16884223D0DFF80816884216D002
:10139000DFF82416884210D0DFF8201688420AD0E1
:1013A0001CE00B2256E70420387154E706213971FE
:1013B00051E70720F8E70921F9E70D20F4E70120BC
:1013C000C046002804BF7878002803D10E21EEE73C
:1013D0007878002840F07C801221E8E703A80020FC
:1013E000C046A8B103981321706439710398002096
:1013F000C046099038788106DAD5099800281CBFC4
:1014000041680029D4D0504688470028D0D0ACE2AB
:1014100078781421397110B141F20400FEE141F2F3
:101420000800FBE198F8050098F8041041EA002153
:101430000291C90704D5387840F00100387002E005
:101440000020C04640B90120C046002800F0EB81D2
:101450000298C10500F1E7811420387141F20A00B9
:10146000DCE1F9780520387141F00101F9700020C4
:10147000F061F068082880F07482012101910091E8
:1014800000F0B5FA08998842EAD1207840F00200CD
:10149000207098F8020098F803109DF8282000F0BA
:1014A000A2FA98F8011040EA012010436060B06889
:1014B0000838606298F8060098F8071098F8042039
:1014C00000F091FA98F8051040EA01201043C8D0C6
:1014D0001420387149E2012000F07DFA0899884211
:1014E000BED198F8021098F803009DF8282009044E
:1014F00041EA006198F8010041EA0021114302919C
:10150000B068052824BF0298B061F0680428E2D3CF
:101510000A214CE70020F061082148E72B68424689
:101520000AA9F069E047F0694044F061B068F168E9
:10153000814280F01382A0EB0108B8F1040F05A9E5
:10154000504608D3FFF76BFD042808D205A9504682
:10155000FFF742FD61E1FFF762FD4045F6D3B8F1C8
:10156000410F05A9504628BF4FF04008FFF757FD2F
:10157000404502D200F02BFA8046B8F1040F0AAAC7
:1015800005A924BF4FEA98004FEA80080120019086
:101590000090434600F024FA0899884240F03E81CA
:1015A0003879082804D1D5F808C0BCF1000FB5D1AE
:1015B000C8F1040BB8F1040F06D20AA8FF2259465D
:1015C000404400F033FCD84439790A2906D12B462F
:1015D00042460AA95046FFF7A7FCA7E7052918D1FC
:1015E00099F80100820714D5E86890B1F0690528E0
:1015F00018D208EB0001072914D30AA9091D081AFB
:1016000001680AF184021160FF22042100F00EFC3F
:1016100008E00C298AD199F80100410786D5E868CD
:10162000002883D02B6842460AA9F069D5F80CC07F
:1016300078E73978880640F19681706C0020C046C2
:101640000990002840F08F818FE14FF0010900F0F0
:10165000BEF9484582D3B068F168A0EB0109B9F141
:10166000410F05A9504628BF4FF04009FFF7D7FCAE
:10167000814502D300F0ABF9814601200190009032
:101680004B4600F0ABF9089988422FD13878810693
:101690000DD5002C1CBFD4F808C0BCF1000FD3D06E
:1016A0002B464A460AA95046E04700281ED1F0685A
:1016B000B168884280F05C8138788106C5D5002CFD
:1016C0001CBF21690029C0D0504688478146BEE72B
:1016D000002000F080F90899884207D1306CB849A1
:1016E000884204D014223A7141F2050096E00120AC
:1016F000C04618B91B990120C87003E01B99C8782F
:1017000000283FD0F87810F0030F1CBFEC68002CC5
:1017100005D02B6804220AF184010420A047B06997
:1017200000281CBF686800282CD04FF0FF310291C0
:101730000AF180040422214602A800F0B3FB40B164
:101740004FF4004028B121462B686C680422001D2C
:10175000A04704220AF1680102A800F0A3FB88B1A7
:1017600000F060FB2B686C6814220AF16C010830F1
:10177000A04700F057FB2B686C6804220AF168014F
:10178000001DA0471B99012088700F20387144E08C
:101790000020012101900091102300F01FF9089909
:1017A00088423BD1FFF795FA009080210191306883
:1017B00001230BAA022100F042FBCBE0012078704C
:1017C00026E0B87820BB002101910090402300F072
:1017D00005F90899884221D17068FFF759FAFFF797
:1017E00066FA0446FFF758FA00940346706812AA96
:1017F0000AA9FFF777FA38B11B990020C8701420A6
:10180000387141F2060009E01B990120C870B870D8
:101810000121CCE541F2070000E000201DB0BDE849
:10182000F08FDDF86C90F068082819D200210120B3
:101830000191009000F0DBF808998842EED198F809
:1018400003000006B0F1407F3FF4ECAD1420387186
:1018500041F20900E2E7DDF86C90B368F068984265
:101860007CD201210191009100F0B8F808998842DA
:10187000D4D11C220AA909F10800FFF7F1F999F85F
:10188000000040F0010089F8000009F10800012083
:10189000C0460028E1D11420387141F20C00BDE7A8
:1018A0001B9CF06808285CD201210191009108235B
:1018B0000CAA00F094F808998842AFD1207840F043
:1018C0000400207098F80E0098F80F1098F80C207B
:1018D00000F089F898F80D1040EA01201043A0624A
:1018E000607841072CD5EB208DF82800A620172121
:1018F00088F8020088F801100AF150005E2188F88B
:10190000031002680AF184010A600022F261F8788B
:1019100040F00200F870D5F80CC0BCF1000F0FD0F9
:101920002B6804220AA90020E047F0692B68D5F84B
:101930000CC008220CA90830E047F0691030F061B3
:101940000C203871ADE71B9C93E5DDF86C90EDE55C
:10195000DDF86C90F0681028FFF41AAFCDF86C90A9
:1019600056E71B9477E4099CA1E641F2010055E794
:10197000099438788106F3D5002C1CBFE268002A50
:1019800004D02946504690470028F0D140E7000097
:10199000F70A0AF7FC0404FCEB17A603EB17A65E94
:1019A000F40A0AF4F50909F5F60808F6F70909F743
:1019B000F90707F9FA0606FAFD0303FDFE0101FE29
:1019C000E320BBDE03AA05A95046FFF792BB05A999
:1019D0005046FFF724BB0190009004230AAA05A9F2
:1019E0005046FFF723BB000440EA0160704708231C
:1019F0000AAA05A95046FFF719BB10B50446B1F570
:101A0000C07F02D240F2052010BD4FF4C07100F03B
:101A10002BF80020607004F5827204F1BC0104F11F
:101A20002C000023BDE81040FFF7B5BB1CB50446F1
:101A30000091214604F12C00FFF7E8FB0028C4F8D0
:101A40007C011CBF41F2070188420BD1A07838B15C
:101A5000E07810B140F2032016BD40F2022016BD1E
:101A600040F2012016BDFEE7002200F02BBAFEE78F
:101A700010B5524A524C534B1B68234207D10340C6
:101A80008B420DD0521EF6D16FF0020010BD4E48B1
:101A9000034202D06FF0010010BD4FF0FF3010BDC7
:101AA000002010BD70B5494D6860E8680E464107DA
:101AB00002D54FF0FF3070BD56F8040B141F02E042
:101AC00056F8040B241FA86044B108210820FFF732
:101AD000CFFF0100F4D00421296070BD04202860EC
:101AE00000212120FFF7C4FF010004D100212120A3
:101AF000BDE87040BCE770BD41F671303449086004
:101B00000122344B1A60704710B5314841F67131EB
:101B1000016001222F4B1A600024046010BD70B5D3
:101B200041F67131294C01222B4BE568E1621A60C4
:101B3000606002262660002121202D0CFFF798FF0F
:101B400005F00105010003D100212120FFF790FFDE
:101B50000121204A11600DB10021E16270BD2DE923
:101B6000F843184F3D688946144641F67131804666
:101B70002D0C39620122184B002005F001051A6076
:101B800002E0B044B144A41B7CB108F50056760BCA
:101B90007603A6EB0806B4424946404638BF2646BF
:101BA0003246FFF77FFF0100EBD00121094A1160A7
:101BB0000DB100213962BDE8F283000080969800E3
:101BC000060001001C000340020001001000034059
:101BD0003C0003400C2003400C1003402DE9F84F5B
:101BE000834602281FD8140055D00B9A9846D2F885
:101BF00000C0BCF13F0F18D85068002818BF5FEA3A
:101C0000080A13D1BBF1000F04D0BBF1020F07D0BB
:101C100003D308E00FF2AC1A08E00FF2C81A05E08F
:101C20000FF2E01A02E0494836E0C2460CF03F06E7
:101C3000A444C6F14005C2F800C0A44502D25068D1
:101C4000401C506089460A9F8EB1AC420FD32A4691
:101C5000B819FFF705F80120009043463A4651466F
:101C6000584600F049F9C246A944641B00263F2C9F
:101C70000BD9A509009543464A465146584600F0FF
:101C80003BF909EB8519A4EB851424B1224649469A
:101C9000B819FEF7E5FF0020BDE8F28F2DE9F0410D
:101CA000044686B0884616461D46200003D0022C06
:101CB00030D02DD330E01427002100200DF1080C86
:101CC00055F8203042429200D21D01EBC3010CF8BE
:101CD000021002A9114455F82020C91E52098A7029
:101CE00055F82020520B4A7055F82020520D0A70EA
:101CF00055F82010401C490F0128E1D92A7802F03C
:101D00003F02382A34BFC2F13802C2F1780205E03E
:101D10001C27D1E72027CFE70C4814E00195009657
:101D200043460B492046FFF759FF0195009643466D
:101D3000082202A92046FFF751FF0C983A46414677
:101D4000FEF78EFF002006B0BDE8F08180AFFFFFF8
:101D5000D400000000281CBF6C21FFF785BE70472F
:101D60000022002902604260CCBF0121002180F8DE
:101D70006810002070473EB590F86830019000F17F
:101D80002805002B00F10803009514BF012402244C
:101D90002046FFF723FF3EBD80B5034693F8680059
:101DA000009103F12802002803F1080114BF01206B
:101DB000022003E0D4E70000DDE7EDE7FFF76EFF68
:101DC00002BD000067452301EFCDAB8998BADCFE68
:101DD00010325476C3D2E1F0000000000000000091
:101DE00000000000C1059ED8367CD5073070DD1795
:101DF000F70E5939FFC00B316858151164F98FA7D8
:101E0000BEFA4FA46A09E667BB67AE853C6EF37203
:101E1000A54FF53A510E527F9B05688C1F83D9ABB5
:101E20005BE0CD1928200168086970474018491CFB
:101E30001CBFB1F1010100F8012DF9D170472DE966
:101E4000F84380460E4691461C46089D099F00F0C7
:101E5000F7F829463A46404600F0F8F808F1240021
:101E60000021016006750C22494608F13900FEF791
:101E7000F7FE08F14500210C220A017042708470BF
:101E8000BDE8F1833EB51C460292019100F12805A0
:101E9000009500F1380300F12402214600F068F9B2
:101EA00037BDFEE703000020521E22BF13F8010BCE
:101EB00011F801CBB0EB0C00F6D0521C08BF104655
:101EC0007047FEE700B500BF1300964694461039F0
:101ED00028BFA0E80C50FAD85FEA417C28BF0CC0AC
:101EE00048BF40F8042BC90728BF20F8022B48BF81
:101EF00000F8012B00BDFEE72DE9F84791B006463A
:101F00000D4691461F461A9C0DF124003BA120224C
:101F1000FEF7A6FE41A393E807000DF1180A03ABF4
:101F20008AE80700CDF818903FA090E8004600BF6F
:101F300040A2694683E80046039592E8280181E8BB
:101F4000280100971EB1022E33D021D336E0099824
:101F5000A10140F40070099009A8FEF77FFF00F08E
:101F600047F840F014000590029840F014000290E9
:101F700003A909A8FEF75EFF06A909A8FEF75AFF04
:101F8000694609A8FEF760FF0020C046C0B126E000
:101F90000998A10140F44070099009A8FEF75EFF7E
:101FA00000F026F840F020000590029840F0200054
:101FB000DDE70998A10140F48060EDE709480EE0F3
:101FC00009A8FEF755FF08480168C902FCD5046955
:101FD0000020C04614F4702F0CBF0020034812B03C
:101FE000BDE8F08780AFFFFF4400004C80ADFFFFED
:101FF000089840EA8414089405987047000001038B
:1020000000000000000000000000000000000000D0
:1020100000000000000000000000000000000000C0
:10202000010000000000002000000000010000008E
:10203000000000200000000001000000000000205F
:1020400000281CBF2421FFF70FBD704770B50500A5
:102050000C46164618BF002C02D16FF0210070BD4F
:102060002421FFF701FD802E1CBFC02EB6F5807F16
:1020700002D06FF01F0070BD2E60F2082146281DAF
:10208000FEF7EEFD002070BD2DE9F847060014466E
:1020900091B00F461D4618BF002C00D015B96FF047
:1020A000210055E03068802818BFC02805D0B0F561
:1020B000807F18BF6FF01F004AD109A82021FFF7C9
:1020C000D3FC012F0FF25C2191E88C000CBFDFF8EC
:1020D0004802DFF848020990684680E88C00301D0D
:1020E000009030680FF2482206A9C00840F0005066
:1020F000029092E8884009A881E888400FF23C21CC
:10210000069491E8000703AC694684E8000703954C
:10211000FEF790FE06A909A8FEF78CFE03A909A800
:10212000FEF792FE316809A800F01EF8102109A8F8
:10213000FEF794FE0020C04650B909A8FEF798FEAD
:1021400000F009F804F47024002C0CBF0020204695
:1021500012B0BDE8F087DFF8C8010168C902FCD5FC
:10216000046900F01FB911A8C908FEF777BE000086
:10217000002A2DE9F64F99B014BF146800240026F8
:10218000002800904FF0000A1FBFDDF89480B8F1DE
:10219000000FDDF89890B9F1000F04D01D001CBFAE
:1021A000249F002F02D16FF0210096E0006801917A
:1021B00080281CBFC028B0F5807F04D06FF01F00BE
:1021C0008BE000F08DF80198824580F07F80002C34
:1021D000F7D1A0EB0A005FEA101B5DD062A611A840
:1021E00059A12022FEF73CFD96E80E0008A84FEA10
:1021F0000B1B80E80E000099081D089000990BA8A1
:102200000A680EA9D20842F000520A9259A292E836
:10221000484081E848400E9559A191E84C000DF1E5
:10222000140E80E84C000B9558A090E80E0008EBC7
:102230000A008EE80E0005904BF00051079100BF98
:1022400055A393E8414002AA09EB0A0382E8414002
:1022500000F056F80EA900F056F805A900F053F862
:1022600000F04AF80BA900F048F800980168FFF761
:102270007AFF594611A8FEF7F1FD0020C04600285C
:102280002BD111A8FEF7F4FD00F040F806690020FC
:10229000C046DA4406F47026F6B90198B0EB0A009D
:1022A00091D084B900983B462A460121FFF7ECFE05
:1022B000002041422944CA7B521CCA73D2B212B9CF
:1022C000401C0F28F5D900F00BF8E6E71A9800B18A
:1022D00004600EB9002000E030461BB0BDE8F08F6E
:1022E00018F80A10385D641C04F00F04414009F826
:1022F0000A100AF1010A704702A911A8FEF7A4BD4D
:102300000293049108A911A8FEF794BD044801683E
:10231000C902FCD57047000000010004000101045F
:102320004400004C0000000001000000000000001C
:10233000000000000100000010000020000000006C
:102340000100000010000020030300040000000052
:10235000000000000000000000000000000000007D
:10236000000000000000000000000000010000006C
:10237000000000000000000001000000100000202C
:10238000000000000100000010000020000000001C
:10239000010000000000000000000000010000003B
:1023A00000000000002070470148024908607047A3
:1023B0000000000008ED00E04EF68851CEF200016A
:1023C000086840F470000860BFF34F8FBFF36F8F51
:1023D0004FF00070E1EE100A704700000120C04687
:1023E000002801D0AFF30080AFF300800020AFF3EE
:1023F0000080FDF7C7FE00F000F800F001B8000013
:102400000746384600F002F8FBE7000020210903E8
:1024100026311820ABBEF9E780B5FFF7C5FFFDF701
:10242000FBFEBDE8014000F000B8AFF30080FFF70D
:10243000C3FFFFF7D3FF000000000000FFFFFFFF16
:10244000FFFFFFFFFFFFFFFFFFFFFFFFFFFFFFFF9C
:10245000FFFFFFFFFFFFFFFFFFFFFFFFFFFFFFFF8C
:10246000FFFFFFFFFFFFFFFFFFFFFFFFFFFFFFFF7C
:10247000FFFFFFFFFFFFFFFFFFFFFFFFFFFFFFFF6C
:10400000204C012029F3020049FE000045F1020086
:10401000A70A0A010042000004180FAC50673B01D8
:104020000000000000000000000000000000000090
:104030000000000010FD0200000000000000000071
:104040000000000000000000FFFFFFFFFFFFFFFF78
:10405000FFFFFFFF00600F002400010000000000D0
:10406000FFFFFFFFFFFFFFFF010000000000000057
:104070000000000000000000000000000000000040
:1040800000000000E87F0120E87F0120E87F012098
:10409000204C012068340300BAF30200C042012022
:1040A000BC0F002000E00F0000000000FFFFFFFF3A
:1040B000FFFFFFFFFFFFFFFFFFFFFFFFFFFFFFFF10
:1040C000FFFFFFFFFFFFFFFFFFFFFFFFFFFFFFFF00
:1040D000FFFFFFFFFFFFFFFFFFFFFFFFFFFFFFFFF0
:1040E000FFFFFFFFFFFFFFFFFFFFFFFFFFFFFFFFE0
:1040F000FFFFFFFFFFFFFFFFFFFFFFFFFFFFFFFFD0
:10410000FFFFFFFFFFFFFFFFFFFFFFFFFFFFFFFFBF
:10411000FFFFFFFFFFFFFFFFFFFFFFFFFFFFFFFFAF
:10412000FFFFFFFFFFFFFFFFFFFFFFFFFFFFFFFF9F
:10413000FFFFFFFFFFFFFFFFFFFFFFFFFFFFFFFF8F
:10414000FFFFFFFFFFFFFFFFFFFFFFFFFFFFFFFF7F
:10415000FFFFFFFFFFFFFFFFFFFFFFFFFFFFFFFF6F
:10416000FFFFFFFFFFFFFFFFFFFFFFFFFFFFFFFF5F
:10417000FFFFFFFFFFFFFFFFFFFFFFFFFFFFFFFF4F
:10418000FFFFFFFFFFFFFFFFFFFFFFFFFFFFFFFF3F
:10419000FFFFFFFFFFFFFFFFFFFFFFFFFFFFFFFF2F
:1041A000FFFFFFFFFFFFFFFFFFFFFFFFFFFFFFFF1F
:1041B000FFFFFFFFFFFFFFFFFFFFFFFFFFFFFFFF0F
:1041C000FFFFFFFFFFFFFFFFFFFFFFFFFFFFFFFFFF
:1041D000FFFFFFFFFFFFFFFFFFFFFFFFFFFFFFFFEF
:1041E000FFFFFFFFFFFFFFFFFFFFFFFFFFFFFFFFDF
:1041F000FFFFFFFFFFFFFFFFFFFFFFFFFFFFFFFFCF
:10420000204C012029F3020049FE000045F1020084
:10421000156B020049F102004DF1020000000000A0
:10422000000000000000000000000000B753000084
:1042300051F102001B460000F7600000276D0000EE
:1042400059F1020059F1020059F1020059F102003E
:1042500059F10200F56B02005373000059F102009E
:1042600059F1020059F10200C125010059F1020083
:1042700059F1020059F1020059F1020059F102000E
:1042800059F1020059F1020059F102000B720000CD
:1042900059F10200D5F0020059F1020059F1020073
:1042A00059F102006F4C0100614C010059F102000C
:1042B00059F1020059F1020059F102007FD40200C5
:1042C0003FD402003DD40200E5CE02007DD40200BE
:1042D00041D4020045D4020043D402005DF2020042
:1042E000B5D4020059F1020059F102000D6400003A
:1042F00059F1020059F1020059F10200AB750000BA
:1043000059F1020059F102008160020059F10200E6
:1043100059F1020059F1020059F1020059F102006D
:1043200059F1020059F1020059F1020059F102005D
:1043300059F10200102510B5484A484C494B1B68FA
:10434000234207D103408B420DD0521EF6D16FF0AD
:10435000020010BD4448034202D06FF0010C201649
:104360004FF0FF3010BD002010BD70B53F4D6860AC
:10437000E8680E46410702D518200870BD56F804BB
:104380000B141F02E008101D241FA86044B108216F
:104390000820FFF7CFFF0100F4D00421296070BD91
:1043A000042028600021211612C4162304D10C1009
:1043B00005BDE87040BCE77054301341F6713129F7
:1043C0004C0122294BE568E1621A606060022626F2
:1043D00030300B2D0CFFF7ABFF05F001050100039A
:1043E00036201CFFF7A3FF01211F4A11600DB10009
:1043F00021E16270BD2DE9F843174F3D68894614ED
:10440000464A200A80462D0C39620122154B0020B5
:104410003A10251A6002E0B044B144A41B7CB108F4
:10442000F50056760B7603A6EB0806B442494640E3
:104430004638BF26463246FFF792985003EBD0012C
:1044400021095A10113962BDE8F28380969800065E
:104450000001001C0003400208121008130C100495
:10446000000120034000000038B504460D46104608
:1044700000F0D9F800202070A847BDE8314000F0D6
:10448000E0B800224D494E48EEE700224D494E4823
:10449000EAE770B5044616460D46304600F0C8F807
:1044A000002020703046A847BDE8704000F0C9B831
:1044B000012246494648ECE7012246494648E8E7DA
:1044C000012246494648E4E7012246494648E0E7DA
:1044D00080B5012000F0E2F9444800F073F9444946
:1044E000087001BD80B500F0EDF9012805D0404805
:1044F0000078BDE8024000F050B901BDF0B50024DD
:1045000000E0641C3B4D2E88E3B2B3420ED2E7B20A
:104510000C256F43384B3B441E78864201BF5D88B3
:104520008D421E799642ECD11846F0BD0020F0BDB8
:1045300080B519B900F0B0F8002002BDB1F1004F0C
:1045400002D200F0B3F8F7E7022002BDB1F5000F88
:104550003CBF0902FFF7ECBF0220704770B505466B
:104560001E46FFF7CBFF04000ED0284600F0E6FC05
:1045700050B1A0683146FFF7DBFF28B904990598D0
:10458000A0716171002070BD022070BD1CB500F0EB
:1045900009F8012203E01CB500F004F80022FFF73F
:1045A000DDFF16BD9DF8104000931346019470473F
:1045B00080B500230093FFF7EEFF02BDAB010200C0
:1045C00084560120A9D300008C560120CF9302000D
:1045D0006C5601209DEB01007456012023D500008C
:1045E0007C560120A3D5000094560120BCF30200A4
:1045F000777A0120CC520120604D012080B5FFF771
:104600007DFF20B1806800210170002002BD0220E2
:1046100002BD0122F2E70022F0E770470A480B4989
:1046200008600020704700B170207047002070477C
:1046300080B500F00DF8FF2801D1A32002BD0020B5
:1046400002BD0020704770470A310300845B0120DF
:1046500080B500F081FCFF2818BF002002BD0021BA
:1046600001707047007800B101207047FFF760BF0C
:10467000FFF76CBF38B54478456800F093FE0C2115
:104680004C438849884B0A59521B9A4238BF0D51F6
:10469000BDE8324000F08CBE10B500F07BF86060E1
:1046A000042020702046BDE81040E3E738B50446FA
:1046B0000D4600F0B3FE2D186560012020702046E5
:1046C000BDE83240D6E710B50446207860B1042832
:1046D00006D000F0A3FE6168734B421A9A4201D2E1
:1046E000002010BD081A10BD4FF0FF3010BD70B58E
:1046F00000F050F8054600F055FE064660680022BE
:104700006FF0004100F007F8451925603046BDE81C
:10471000704000F04DBEF8B505460E46144600F058
:104720007DFE024600239CB1FF20207010E0087837
:1047300060B1042811D048685B4F111AB9420CD3FC
:10474000801AB04202D2064604B123705B1C0835C1
:1047500029680029EBD13046F2BD04B12370002056
:10476000F2BD0022D7E738B500F014F805460DE099
:10477000017851B1042904D041684B4A691A914229
:1047800003D2042303706168884708342068002836
:10479000EED131BD044600F041BE10B5FFF7FAFF7F
:1047A0000C2254433F4A404B1159401A984207D2B9
:1047B00014446068FFF7D7FF2046BDE8104096E735
:1047C00010BD000070B50446384E394A7078137831
:1047D000984204D35FF0F00136A000F095FE7578A2
:1047E0000C20304A2B464343691C7170D1180126B6
:1047F0004C600E7200E0457054F8080B0028FAD1A6
:104800000846FFF774FF284670BD0000F8B50C2479
:104810004FF0FF3160430091224D05F10801002265
:104820000A54224B93F8000068B300F067FF20B9E8
:1048300040F229111FA000F067FE00F0EFFD0246D4
:1048400000261A4BDFF860C05978F0B2884211D2C6
:1048500060432958571A674515D305F10807385C96
:10486000891A80B979B10098814288BF01460091C8
:10487000761CE9E7684600F060FF10B9684600F072
:10488000F0FD0120F2BD00F065FF0020F2BD0C211B
:104890004843044B012218440272704703490870D0
:1048A00070470000D859012001000080757A01206E
:1048B000353103006576656E742D636F6E74726FAB
:1048C0006C2E6300024800787047014908707047F9
:1048D0006A7F0120DFF8EC190988DFF8EC0900781D
:1048E00082B0ADF80610DFF8E41909788DF80300FE
:1048F000DFF8DC098DF802100021ADF80010008807
:104900000121DFF8D0291170BDF806209DF80310B1
:10491000ADF80400DFF8C00942809DF80220017064
:10492000BDF8041082719DF801208180DFF8501AD3
:1049300001EBC2039DF800100122836001734273F2
:1049400002B07047DFF88C0900787047DFF88819EB
:1049500001EB0010407B00F001007047412818BFB8
:10496000422803D0432818BF442801D101207047B2
:1049700000207047412818BF422801D1012070470C
:1049800000207047432818BF442801D101207047F8
:1049900000207047F8B515461E46069A079B044648
:1049A00000F063FA60B1042100F06FFC070007D04B
:1049B0002046FFF73DFE324629462046B84795E09F
:1049C000F1BD2DE9FE431400064688461F461CBF74
:1049D0000A9D002D20D0FFB128780C9B010761882B
:1049E00020794CBF4022802200F03FFAA0B108217C
:1049F00000F04BFC814678B12079FFF719FE9DF855
:104A00002C0000953B460190224641463046C8475F
:104A1000BDE8F743FFF715BEBDE8F783F8B5069C80
:104A200016461A460546234600F01FFAD0B121006B
:104A30000BD1022100F029FC040013D02846FFF717
:104A4000F7FD31462846A0470BE0102100F01DFC81
:104A5000070007D02846FFF7EBFD224631462846DF
:104A6000B84743E0F1BD2DE9FC41089C17461A46C2
:104A70000646234600F0F9F908B9862016E000251D
:104A80009CB9202100F001FC804670B10A9C099D70
:104A90003046FFF7CDFD0B9823462A460090394655
:104AA0003046C0470546FFF7CCFD2846BDE8F681F5
:104AB000F8B504462078A5680026FFF7B9FD11E097
:104AC000F1B214222868514347183988207800F041
:104AD0004DFE0121384600F0D8FB01001CBF2078B4
:104AE0008847761C2979F0B28842E9D3BDE8F140C5
:104AF000FFF7A7BD38B50024DFF8D8570AE0DFF884
:104B0000D807210600EB1150427BD10748BFFFF7C1
:104B1000CFFF641C2978E0B28842F0D331BD5CB588
:104B200085B00A9C00268DF80800ADF80A108DF8B3
:104B30000C30ADF80E200196ADF810400096002321
:104B4000002201A902A800F058F8019807B050BD52
:104B500010B5002301E0001D5B1C9CB28C4204D206
:104B600004889442F7D1408810BD002010BDDFF8C2
:104B70001418401A0C2290FBF2F21221DFF80808F8
:104B800010E00288B2F57C4FA8BF00F002B80846DA
:104B9000EDE7DFF8F817401A142290FBF2F201213A
:104BA000DFF8EC0792B2D3E710B50C4601886288B3
:104BB00091420DD1037B2279134209D0B1F57C4F8C
:104BC00004DBFFF7E6FF2189884201D1012010BDF7
:104BD000002010BD10B514460A88E3889A420AD115
:104BE0000288B2F57C4F04DAFFF7CBFF21898842B7
:104BF00001D1012010BD002010BD2DE9F74F82B07A
:104C000004469A460025002703E0C88845197F1C02
:104C1000FFB2DFF8C0160A78974280F0D880DFF83C
:104C2000B80600EB07102378027881689A42ECD12D
:104C30000091407BC107EAD54FF0000804E0B9F8C5
:104C40000A00451908F1010800995FFA88F00A790D
:104C50009042DCD20A685FFA88F11420484321466A
:104C600002EB00094846FFF79FFF0028E7D04FF00E
:104C7000000B07E030790BF1010B10F0300F04BF8F
:104C8000F0784519B9F808101FFA8BF08842D9D28C
:104C90001FFA8BF20C21D9F804004A4386182246E9
:104CA00031464846FFF796FF0028E3D00398274691
:104CB000344600B104602079810611D5DFF8C406BE
:104CC000002105E00279930644BFC27851180C30E8
:104CD000A042F7D3DFF8BC0689B200EB010B04E079
:104CE000DFF8B416ADB201EB050B0E9E049D304605
:104CF000E6B121464846FFF744FF024623887988FB
:104D00003878A84600F02EFD00B32079C1062BD5D7
:104D1000002E214648461BD0FFF733FF009503467F
:104D200079883878224600F032FD51E0002D4FD0CE
:104D300021464846FFF725FF0246238879883878C0
:104D4000D846AB4600F00CFD0028DED17E203FE0C7
:104D5000FFF717FFE17800950346019179883878CD
:104D6000224600F012FD33E05FEA0A01A0780CBF92
:104D7000E2785246412818BF422808D043280DD176
:104D8000921E92B24146584601F03EF81DE0521E76
:104D9000D2B24146584601F01DF816E04428EFD043
:104DA0003EB95FEA0A0004D0E078824538BF892026
:104DB0000ED3B8F1000F04D10021584601F050F98C
:104DC00003E04146584601F004F9002000E0862047
:104DD00005B0BDE8F08F2DE9F84305468946174632
:104DE0009846002603E0217B0A0615D4761C297913
:104DF000F0B288421DD2F2B2142328685A438418B4
:104E000020884845F2D1390006D0802FEBD0402FC2
:104E1000ECD1217B4A06E9D5B0F57C4F07DB204673
:104E2000FFF7B7FE404518BFB8F1000FDED12046AE
:104E300000E00020BDE8F283134680B507E013468A
:104E400080B5402204E0134680B5802200E00022B5
:104E500000F00BF800B1012002BD80B50023402214
:104E6000F6E780B500238022F2E770B50C461546C0
:104E70001E4600F071F8FF2801D1002070BD2146C8
:104E8000DFF8544404EB001033462A468068BDE83E
:104E90007040A0E770B50C4615461E46002100F094
:104EA00034F830B9DFF83004806833462A462146AA
:104EB000EDE7002070BD1346402201E00022FAE732
:104EC0002DE9F84F82468B46904699460026FFF71B
:104ED000CCFF08B9FF2016E00027DFF8FC43DFF81D
:104EE000F45308E04B4642465946FFF7D3FF00B162
:104EF000761C7F1CFFB22878874203DA3901605C98
:104F00005045EFD1F0B2BDE8F28F70B50022DFF866
:104F1000C83300E0521CDFF8BC432578AA420BDA04
:104F200014011E5D8642F5D10D0003D01C44647B44
:104F3000E507EFD5D0B270BDFF2070BD80B5002170
:104F4000FFF7E3FFFF2801D1002002BD00F031F898
:104F5000407B00F0010002BD0121D6E7DFF87813A5
:104F60000001085C7047F8B50C46FFF7F5FF0146F5
:104F70000020FF291FBFDFF8602302EB01118968C1
:104F8000002915D0002214270DE01B0608E0D6B238
:104F90000D687E43AB19451C1B7B2600F5D05B06D4
:104FA00048BF2846521C0D79D3B2AB42EFD3C0B2F2
:104FB000F2BDDFF8241301EB00107047F8B50C4682
:104FC0001546FFF7C9FF0021FF281ED0DFF8083380
:104FD000002203EB00134FF0140C01E0491C521C9B
:104FE0009868D6B20779BE420FD200680CFB06F66D
:104FF0002F003044067B02D0760602D4EFE7370656
:10500000EDD5CEB2A642E9D1F2BD0020F2BD00211D
:1050100009E010B50446012100F005F82046BDE87E
:10502000104001F04DB82DE9F14F86B0884601F0EF
:10503000FEF8A8490A78059000260492A64806E0E2
:1050400000EB01110A7B05998A420ED0761C049A66
:10505000F1B2914279DA9DF81830FF2BF0D0184662
:10506000FFF77AFF0646FF2878D04FF0000A01E0EC
:105070000AF1010A9848320600F10801120D895818
:105080005FFA8AF30A7993425AD21420096843439B
:10509000CD182A8940F22D118A42A8BF01F0DCF90F
:1050A00034064FF00009240D1AE00328ACBFD7F8EE
:1050B00008B007F1080B0120009000235A46002198
:1050C00001A8FFF79AFD5FEA080007D0BDF80620A7
:1050D0008148015D3B46584600F085F809F1010919
:1050E00029891FFA89F08842C2D21FFA89F20C215D
:1050F00068684A4387183B79D806EFD476490A5D39
:105100008DF804202B88ADF8063038794106284602
:105110004CBF802140218DF808103988ADF80A1065
:105120003946FFF72EFDADF80C003979F8784A07BB
:10513000BBD5D7F808B00328BDDBDBF800B0BAE771
:105140009DF81810FF293FF481AFB8F1000F04BF9C
:105150009DF8180000F005F801F09EF907B0BDE8D1
:10516000F08F3EB5044601F062F805460120FFF7D6
:105170006FFA012C03D0FF2C08BFA8422BD10423C7
:105180007F22222100F028F82320009001AB00228A
:1051900000F025F804237F22232100F01DF82320AE
:1051A000009001AB012200F01AF802237F22242193
:1051B00000F012F82120009001AB022200F00FF85D
:1051C00002237F22252100F007F82120009001AB67
:1051D000032200F004F837BD01A801F00EBB202126
:1051E000012001F0D9BBF8B504461D4628790E46CA
:1051F0001746830745D504220021684600F030FF9A
:1052000004B96C46012E08BF202F3AD1288858B91E
:1052100000F038F840B92879410605D40423224625
:105220007F21222001F01AFB288801280BD100F0F1
:1052300029F840B92879410605D4042322467F2164
:10524000232001F00BFB288802280BD100F01AF86C
:1052500040B92879410605D4022322467F21242023
:1052600001F0FCFA288803280BD100F00BF840B9B4
:105270002879410605D4022322467F21252001F00A
:10528000EDFAF1BD2846FFF772BC30B5047B012270
:1052900000230C4205D1002030BD144218BF5B1C16
:1052A0005200D5B28D42F8D30069DBB250F823002A
:1052B00030BD3A49401A8003020C0B213848FFF7F1
:1052C00047BC00001E1403003231030033310300D9
:1052D00008310300687F0120EC5601202DE9FE4FC4
:1052E000002700284FF00108487D06D008B90224A5
:1052F00007E0012804D1012403E008B9082400E0F4
:105300000424B9460D9EDDF83CB08A46ADF8002075
:105310000193224901EB89052888BDF800108842D5
:1053200023D1EA78224220D0A9789DF83800814222
:105330001BD39AF80F00D20608D5B0B12846FFF764
:10534000B8FFBAF81010814201D00EE068B9BB4531
:1053500013D0BDF8300087420FDAA9780198C15503
:1053600032887F1CBFB2521C328009F10109B9F1A9
:10537000350FCEDB4046BDE8FE8F4FF00008F9E761
:10538000A0FC020030F90200ACFC0200C4FB0200E9
:10539000A8FC0200FC5601207C55012030F80200D8
:1053A00004F90200EFF31180302181F31188704776
:1053B00080F311887047FEE77FB500F011F818B947
:1053C00000F015F801F0DBFC04B070BD7FB500F013
:1053D00007F818B900F00BF801F0EAFC04B070BD52
:1053E0000446084615461E4602A901F0A2BD0899CA
:1053F000099833460091029901902A462046704749
:1054000080B500F00DF880B202BD80B500F008F85C
:10541000FA21B0FBF1F080B202BD000000BF000035
:10542000E0B501F06FFD6A4601F0B5FD18B1472106
:1054300030A000F069F8DDE9000103B000BD000014
:1054400080B501F0F1FE01F06FFC20B15FF0520178
:1054500028A000F059F8002002BD0120164908706C
:105460007047FEB504462168002501B928E000F028
:1054700019F808B100F00FF8012025E0FEB50C4640
:105480002168002501B91BE000F00CF808B100F01C
:1054900002F8022018E001950095216800233A46A1
:1054A000301D89E7044E3570044F002301950093A9
:1054B0003A46301D8AE700006C7901205B540000F9
:1054C00000F048F90020FEBD02F055F8307840B9F0
:1054D0002146301D01F0DFFC2068852501F03EFDEE
:1054E00001E00020307020602846FEBD0146002209
:1054F0000020C3E773797374656D2D74696D6572EF
:105500002E63000042DE704738B504460D4600F0B9
:10551000A3FF02F043F82946204602F044F82B4648
:1055200022466C49012002F041F829462046BDE898
:105530003440E7E768482DE9F8430168674E4FF4C7
:105540002068B165026A6649F2650B68336649688E
:105550007166426AB266816AF166C26A3267016B3D
:105560007167806B96F83810B06748074CBF346C91
:10557000F46B02F04DF85B4B002284420146326529
:10558000A14624BFA3F12007A742716506F190024E
:10559000DFF854C1DFF854E118D3A0697064E469FE
:1055A000B464B56DC5F30805062D13D1704511D34C
:1055B00060450FD200884DF64264A0420AD170685F
:1055C000B46840F201785060946003E00024746491
:1055D000B46481464648814202D2014600E0091D7A
:1055E0000846984203D20C68B4F1CD3FF7D0414948
:1055F000081AF0640020002106F17C04C5B2401CAA
:10560000C7B244F82510062FF8D3002099452CD2B4
:1056100053F8041D7145F9D36145F7D2CC07F5D590
:10562000002406F17C0555F824708F4202D0641CDA
:10563000062CF8D3062CE9D1C4B2002C06F17C0468
:105640000CBF0520401EC5B244F82510DEE7F16FFF
:10565000002306F17C0506EB8304D4F8804045F86E
:1056600023405B1C042BF6D911600146481EC9B2C9
:105670000029ECD1B06DC0F30800032810D0042835
:1056800011D0052812D0062813D00C2817D03B289B
:1056900018D119480268910719D540F2025816E04E
:1056A00040F6012813E040F6022810E040F60328F7
:1056B0000DE0B8F5206F0AD140F6042807E040F667
:1056C000052804E018B14D2838BF40F607284046A9
:1056D000BDE8F283B0F6020004ED00E00000002017
:1056E00000E300E0204C0120BAF30200684400000F
:1056F0009C000020204C01201880014AEFF310800C
:10570000C00706D4EFF3118030288041C043C00F9A
:105710007047012070477047704770477047704767
:1057200070477047704700207047704700207047EF
:1057300070477047704700207047002070477047DF
:1057400001207047012070477047704770477047CD
:1057500070477047002080F3118870470120704720
:105760000120704701207047704770477047002044
:1057700070470020704700207047002070470020CD
:1057800070470020704700207047012070470120BB
:1057900070470020704700207047002070470020AD
:1057A0007047002070478420704770470020704782
:1057B00070470020704770470020704701207047F5
:1057C00070477047002070470020704700207047E6
:1057D00070477047034801680878012808BF022015
:1057E00070470000845B01207047704700207047BD
:1057F0004FF6FE720121C281818101610022027097
:10580000012070470120704700207047002070473A
:105810007047704700207047002070470020704795
:10582000002070470020704700207047002070471C
:105830007047B52070470020704700207047002057
:105840007047704770477047002070477047704737
:1058500080B5FFF781FBFF2804D018B9DFF8A40654
:10586000007802BD002002BDF8B5069F0024002587
:105870000646092F02D300200021F4BDA4460DE006
:10588000A7EB000EB6441EF8010C2D0245EA146584
:10589000002110EB04240CF1010C4D415FFA8CF057
:1058A000B842EDD39D4206D828BF944203D2101BC4
:1058B00063EB0501F4BDA01A65EB0301F4BD10B55F
:1058C0000268DFF8441613880B8054884C805279A4
:1058D0000A7103681A794FF48A53CB804A710268BF
:1058E00093799A06DFF8242644BF4FF48B53CB807C
:1058F0008169137839B9C088DFF8141603F0FD0305
:105900000880137010BD43F002031370DFF80446E3
:1059100081691622204600F05CFB0022227010BD37
:1059200080B50020FEF77FFEFF20FFF770FBFEF73B
:1059300088FEFFF707F802460121DFF8C80500F0EE
:105940008FFBDFF8C435DFF8D0255221DFF8CC0516
:1059500001F007FFFEF7BCFD01F0A4FF02F0E7F93C
:1059600002F0AAFA02F0DEFA00F096FD02F044FF1F
:1059700002F09FFF03F0C4F803F0C7FF04F0CDF876
:1059800004F036F904F084F9BDE80140FFF7B2B83D
:10599000704780B504F02CFA20B905F0CFFC08B9A7
:1059A00003F084FBFFF744FFBDE80140FFF74BBF66
:1059B00010B5044621684879FFF7CEFAFF281DD0BC
:1059C000DFF8601501EB0010217F027B8A4215D1C0
:1059D000226840881188884206D04FF6FF739942AA
:1059E0000CD1B0F5004F09DA2079022818BF03283E
:1059F00006D111895079FFF7C6FE08B9002010BD05
:105A0000A07B0028204602D005F038FD01E005F01B
:105A10005FFD00B1012010BD38B515462A78540746
:105A20004CBF0522032293422ED3069C049A206089
:105A30002171E280A560A381287800F00100A073A5
:105A40002978890801F00101E17328780121217585
:105A5000C00800F001006075E07B30B11A462846AE
:105A600006F01EF8217D891C21752082207DA289E7
:105A7000411C2175285CA074481C2075C9B2695C62
:105A8000C0B28242E17401D2002032BD0598A0610B
:105A900000F0CDFB2077012032BD2DE9FE4F80467E
:105AA0000F469246DFF880649B460D9D3046DFF836
:105AB0007C14202206F014F8BDF8300002960195FF
:105AC00000905B465246394640460024FFF7A4FF4B
:105AD000DFF84C94002867D0C9F80060B07CDFF88C
:105AE000501408703046FFF7EAFE304600F0EAFA3C
:105AF00028BB35BB042F18BF052F03D0022F18BFBA
:105B0000032F01D1012200E00022F18830680191C9
:105B10000121438800930388F07C00F00FF998B1CD
:105B20003068817988060FD4DFF80844012121709C
:105B300000227E21304600F0C2F8002020700124AF
:105B400032E0287D81072FD530684179FF2927D1A0
:105B5000A046DFF8B453FEF7F5FE5FFA88F1814204
:105B600022D25FFA88F0FFF7F9F907465FFA88F06A
:105B7000FEF7ECFE88B13068328A41883846FFF77C
:105B80005BF950B13046FFF79AFE306847712F71CC
:105B90003046FFF70DFF00B1012408F10108DAE7F4
:105BA0003046FFF705FF044605F0F8FE16220021F7
:105BB000DFF8600300F054FA0020C9F80000204626
:105BC000BDE8FE8FDFF870130878401C0870FFE70F
:105BD00000F07F00704780B1DFF860130978012979
:105BE00004D1018841F0400101807047022904D1AD
:105BF00002884FF6BF710A400280704778B1DFF823
:105C000040130A78012A04D1DFF8382313780B7087
:105C100001E0022A03D1017841F0100101707047C0
:105C2000FEB5BA4D2B78D90701D50020FEBDDFF8AF
:105C3000F0120968B44C71B109688A79960603D5E7
:105C4000E28842F02002E28089794A0603D5E188A1
:105C500041F04001E180B14A11784E07B44947BF95
:105C60000F78D7700E7856709B0709D5AA4801881F
:105C7000A84806F089F8297801F0FD012970FEBDD9
:105C8000A34B1D884FF6FC762946B14208DA0190F5
:105C9000A148009203882246002006F028FAFEBDA3
:105CA000009013469C4802882146284606F00AFACE
:105CB000FEBD0020B4E7014699480068002270B597
:105CC000044620790E461546002818BF01280BD13E
:105CD000A0680178CA0601D5300005D0A07B002855
:105CE00004BFE07C0B2801D1002070BD00218A4A4E
:105CF0001180607D00B90821E07B18B9084605F0E5
:105D000064FE06E041F0040005F05FFE208A05F025
:105D10006BFEA07C05F059FE0B2005F056FEE07CE2
:105D200005F053FE304605F050FE2046FFF7C7FD54
:105D30002846BDE8704073E70022C0E770B51D46F5
:105D4000814B1C787B4E012C01D0337813B100209D
:105D5000307070BD0B0002D10AB1002070BD002C64
:105D60001EBF049C4FF657439C4206D003460A468A
:105D700021462846FFF7FBFC00B1012070BD000062
:105D800038B5D28852240346950608464FF6FD7171
:105D900048BF4924550548BF083C150548BF083C85
:105DA000120448BFA41E032B0ED8DFE803F009023B
:105DB000060BC0B206F03CFC02E0C0B206F04EFE9C
:105DC000014601E0641EE4B20846FFF7E8FC241A2D
:105DD000E0B232BD70B50C000546164608BF002083
:105DE00003D02178FF2902D1FF20287070BD204602
:105DF00005F066FE864288BF06463246611C681C76
:105E000000F0E7F82E7070BD70B505460C00164620
:105E100003D100206870297070BD2078FF2804BF6E
:105E20006078FF2802D12870687070BD204605F0A8
:105E30004CFE864288BF06463246A11CA81C00F0D4
:105E4000C8F82E70360A6E7070BD2DE9F041541EF0
:105E5000002B3ED0042A37DC00230026984614E0AD
:105E6000651B002814BF10F805C04FF0000C571E2A
:105E70004D5DA7EB0807FF000CFA07FC05FA07F7D2
:105E80004CEA03033E4308F101085FFA88F59542A6
:105E9000E6D3042A10DAD5000120D2006D1E00FAE4
:105EA00002F2524243FA05F1CC0746FA05F048BF28
:105EB0001343C00748BF16439E4215DBB34203DAC3
:105EC0004FF0FF30BDE8F0810020FBE7AE42F7DB8A
:105ED0005B1CDDB29542F7D2651B00280CBF002683
:105EE000465D4D5DB542F1DA0120EBE70021174A2E
:105EF00001E0891CC9B2535C8342FAD35018407840
:105F000070470000BF7F0120205B0120C47F01207B
:105F10004C7F0120387701204E7F01202C5B01202F
:105F200034770120EC56012014770120BC130300C4
:105F30001F530120C07F012020530120C17F012079
:105F4000C27F0120C37F01201E530120DC13030008
:105F5000283808288041C00F704710B500F009F8B4
:105F6000FF2801D1A32010BD002104F8301000202B
:105F700010BD04460846FEF7EFBF38B500F00BF839
:105F8000FF2801D1A32032BD294604EBC000BDE8A3
:105F90003440FEF7CDBA044608461546FEF7DCBF8E
:105FA00010F0E00011D0802806D0A02806D0C0282C
:105FB00006D0E02806D007E01C2070471D2070475F
:105FC0001E2070471F207047FF20704700F01F0001
:105FD000704770B5814224D210441144401E491EBE
:105FE00010E011F80139121F00F8013911F80149C8
:105FF00000F8014911F8015900F8015911F8016937
:1060000000F8016993B2042BEBDA93B2002B1EBFA8
:1060100011F8013900F80139521EF6D170BD00F0B7
:106020000DF893B2042BFADA93B2002B1EBF11F8CD
:10603000013B00F8013B521EF6D170BD11F8013B47
:10604000121F00F8013B11F8014B00F8014B11F849
:10605000015B00F8015B11F8016B00F8016B704700
:10606000130003D00A46194606F0BABE704710B5B1
:10607000034600E0521E90B218B100F003F8F9D0C8
:10608000001B10BD13F8010B11F8014BA042704723
:1060900080B506F0AEFEFFF743FC06F0C1FE06F049
:1060A0008DFFBDE8014007F027B880B507F028F95B
:1060B000FFF76EFC07F04CF9BDE8014003F03ABD74
:1060C00007F037BCFFF7A8BBFFF7ACBB0020704759
:1060D00038B504460D46FFF7B9FB2946204606F0C1
:1060E00084FF29462046BDE8344007F05ABCFFF73C
:1060F0009BBBFFF7A4BBFEE738B578480068784C37
:106100004822206060600021FFF7AAFF754A1078DE
:1061100021680022087020684FF6FF7141800273E9
:1061200023685A7320680B22142382732268D37366
:1061300020684FF6FE730382418207F071FC2168EC
:10614000087607F06DFC2168487607F069FC216845
:10615000654B8876654802782168CA76644920686C
:106160000A6840F8282F1D78057162480168226886
:10617000116331BD10B507F069FE594C6168897B28
:10618000884203D0084607F06BFD50B907F062FE65
:10619000616891F90F10884205D0084607F069FE42
:1061A00008B1012010BD6068008A08F094FA6068A8
:1061B000408A08F0A4FA6068017B01290CBF012025
:1061C000002008F077FA002010BD10B54A4C0020DE
:1061D000207009F0A8FA20B92046BDE81040FEF76B
:1061E0005BBA70E080B5002000F015F828B10020FF
:1061F00000F005F808B1002002BDFF2002BD3848BC
:106200000168487B02281CBF1128432801D10120C6
:1062100070470020704732480168087B01281CBF86
:106220000228032801D10120704700207047002078
:106230007047002070473149087070477047002050
:10624000704701207047704700207047002070475A
:10625000704770470020704780B50020FFF7CFFFE0
:1062600020B10020FFF7D7FF00B1012002BD80B5AB
:106270000020FFF7C4FF08B1002002BDFF2002BDCF
:1062800080B50020FFF7BBFF30B1154801680A7BDD
:10629000032A01DA002002BDFF2002BD10B5040070
:1062A00000F0058040F27D1151A0FFF72DF9134950
:1062B000087808B9702010BD084948200A6844438E
:1062C000074B10195860BDE8104053E70448416877
:1062D000088A704702484168488A7047B44D0120D7
:1062E000E477012009530120015301200A530120C2
:1062F000B84D0120BC4D0120DC7701202453012042
:106300007047002070470020704708F0C6BF002883
:1063100018BF09F047BA704709F094BD09F075BC81
:1063200082B08DF80010DDE9002302B011461A4654
:10633000FFF7FEB933B585B005468DF8042004F0AB
:1063400093FF0446284604F09FFF7CB10028BDF867
:1063500018000FD105F075F8FF288DF8000004BF74
:1063600000218DF80010CDF808D016E0A8B106A8DD
:10637000029012E005F065F8FF288DF8000003AAEE
:1063800004BF00218DF800109DF80000BDF8181022
:1063900002928DF80C00ADF80E10DDE901010A46FD
:1063A00001462846FFF7C4F907B030BD00000000E1
:1063B00073B582B00446154604F056FF06462046E3
:1063C00004F062FF2EB120B903A98DF800500191AD
:1063D00005E04FF4057100BF05A0FFF795F8DDE972
:1063E00000010A4601462046FFF7A2F97FBD0000E2
:1063F000656D6265722D6D756C74692D6E6574774F
:106400006F726B2D737475622E63000009F01CBDF2
:106410007FB51A4991E81C006846032180E81C00FA
:1064200001250D268DF807108DF800508DF80660B7
:106430000821232009F042FE694611480AF0EEF8CF
:106440004FF400600F49086002220F4B1A600F4C96
:1064500020600F490A607FBD09480AF0CEB8A52820
:1064600003D1002106480AF0B7B870470948006810
:1064700000E0C84000F0010070470000940B0300EA
:106480000080014A84E200E018A0014A04E100E033
:106490001C90014A0480014A78B55D48A5B0047893
:1064A00020211DA80AF0EEF8212114A80AF0EAF82C
:1064B0005848018820237F221DA80AF044F90025AE
:1064C00000201DA90A5CFF2A03D014AB03445A70B4
:1064D0006D1C401C2028F5DBE8B238B1422000904A
:1064E0008DF8505014AB052200F0A0F806A800214A
:1064F00000220023002580E82E0011210FA80AF0B9
:10650000C1F84548018810237F2206A80AF01BF92C
:106510000020002106AA535CFF2B03D00FAD0D44D1
:106520006B70401C491C1029F5DBC1B239B18DF8E4
:106530003C00422000900FAB062200F077F837486D
:10654000FF2501888DF8065001237F220DF10600FA
:106550000AF0F9F89DF80600FF2806D020210091E6
:106560000DF10603032200F061F802A800210022C9
:106570000023002680E84E0011210AA80AF082F8C4
:106580002748018810237F2202A80AF0DCF80020A7
:10659000002102AA535CFF2B03D00AAE0E44737095
:1065A000401C491C1029F5DBC1B239B18DF8280017
:1065B000412000900AAB0A2200F038F819480188FF
:1065C0008DF8055001237F220DF105000AF0BBF87C
:1065D0009DF80500FF2806D0302100910DF105033C
:1065E000082200F023F8104801888DF80450012398
:1065F0007F2201A80AF0A7F89DF80400FF2805D023
:106600003021009101AB092200F010F826B070BDD6
:10661000EC5601201A3103001C3103001E31030027
:1066200020310300223103002431030000212046E1
:1066300000F0B2B92DE9F84F88B00AF044F908B17A
:10664000C620D7E0DFF8B852DFF8B86231682868B2
:106650000BF038FC04002CD032685168002410681C
:10666000926913689847316802A88A6991688847D7
:10667000326802209169CA68904706E00968126989
:1066800000FB0410641CE4B29047039831684B6827
:10669000B3FBF0F38A699C42F0D3D16800208847AD
:1066A0003068816948688047316828680BF00AFCC7
:1066B00004460027DFF85062002C71D1DFF84C024D
:1066C00050F82790DFF84812C85DD8B1286801ABB0
:1066D0006A4649460BF0F0FDB04208D000285FD171
:1066E000009801285CD0286849460BF02DFEDFF8A1
:1066F000240250F8271028680A6849460BF023FD49
:1067000004464DE0DFF81012CA5DDFF810324FF09A
:10671000000A0792D95DDFF8FC81069105E0019837
:106720000799884217D10AF1010A069882451BDAB7
:1067300028680AEB090B01AB6A4659460BF0BCFD11
:10674000B04208D00028EED100980028E7D0286891
:1067500059460BF0F9FD079B58F827202868594641
:106760000BF076FC0400DED0DFF8B411C85DB8B1E0
:10677000DDF8188001E008F10108B8F17F0F0FD2B1
:10678000286808EB090A01AB6A4651460BF094FDF4
:10679000B04205D0286851460BF0D6FD0400EAD07F
:1067A0007F1C272F88DBDFF87C011CB901210170D9
:1067B000002415E000210170002CF9D0DFF86801F9
:1067C000241A08D0641E08D0A41E08D0241F0CBFB1
:1067D000C124C52404E0C22402E0C32400E0C42490
:1067E0002968087C28B14FF48971DFF84001FEF771
:1067F0008BFE204609B0BDE8F08FF8B50E46154671
:10680000272E20DADFF81C21117881B1DFF8F02083
:106810001468DFF8FC20915DDFF8F07041B157F8A3
:106820002610024620460BF0D2FC00B146E0F1BD36
:106830007F2D024657F8260008BF0025291820465C
:106840000BF048FCF1E7B1F5807F04D301B0BDE85F
:10685000F04009F078BF40F2451133E0F8B5064644
:106860001546272E1EDADFF8BC20107878B1DFF845
:1068700090201068DFF89820945DDFF890703CB1AC
:106880002A6857F826100BF05EFC00B116E0F1BD47
:106890007F2957F826402A4608BF002109190BF026
:1068A000D7FBF2E7B0F5807F05D31A462946BDE84D
:1068B000F84009F092BF4FF4BC7103E0BDE8F2402C
:1068C0000BF0B7BDDFF86400BDE8F440FEF71CBE76
:1068D000DFF850201178002900D1704710B5DFF89B
:1068E0002C3053F82010DFF81840206800220BF0FD
:1068F000A3FC18B1BDE810400BF09BBD10BD00001B
:10690000C84E0120E84E01200BE000F06C0F0300A0
:106910000810030008130300581003008010030040
:1069200030100300BB7F012001E000F0A41303003E
:106930002DE9F84785B0109D0F9F0E9C0295019799
:1069400006468A46904699460094FEF707FF0100E6
:1069500003D0022803D002D310E001200EE00CBFC8
:1069600001200020002104910390029501970094DA
:106970004B4642465146304600F002F906B0BDE8AB
:10698000F08778B585B00024049401259DF82C602B
:106990000A9C039500251AE078B585B000F002F84E
:1069A000402317E09DF828600024012501930494FA
:1069B000039502960094704778B585B001240025B0
:1069C000049403959DF830600B9CBDF82850029606
:1069D0000194009500F0D4F806B070BD7FB5099C15
:1069E0000A9D00260294089C03950096019400F0ED
:1069F00079F904B070BD38B584B000F002F84023D6
:106A000007E0089C002501930395029400957047C8
:106A1000019400F067F905B030BD2DE9F84F84B05E
:106A2000DDF8389090461C4605468A464B4622467D
:106A30000026ADF80060FEF718FAB34607008DF89F
:106A40000450ADF806A08DF80840ADF80A80ADF806
:106A50000C904BD001A9FEF7A7F8002846D0ADF85E
:106A600002800024DDF83C90DDF840A0BDF80080F5
:106A700015E0B1B249450FD204F0B6FFA87804F092
:106A8000A4FF5FEA0A0006D02879C10754BF052099
:106A9000072004F09AFF761C08F10108641C39896C
:106AA000A0B288421AD2A2B20C2178684A433B882D
:106AB0008518B3F57C4F09DA288801AA2946ADF874
:106AC0000A003846FEF786F80028E7D02888BDF887
:106AD00002108842CDD20BF1010BDDE7B6B21FFAEE
:106AE0008BF006441FFA88F0864201D1012000E0B5
:106AF000002005B0BDE8F08FF8B596B01D9C154696
:106B0000052C2FDB04AA0392BDF87020412605AFA7
:106B10000092029601972A4600F0E4F8060023D17D
:106B20009DF8100005A9241F0BF096FC0646B44200
:106B300018DB284604F058FF002004F046FF9DF8BB
:106B400010000D4C04F041FF2088C0F152018E422C
:106B500008DA0A4B324605A91844FFF73AFA2088AA
:106B60003618268017B0F0BD284604F03DFF3046A9
:106B700004F02BFFF6E700004E7F01202C5B012084
:106B80002DE9F84F88B0129C0546894692469846F2
:106B9000002004908DF81450ADF816908DF81880F0
:106BA000ADF81AA0ADF81C4000900023002204A903
:106BB00005A8FEF722F8049808B9862082E0159807
:106BC00060B904999DF850008A78904218BF8D20D2
:106BD00078D10979C80758BF882073D50498139EC7
:106BE0000179480726D5049988684168049802917C
:106BF00081688868049901908878FFF7A9F983462D
:106C000004985B46C1788DF8001003290A46314686
:106C10002ADA02A8FFF719F99DF8002007465B461B
:106C2000314601A8FFF711F9012F1CBF4FF0FF31CA
:106C3000884228D01698002843D100F046F8FEF785
:106C4000E9FD01003ED100F040F8FDF70CFF010026
:106C500038D10120009000233246002105A8FDF71D
:106C6000CCFF010011D02DE00298FFF7EEF80128CB
:106C700009D09DF8002001985B463146FFF7E5F802
:106C800010F1010FD6D187201CE0049B4A4629460B
:106C90003046FEF7A8FA02969DF85000009443464D
:106CA000019052464946284602F00FFA00F00DF8CE
:106CB000FEF7AFFD00944346524649462846FDF78D
:106CC000ADFE002009B0BDE8F08F0396049843465E
:106CD0005246C1789DF850000291009401904946B7
:106CE00028467047F0B585B01C460A9E0B9D0C9B4C
:106CF000002701978DF80800ADF80A108DF80C40B8
:106D0000ADF80E20ADF8106000972A4601A902A840
:106D1000FDF773FF010004D10D9911B1019A937829
:106D20000B7005B0F0BDFEE7F8B5FEF73BFB04467F
:106D3000DFF89854287800BB0021DFF89404016044
:106D4000DFF890341960DFF8900401800BF0A6FBA7
:106D500001200BF003FC0BF061FC0246DFF87C64C1
:106D60003260DFF87C0440F2E73100230BF062FC74
:106D7000DFF8707438600120287020466BE0F8B5A9
:106D8000044684B000F02BF80CB922200EE003A9D1
:106D9000204600F064F89DF80C00012808BF03208D
:106DA00004D000F013F8002200F023F805B0F0BD85
:106DB000FEB504000D4616461F4601D12220FEBD39
:106DC00000F023F800F018F800220FE0BDF82C00C6
:106DD0009DF82810029000970191334670470020DB
:106DE0000D4616461F468DF80C00704700F001F85E
:106DF000FEBD29462046BDE1BDF824009DF82010C7
:106E000002900097019133467047F8B5054600247B
:106E10000DB92220F2BDFEF7C5FA064600F098F93A
:106E2000DFF8AC733868A842284608BF012400F098
:106E300065F9050004D03046FEF7BAFA2846F2BDDF
:106E400038681CB118B100F074F903E010B90220E1
:106E50000BF091FB3046FEF7ABFA0020F2BD38B5DF
:106E600005000C4618BF002C01D1222032BD0020A5
:106E70002070FEF797FADFF858130A6800E092686E
:106E80002AB1217819B9AA42F9D101222270FEF75C
:106E90008FFA002032BD70B505000C4618BF002CDB
:106EA00001D1222070BDFEF77DFA064600F050F9B0
:106EB0006869DFF81C132060086805E0B0B121683C
:106EC0004269511821608068A842F7D10BF01AFB83
:106ED000DFF8005329682268401A90420BD20BF069
:106EE00011FB22682968101A081805E03046FEF7E1
:106EF0005FFA032070BD002020603046FEF758FA8C
:106F0000002070BD70B5FEF74DFA06460BF0FAFA98
:106F10000546B148048801200BF043FB18B10BF083
:106F2000F1FA0546641C3046FEF742FA214628462F
:106F300070BD30B50C46AB490A6882420CD3A74DF0
:106F400029684FF47A720023A1FB00010BF072FB59
:106F5000401C2060002030BD212030BD9F4A70B50C
:106F600016684FF47A71A1FB0045304600F045F9F0
:106F700048B1304600F03CF9024620462946BDE8BB
:106F800070400BF0DBBB2046294632460023BDE8AB
:106F900070400BF04FBBF8B5934B944E994222D8FA
:106FA00028BFB0421FD24FF47A77A7FB00451646A0
:106FB00007FB015589490F68384600F01EF940B1BA
:106FC000384600F015F90246204629460BF0B6FB7C
:106FD00005E0204629463A4600230BF02BFBC6E984
:106FE00000010020F2BD2120F2BD2DE9F041044650
:106FF000E00707D578480188491C018000F0A8F80F
:1070000000F097F8A00753D5724E0BF07BFA376863
:107010000546EF1B35E0394620463560426991420E
:1070200009D3037994F804C0634538BF04468068E7
:10703000891A0028F2D14046FEF7BAF960690021AA
:1070400061613F1AFEF7AEF98046204600F056F81F
:107050004046FEF7ADF9206948B1FEF7A3F9216972
:107060008046204600F026F84046FEF7A1F9E26887
:1070700012B12168204690470BF044FAC7197F1BD4
:107080000546FEF78FF980465148046844B16069AF
:107090008742C0D2C71B6761356000F04AF802E042
:1070A00002200BF068FA4046BDE8F041FEF780B9D7
:1070B000BDE8F081F0B54161454E3468D4B100259A
:1070C0006369994206D22BB1CA1A09D1227907798C
:1070D000BA4205D2C91A41612546A468002CEFD1F5
:1070E000002D14BFA8603060220005D06369591AD2
:1070F000616101E0306000228260F0BD344B00220B
:10710000196801E00A468968002918BF8142F9D14F
:10711000814201D0022070478168002A14BF91602B
:107120001960816819B14A69406982184A61002072
:107130007047274910B50A68264804685069041941
:1071400002200BF00BFA2046BDE810400BF0E0B92E
:1071500010B50BF0D7F91E4909681E4A41B11368F2
:107160004C69C31A9C422EBFE31A001B00234B61DB
:10717000106010BD70B50C46059906461546049A78
:107180000698317132600021B1603561F360F080A2
:107190003CB9F268716112B131683046904795B1DF
:1071A0002C46FEF7FFF80546FFF7D2FF2146304692
:1071B000FFF780FF06480168B14208BFFFF7B9FF3B
:1071C0002846FEF7F5F8002070BD0000B67F0120CC
:1071D000486601204C660120567F0120446601204C
:1071E00018FCFFFF5066012037894100F0A7C64B0D
:1071F000B0FA80F0C0F11F00704720B1411E084274
:1072000001D10120704700207047FEE74FF6FF7064
:107210007047406A704742F2140281507047826999
:1072200022EA01018161704770B588B004A87349F2
:10723000102204F055FC0D22002168460BF08DFA57
:1072400002208DF806006E4C6A46002120460BF0A5
:107250000FFB206B4FF6FF71E1610022ADF81220A9
:10726000684D04A920460BF0ADFA062008F0F0FDA9
:10727000BDF912104A1CB0FBF2F0491CADF8121017
:1072800009B22860B1F5806F02DA5F498842E8D21E
:107290000E2008F0DDFD2D685C4EB6FBF0F65C4874
:1072A0000021E6FB05015B4A00230BF0C3F95A4DB0
:1072B0002860002659490E70A0694021584B20F0E3
:1072C0001000A061574801601960002008B070BD2F
:1072D00038B500F033F804460D4605E04FF6E850A7
:1072E00000F056F800F024F800214FF6E9508D42E6
:1072F000F4D88442F2D2A0B200F04AF8002032BDA5
:1073000038B500F01BF804460D4605E04FF6E8508E
:1073100000F02AF800F00CF800214FF6E9508D42F9
:10732000F4D88442F2D2A0B200F01EF8002032BDA0
:107330003E4A4FF0FF33A4185D417047314B1C6843
:10734000024633480021E2FB0401324A00230BF0DD
:1073500071B937480068C10605D51020324A10605F
:1073600001212E4B197070477CB504000FD0244DBD
:107370002846FFF74EFF86B22846FFF74AFFADF8D2
:107380000000BDF80000801B80B2A042F4D373BDA2
:10739000F8B5050030D0FEF705F80646184C204633
:1073A000FFF737FF07461C480068854238BF05468F
:1073B0002046FFF72BFFED19206BADB2A56610211B
:1073C0002046FFF728FFA06940F01000A06130467A
:1073D000FDF7EEFF1749114A04E00B6823F00403A0
:1073E0000B6030BF10780028F7D0002111702046C4
:1073F0001021BDE8F44012E7F1BD0000AC1303001A
:10740000008004400C77012081841E0000B0710BC5
:1074100020A1070040420F0010770120BE7F01200D
:1074200000E100E080E200E014A004401802FFFF49
:107430001480044010ED00E05148006851494F4A63
:10744000000C000408601060704701000FD4400970
:107450004D4A52F8202001F01F01CA40D20706D53C
:107460004A4B53F82000C84000F00100704700204C
:10747000704700002DE9F84F054607288A4608BFE7
:10748000032502D0082808BF022529460120FEF75F
:10749000DEF9FEF7EBFF18B1012D08BF012600D081
:1074A0000026A520FEF7DBFFEFF3108000900120FF
:1074B00080F31088EFF3118B4FF0000888F31188E8
:1074C000012D2D4C0CBF8146C146484600F070F896
:1074D000681EC4F80080042816D8DFE800F0030A0C
:1074E0000A0E12002A48016821F00401016030BF31
:1074F0000EE001200BF01AFA0AE001200BF01FFA4F
:1075000006E00BF031FA03E088212248FDF7FCFF8A
:107510001B48416807681A200F40BFB22760FFF779
:1075200094FF18B91920FFF790FF10B147F4803786
:1075300027600A20FFF789FF18B1206840F4003067
:1075400020601EB10121144809F046F8484600F0B9
:1075500030F8BAF1000F29461DBF8BF3118800984F
:1075600080F3108888F310880020BDE8F44FFEF700
:107570006EB900217EE7FCE75466012058660120C1
:1075800020C4034020E4034000E200E000E100E00A
:1075900010ED00E04C0F03000080014A302080F322
:1075A00011887047704770477047FEE707E07047E3
:1075B00070477047002070470020704700BF0CB430
:1075C000002002B07047FAE70020704700207047A3
:1075D000002070470020704710B50446FFF7DEFF1B
:1075E000200A00280B484FF20F0108BF2402048034
:1075F0004180BFF35F8FBFF34F8F07490A68074889
:1076000002F4E06202430A60BFF34F8F00BFFDE760
:1076100003487047000000200CED00E00400FA056C
:10762000C04201202DE9F24F022940F39580190054
:1076300005D0BDF800100529F7DB42F004028246B0
:1076400001268AF80020180005D08AF801301B0AAC
:107650008AF8023003260A9CFEF7B4FA0AF80600FC
